{
  "contractName": "TestContract",
  "abi": [
    {
      "anonymous": false,
      "inputs": [
        {
          "indexed": false,
          "internalType": "int256",
          "name": "id",
          "type": "int256"
        },
        {
          "indexed": false,
          "internalType": "int256",
          "name": "budget",
          "type": "int256"
        },
        {
          "indexed": false,
          "internalType": "string",
          "name": "description",
          "type": "string"
        },
        {
          "indexed": false,
          "internalType": "int256",
          "name": "noRevision",
          "type": "int256"
        }
      ],
      "name": "milestoneList",
      "type": "event"
    },
    {
      "anonymous": false,
      "inputs": [
        {
          "indexed": false,
          "internalType": "int256",
          "name": "id",
          "type": "int256"
        },
        {
          "indexed": false,
          "internalType": "string",
          "name": "email",
          "type": "string"
        },
        {
          "indexed": false,
          "internalType": "string",
          "name": "projectName",
          "type": "string"
        }
      ],
      "name": "purchaserDetails",
      "type": "event"
    },
    {
      "inputs": [
        {
          "internalType": "uint256",
          "name": "",
          "type": "uint256"
        }
      ],
      "name": "milestonesList",
      "outputs": [
        {
          "internalType": "int256",
          "name": "Id",
          "type": "int256"
        },
        {
          "internalType": "int256",
          "name": "budget",
          "type": "int256"
        },
        {
          "internalType": "string",
          "name": "description",
          "type": "string"
        },
        {
          "internalType": "int256",
          "name": "noRevision",
          "type": "int256"
        }
      ],
      "stateMutability": "view",
      "type": "function"
    },
    {
      "inputs": [
        {
          "internalType": "int256",
          "name": "_id",
          "type": "int256"
        },
        {
          "internalType": "string",
          "name": "_email",
          "type": "string"
        },
        {
          "internalType": "string",
          "name": "_projectName",
          "type": "string"
        }
      ],
      "name": "setPurchaserInfo",
      "outputs": [],
      "stateMutability": "nonpayable",
      "type": "function"
    },
    {
      "inputs": [
        {
          "internalType": "int256",
          "name": "_id",
          "type": "int256"
        },
        {
          "internalType": "int256",
          "name": "_budget",
          "type": "int256"
        },
        {
          "internalType": "string",
          "name": "_description",
          "type": "string"
        },
        {
          "internalType": "int256",
          "name": "_noRevision",
          "type": "int256"
        }
      ],
      "name": "setMilestoneDetails",
      "outputs": [],
      "stateMutability": "nonpayable",
      "type": "function"
    },
    {
      "inputs": [
        {
          "internalType": "int256",
          "name": "_id",
          "type": "int256"
        }
      ],
      "name": "milestoneById",
      "outputs": [
        {
          "components": [
            {
              "internalType": "int256",
              "name": "Id",
              "type": "int256"
            },
            {
              "internalType": "int256",
              "name": "budget",
              "type": "int256"
            },
            {
              "internalType": "string",
              "name": "description",
              "type": "string"
            },
            {
              "internalType": "int256",
              "name": "noRevision",
              "type": "int256"
            }
          ],
          "internalType": "struct Milestone",
          "name": "milestone",
          "type": "tuple"
        }
      ],
      "stateMutability": "view",
      "type": "function"
    },
    {
      "inputs": [],
      "name": "allMilestones",
      "outputs": [
        {
          "components": [
            {
              "internalType": "int256",
              "name": "Id",
              "type": "int256"
            },
            {
              "internalType": "int256",
              "name": "budget",
              "type": "int256"
            },
            {
              "internalType": "string",
              "name": "description",
              "type": "string"
            },
            {
              "internalType": "int256",
              "name": "noRevision",
              "type": "int256"
            }
          ],
          "internalType": "struct Milestone[]",
          "name": "milestones",
          "type": "tuple[]"
        }
      ],
      "stateMutability": "view",
      "type": "function"
    }
  ],
  "bytecode": "0x608060405234801561000f575f80fd5b50610f1d8061001d5f395ff3fe608060405234801561000f575f80fd5b5060043610610055575f3560e01c80630a46f3b0146100595780631e87f2fb14610077578063ca9e9ba714610093578063cbda494a146100c3578063e150e3a7146100f6575b5f80fd5b610061610112565b60405161006e9190610701565b60405180910390f35b610091600480360381019061008c9190610888565b61021a565b005b6100ad60048036038101906100a89190610908565b6102e8565b6040516100ba9190610993565b60405180910390f35b6100dd60048036038101906100d891906109e6565b61041f565b6040516100ed9493929190610a68565b60405180910390f35b610110600480360381019061010b9190610ab2565b6104df565b005b60605f805480602002602001604051908101604052809291908181526020015f905b82821015610211578382905f5260205f2090600402016040518060800160405290815f82015481526020016001820154815260200160028201805461017890610b67565b80601f01602080910402602001604051908101604052809291908181526020018280546101a490610b67565b80156101ef5780601f106101c6576101008083540402835291602001916101ef565b820191905f5260205f20905b8154815290600101906020018083116101d257829003601f168201915b5050505050815260200160038201548152505081526020019060010190610134565b50505050905090565b61022261051f565b84815f01818152505083816020018181525050828160400181905250818160600181815250507f866f411a1ef082c80454ccc8c83ebd62e1c6cb1bfdf8dd3c441778cf8aac256a8585858560405161027d9493929190610a68565b60405180910390a15f81908060018154018082558091505060019003905f5260205f2090600402015f909190919091505f820151815f01556020820151816001015560408201518160020190816102d49190610d34565b506060820151816003015550505050505050565b6102f061051f565b5f5b5f8054905081101561041857825f828154811061031257610311610e03565b5b905f5260205f2090600402015f015403610405575f818154811061033957610338610e03565b5b905f5260205f2090600402016040518060800160405290815f82015481526020016001820154815260200160028201805461037390610b67565b80601f016020809104026020016040519081016040528092919081815260200182805461039f90610b67565b80156103ea5780601f106103c1576101008083540402835291602001916103ea565b820191905f5260205f20905b8154815290600101906020018083116103cd57829003601f168201915b5050505050815260200160038201548152505091505061041a565b808061041090610e5d565b9150506102f2565b505b919050565b5f818154811061042d575f80fd5b905f5260205f2090600402015f91509050805f01549080600101549080600201805461045890610b67565b80601f016020809104026020016040519081016040528092919081815260200182805461048490610b67565b80156104cf5780601f106104a6576101008083540402835291602001916104cf565b820191905f5260205f20905b8154815290600101906020018083116104b257829003601f168201915b5050505050908060030154905084565b7fefb2e497aa080e4ced1b3f58180a19376dea2ca46337277a54fe9a12c602622783838360405161051293929190610ea4565b60405180910390a1505050565b60405180608001604052805f81526020015f8152602001606081526020015f81525090565b5f81519050919050565b5f82825260208201905092915050565b5f819050602082019050919050565b5f819050919050565b61057f8161056d565b82525050565b5f81519050919050565b5f82825260208201905092915050565b5f5b838110156105bc5780820151818401526020810190506105a1565b5f8484015250505050565b5f601f19601f8301169050919050565b5f6105e182610585565b6105eb818561058f565b93506105fb81856020860161059f565b610604816105c7565b840191505092915050565b5f608083015f8301516106245f860182610576565b5060208301516106376020860182610576565b506040830151848203604086015261064f82826105d7565b91505060608301516106646060860182610576565b508091505092915050565b5f61067a838361060f565b905092915050565b5f602082019050919050565b5f61069882610544565b6106a2818561054e565b9350836020820285016106b48561055e565b805f5b858110156106ef57848403895281516106d0858261066f565b94506106db83610682565b925060208a019950506001810190506106b7565b50829750879550505050505092915050565b5f6020820190508181035f830152610719818461068e565b905092915050565b5f604051905090565b5f80fd5b5f80fd5b61073b8161056d565b8114610745575f80fd5b50565b5f8135905061075681610732565b92915050565b5f80fd5b5f80fd5b7f4e487b71000000000000000000000000000000000000000000000000000000005f52604160045260245ffd5b61079a826105c7565b810181811067ffffffffffffffff821117156107b9576107b8610764565b5b80604052505050565b5f6107cb610721565b90506107d78282610791565b919050565b5f67ffffffffffffffff8211156107f6576107f5610764565b5b6107ff826105c7565b9050602081019050919050565b828183375f83830152505050565b5f61082c610827846107dc565b6107c2565b90508281526020810184848401111561084857610847610760565b5b61085384828561080c565b509392505050565b5f82601f83011261086f5761086e61075c565b5b813561087f84826020860161081a565b91505092915050565b5f805f80608085870312156108a05761089f61072a565b5b5f6108ad87828801610748565b94505060206108be87828801610748565b935050604085013567ffffffffffffffff8111156108df576108de61072e565b5b6108eb8782880161085b565b92505060606108fc87828801610748565b91505092959194509250565b5f6020828403121561091d5761091c61072a565b5b5f61092a84828501610748565b91505092915050565b5f608083015f8301516109485f860182610576565b50602083015161095b6020860182610576565b506040830151848203604086015261097382826105d7565b91505060608301516109886060860182610576565b508091505092915050565b5f6020820190508181035f8301526109ab8184610933565b905092915050565b5f819050919050565b6109c5816109b3565b81146109cf575f80fd5b50565b5f813590506109e0816109bc565b92915050565b5f602082840312156109fb576109fa61072a565b5b5f610a08848285016109d2565b91505092915050565b610a1a8161056d565b82525050565b5f82825260208201905092915050565b5f610a3a82610585565b610a448185610a20565b9350610a5481856020860161059f565b610a5d816105c7565b840191505092915050565b5f608082019050610a7b5f830187610a11565b610a886020830186610a11565b8181036040830152610a9a8185610a30565b9050610aa96060830184610a11565b95945050505050565b5f805f60608486031215610ac957610ac861072a565b5b5f610ad686828701610748565b935050602084013567ffffffffffffffff811115610af757610af661072e565b5b610b038682870161085b565b925050604084013567ffffffffffffffff811115610b2457610b2361072e565b5b610b308682870161085b565b9150509250925092565b7f4e487b71000000000000000000000000000000000000000000000000000000005f52602260045260245ffd5b5f6002820490506001821680610b7e57607f821691505b602082108103610b9157610b90610b3a565b5b50919050565b5f819050815f5260205f209050919050565b5f6020601f8301049050919050565b5f82821b905092915050565b5f60088302610bf37fffffffffffffffffffffffffffffffffffffffffffffffffffffffffffffffff82610bb8565b610bfd8683610bb8565b95508019841693508086168417925050509392505050565b5f819050919050565b5f610c38610c33610c2e846109b3565b610c15565b6109b3565b9050919050565b5f819050919050565b610c5183610c1e565b610c65610c5d82610c3f565b848454610bc4565b825550505050565b5f90565b610c79610c6d565b610c84818484610c48565b505050565b5b81811015610ca757610c9c5f82610c71565b600181019050610c8a565b5050565b601f821115610cec57610cbd81610b97565b610cc684610ba9565b81016020851015610cd5578190505b610ce9610ce185610ba9565b830182610c89565b50505b505050565b5f82821c905092915050565b5f610d0c5f1984600802610cf1565b1980831691505092915050565b5f610d248383610cfd565b9150826002028217905092915050565b610d3d82610585565b67ffffffffffffffff811115610d5657610d55610764565b5b610d608254610b67565b610d6b828285610cab565b5f60209050601f831160018114610d9c575f8415610d8a578287015190505b610d948582610d19565b865550610dfb565b601f198416610daa86610b97565b5f5b82811015610dd157848901518255600182019150602085019450602081019050610dac565b86831015610dee5784890151610dea601f891682610cfd565b8355505b6001600288020188555050505b505050505050565b7f4e487b71000000000000000000000000000000000000000000000000000000005f52603260045260245ffd5b7f4e487b71000000000000000000000000000000000000000000000000000000005f52601160045260245ffd5b5f610e67826109b3565b91507fffffffffffffffffffffffffffffffffffffffffffffffffffffffffffffffff8203610e9957610e98610e30565b5b600182019050919050565b5f606082019050610eb75f830186610a11565b8181036020830152610ec98185610a30565b90508181036040830152610edd8184610a30565b905094935050505056fea2646970667358221220f87babf0db5f2d225af1ca817d1f2cfb37cd39e0ffe58153898cda4edf4f09a564736f6c63430008140033",
  "immutableReferences": {},
  "source": "// SPDX-License-Identifier: GPL-3.0\n\npragma solidity ^0.8.0;\n\n\nstruct Milestone{\n    int Id;\n    int budget;\n    string description;\n    int noRevision;\n\n}\n\ncontract TestContract {\n\n    Milestone[] public milestonesList;\n\n    event purchaserDetails(int id,string email,string projectName);\n\n    function setPurchaserInfo(int _id,string memory _email,string memory _projectName)public{\n        emit purchaserDetails(_id,_email,_projectName);\n         \n    }\n\n    event milestoneList(int id,int budget,string description,int noRevision);\n\n    function setMilestoneDetails(int _id,int  _budget,string memory _description, int _noRevision) public {\n    Milestone memory ms;\n    ms.Id=_id;\n    ms.budget=_budget;\n    ms.description=_description;\n    ms.noRevision=_noRevision;\n   \n   emit milestoneList(_id,_budget,_description,_noRevision);\n    milestonesList.push(ms);\n    \n    }\n\n    function milestoneById(int _id) public view returns(Milestone memory milestone){\n        for(uint i=0;i<milestonesList.length;i++){\n            if(milestonesList[i].Id==_id){\n                return milestonesList[i];\n            }\n        }\n    }\n\n    function allMilestones() public view returns(Milestone[] memory milestones){\n        return milestonesList;\n    }\n\n    \n\n}",
  "sourcePath": "/Users/ravisatyam/Downloads/nestjs_test_prisma-rest-api-prisma/nestjs_test_prisma-rest-api-prisma_2.0/contracts/TestContract.sol",
  "compiler": {
    "name": "solc",
    "version": "0.8.20+commit.a1b79de6.Emscripten.clang"
  },
  "schemaVersion": "3.4.14",
  "updatedAt": "2023-07-03T19:21:11.885Z",
  "devdoc": {
    "kind": "dev",
    "methods": {},
    "version": 1
  },
  "userdoc": {
    "kind": "user",
    "methods": {},
    "version": 1
  }
}