{
  "contractName": "MilestoneContract",
  "abi": [
    {
      "anonymous": false,
      "inputs": [
        {
          "indexed": false,
          "internalType": "string",
          "name": "descriptionFileHash",
          "type": "string"
        },
        {
          "indexed": false,
          "internalType": "string",
          "name": "title",
          "type": "string"
        },
        {
          "indexed": false,
          "internalType": "uint256",
          "name": "budget",
          "type": "uint256"
        },
        {
          "indexed": false,
          "internalType": "string",
          "name": "initDate",
          "type": "string"
        },
        {
          "indexed": false,
          "internalType": "string",
          "name": "dueDate",
          "type": "string"
        },
        {
          "indexed": false,
          "internalType": "int256",
          "name": "numberRevisions",
          "type": "int256"
        },
        {
          "indexed": false,
          "internalType": "int256",
          "name": "msId",
          "type": "int256"
        }
      ],
      "name": "milestoneList",
      "type": "event"
    },
    {
      "anonymous": false,
      "inputs": [
        {
          "indexed": false,
          "internalType": "enum State",
          "name": "state",
          "type": "uint8"
        }
      ],
      "name": "trackState",
      "type": "event"
    },
    {
      "inputs": [
        {
          "internalType": "uint256",
          "name": "",
          "type": "uint256"
        }
      ],
      "name": "milestonesList",
      "outputs": [
        {
          "internalType": "string",
          "name": "descriptionFileHash",
          "type": "string"
        },
        {
          "internalType": "string",
          "name": "title",
          "type": "string"
        },
        {
          "internalType": "uint256",
          "name": "budget",
          "type": "uint256"
        },
        {
          "internalType": "string",
          "name": "initDate",
          "type": "string"
        },
        {
          "internalType": "string",
          "name": "dueDate",
          "type": "string"
        },
        {
          "internalType": "int256",
          "name": "numberRevisions",
          "type": "int256"
        },
        {
          "components": [
            {
              "internalType": "int256",
              "name": "msId",
              "type": "int256"
            },
            {
              "internalType": "string",
              "name": "descriptionFileLink",
              "type": "string"
            },
            {
              "internalType": "enum State",
              "name": "state",
              "type": "uint8"
            },
            {
              "internalType": "bool",
              "name": "isApproved",
              "type": "bool"
            },
            {
              "internalType": "bool",
              "name": "isclosed",
              "type": "bool"
            },
            {
              "internalType": "string",
              "name": "resolveTime",
              "type": "string"
            },
            {
              "internalType": "int256",
              "name": "revisionCounter",
              "type": "int256"
            }
          ],
          "internalType": "struct MilestoneRequired",
          "name": "ms_req",
          "type": "tuple"
        }
      ],
      "stateMutability": "view",
      "type": "function"
    },
    {
      "inputs": [
        {
          "internalType": "int256",
          "name": "_msId",
          "type": "int256"
        },
        {
          "internalType": "string",
          "name": "_descriptionFileHash",
          "type": "string"
        },
        {
          "internalType": "string",
          "name": "_title",
          "type": "string"
        },
        {
          "internalType": "int256",
          "name": "_budget",
          "type": "int256"
        },
        {
          "internalType": "string",
          "name": "_initDate",
          "type": "string"
        },
        {
          "internalType": "string",
          "name": "_dueDate",
          "type": "string"
        },
        {
          "internalType": "int256",
          "name": "_numberRevisions",
          "type": "int256"
        }
      ],
      "name": "addMilestone",
      "outputs": [],
      "stateMutability": "nonpayable",
      "type": "function"
    },
    {
      "inputs": [
        {
          "internalType": "int256",
          "name": "_id",
          "type": "int256"
        }
      ],
      "name": "changeMS_state",
      "outputs": [],
      "stateMutability": "nonpayable",
      "type": "function"
    },
    {
      "inputs": [
        {
          "internalType": "int256",
          "name": "_id",
          "type": "int256"
        },
        {
          "internalType": "bool",
          "name": "_val",
          "type": "bool"
        },
        {
          "internalType": "address payable",
          "name": "provider_address",
          "type": "address"
        }
      ],
      "name": "approveMS_status",
      "outputs": [
        {
          "internalType": "bool",
          "name": "approvedStatus",
          "type": "bool"
        },
        {
          "internalType": "string",
          "name": "message",
          "type": "string"
        }
      ],
      "stateMutability": "nonpayable",
      "type": "function"
    },
    {
      "inputs": [
        {
          "internalType": "int256",
          "name": "_Id",
          "type": "int256"
        }
      ],
      "name": "getMilestoneById",
      "outputs": [
        {
          "components": [
            {
              "internalType": "string",
              "name": "descriptionFileHash",
              "type": "string"
            },
            {
              "internalType": "string",
              "name": "title",
              "type": "string"
            },
            {
              "internalType": "uint256",
              "name": "budget",
              "type": "uint256"
            },
            {
              "internalType": "string",
              "name": "initDate",
              "type": "string"
            },
            {
              "internalType": "string",
              "name": "dueDate",
              "type": "string"
            },
            {
              "internalType": "int256",
              "name": "numberRevisions",
              "type": "int256"
            },
            {
              "components": [
                {
                  "internalType": "int256",
                  "name": "msId",
                  "type": "int256"
                },
                {
                  "internalType": "string",
                  "name": "descriptionFileLink",
                  "type": "string"
                },
                {
                  "internalType": "enum State",
                  "name": "state",
                  "type": "uint8"
                },
                {
                  "internalType": "bool",
                  "name": "isApproved",
                  "type": "bool"
                },
                {
                  "internalType": "bool",
                  "name": "isclosed",
                  "type": "bool"
                },
                {
                  "internalType": "string",
                  "name": "resolveTime",
                  "type": "string"
                },
                {
                  "internalType": "int256",
                  "name": "revisionCounter",
                  "type": "int256"
                }
              ],
              "internalType": "struct MilestoneRequired",
              "name": "ms_req",
              "type": "tuple"
            }
          ],
          "internalType": "struct Milestone",
          "name": "ms",
          "type": "tuple"
        }
      ],
      "stateMutability": "view",
      "type": "function"
    },
    {
      "inputs": [],
      "name": "getAllMS",
      "outputs": [
        {
          "components": [
            {
              "internalType": "string",
              "name": "descriptionFileHash",
              "type": "string"
            },
            {
              "internalType": "string",
              "name": "title",
              "type": "string"
            },
            {
              "internalType": "uint256",
              "name": "budget",
              "type": "uint256"
            },
            {
              "internalType": "string",
              "name": "initDate",
              "type": "string"
            },
            {
              "internalType": "string",
              "name": "dueDate",
              "type": "string"
            },
            {
              "internalType": "int256",
              "name": "numberRevisions",
              "type": "int256"
            },
            {
              "components": [
                {
                  "internalType": "int256",
                  "name": "msId",
                  "type": "int256"
                },
                {
                  "internalType": "string",
                  "name": "descriptionFileLink",
                  "type": "string"
                },
                {
                  "internalType": "enum State",
                  "name": "state",
                  "type": "uint8"
                },
                {
                  "internalType": "bool",
                  "name": "isApproved",
                  "type": "bool"
                },
                {
                  "internalType": "bool",
                  "name": "isclosed",
                  "type": "bool"
                },
                {
                  "internalType": "string",
                  "name": "resolveTime",
                  "type": "string"
                },
                {
                  "internalType": "int256",
                  "name": "revisionCounter",
                  "type": "int256"
                }
              ],
              "internalType": "struct MilestoneRequired",
              "name": "ms_req",
              "type": "tuple"
            }
          ],
          "internalType": "struct Milestone[]",
          "name": "msList",
          "type": "tuple[]"
        }
      ],
      "stateMutability": "view",
      "type": "function"
    },
    {
      "inputs": [
        {
          "internalType": "int256",
          "name": "_Id",
          "type": "int256"
        }
      ],
      "name": "penaltyCalculation",
      "outputs": [
        {
          "internalType": "uint256",
          "name": "penalty",
          "type": "uint256"
        }
      ],
      "stateMutability": "view",
      "type": "function"
    }
  ],
  "bytecode": "0x608060405234801561000f575f80fd5b5061281a8061001d5f395ff3fe608060405234801561000f575f80fd5b506004361061007b575f3560e01c8063cbda494a11610059578063cbda494a14610110578063daec13a814610146578063ebceba4214610162578063ee187e19146101805761007b565b80635e03c8391461007f5780636a46bb4e146100af5780639b6e3ec9146100e0575b5f80fd5b610099600480360381019061009491906118a7565b61019c565b6040516100a691906118ea565b60405180910390f35b6100c960048036038101906100c49190611992565b610262565b6040516100d7929190611a7b565b60405180910390f35b6100fa60048036038101906100f591906118a7565b610608565b6040516101079190611ce6565b60405180910390f35b61012a60048036038101906101259190611d30565b610a9f565b60405161013d9796959493929190611e0a565b60405180910390f35b610160600480360381019061015b9190611fc6565b610eb0565b005b61016a61128d565b6040516101779190612243565b60405180910390f35b61019a600480360381019061019591906118a7565b6116f2565b005b5f805f90505b5f8054905081101561025b57825f82815481106101c2576101c1612263565b5b905f5260205f2090600b02016006015f015403610248575f8082815481106101ed576101ec612263565b5b905f5260205f2090600b0201600601600401545f838154811061021357610212612263565b5b905f5260205f2090600b02016005015461022d91906122bd565b90506305f5e1008161023f91906122fd565b9250505061025d565b808061025390612373565b9150506101a2565b505b919050565b5f60605f5b5f805490508110156105c357855f828154811061028757610286612263565b5b905f5260205f2090600b02016006015f01541480156102aa575060011515851515145b156103b4575f3090505f6305f5e1005f84815481106102cc576102cb612263565b5b905f5260205f2090600b0201600201546102e691906123ba565b90508573ffffffffffffffffffffffffffffffffffffffff166108fc828473ffffffffffffffffffffffffffffffffffffffff163161032591906123fb565b8473ffffffffffffffffffffffffffffffffffffffff163161034791906123fb565b90811502906040515f60405180830381858888f1935050505015801561036f573d5f803e3d5ffd5b5060016040518060400160405280601b81526020017f46756e64207472616e73666572207375636365737366756c6c7920000000000081525094509450505050610600565b855f82815481106103c8576103c7612263565b5b905f5260205f2090600b02016006015f01541480156103ea57505f1515851515145b156105b0575f818154811061040257610401612263565b5b905f5260205f2090600b0201600501545f828154811061042557610424612263565b5b905f5260205f2090600b020160060160040154121561058b5760015f828154811061045357610452612263565b5b905f5260205f2090600b020160060160040154610470919061242e565b5f828154811061048357610482612263565b5b905f5260205f2090600b02016006016004018190555060035f82815481106104ae576104ad612263565b5b905f5260205f2090600b02016006016002015f6101000a81548160ff021916908360048111156104e1576104e0611b0f565b5b02179055505f60015f8881526020019081526020015f2090506001816006016004015461050e919061242e565b81600601600401819055506003816006016002015f6101000a81548160ff0219169083600481111561054357610542611b0f565b5b021790555060016040518060400160405280601a81526020017f4d5320737461747573206368616e676520746f207265776f726b000000000000815250935093505050610600565b60016040518060600160405280602381526020016127c2602391399250925050610600565b80806105bb90612373565b915050610267565b505f6040518060400160405280601081526020017f4d53206964206e6f7420666f756e642000000000000000000000000000000000815250915091505b935093915050565b6106106117d4565b5f5b5f80549050811015610a9857825f828154811061063257610631612263565b5b905f5260205f2090600b02016006015f015403610a85575f818154811061065c5761065b612263565b5b905f5260205f2090600b02016040518060e00160405290815f820180546106829061249c565b80601f01602080910402602001604051908101604052809291908181526020018280546106ae9061249c565b80156106f95780601f106106d0576101008083540402835291602001916106f9565b820191905f5260205f20905b8154815290600101906020018083116106dc57829003601f168201915b505050505081526020016001820180546107129061249c565b80601f016020809104026020016040519081016040528092919081815260200182805461073e9061249c565b80156107895780601f1061076057610100808354040283529160200191610789565b820191905f5260205f20905b81548152906001019060200180831161076c57829003601f168201915b50505050508152602001600282015481526020016003820180546107ac9061249c565b80601f01602080910402602001604051908101604052809291908181526020018280546107d89061249c565b80156108235780601f106107fa57610100808354040283529160200191610823565b820191905f5260205f20905b81548152906001019060200180831161080657829003601f168201915b5050505050815260200160048201805461083c9061249c565b80601f01602080910402602001604051908101604052809291908181526020018280546108689061249c565b80156108b35780601f1061088a576101008083540402835291602001916108b3565b820191905f5260205f20905b81548152906001019060200180831161089657829003601f168201915b5050505050815260200160058201548152602001600682016040518060e00160405290815f82015481526020016001820180546108ef9061249c565b80601f016020809104026020016040519081016040528092919081815260200182805461091b9061249c565b80156109665780601f1061093d57610100808354040283529160200191610966565b820191905f5260205f20905b81548152906001019060200180831161094957829003601f168201915b50505050508152602001600282015f9054906101000a900460ff16600481111561099357610992611b0f565b5b60048111156109a5576109a4611b0f565b5b81526020016002820160019054906101000a900460ff161515151581526020016002820160029054906101000a900460ff161515151581526020016003820180546109ef9061249c565b80601f0160208091040260200160405190810160405280929190818152602001828054610a1b9061249c565b8015610a665780601f10610a3d57610100808354040283529160200191610a66565b820191905f5260205f20905b815481529060010190602001808311610a4957829003601f168201915b5050505050815260200160048201548152505081525050915050610a9a565b8080610a9090612373565b915050610612565b505b919050565b5f8181548110610aad575f80fd5b905f5260205f2090600b02015f91509050805f018054610acc9061249c565b80601f0160208091040260200160405190810160405280929190818152602001828054610af89061249c565b8015610b435780601f10610b1a57610100808354040283529160200191610b43565b820191905f5260205f20905b815481529060010190602001808311610b2657829003601f168201915b505050505090806001018054610b589061249c565b80601f0160208091040260200160405190810160405280929190818152602001828054610b849061249c565b8015610bcf5780601f10610ba657610100808354040283529160200191610bcf565b820191905f5260205f20905b815481529060010190602001808311610bb257829003601f168201915b505050505090806002015490806003018054610bea9061249c565b80601f0160208091040260200160405190810160405280929190818152602001828054610c169061249c565b8015610c615780601f10610c3857610100808354040283529160200191610c61565b820191905f5260205f20905b815481529060010190602001808311610c4457829003601f168201915b505050505090806004018054610c769061249c565b80601f0160208091040260200160405190810160405280929190818152602001828054610ca29061249c565b8015610ced5780601f10610cc457610100808354040283529160200191610ced565b820191905f5260205f20905b815481529060010190602001808311610cd057829003601f168201915b505050505090806005015490806006016040518060e00160405290815f8201548152602001600182018054610d219061249c565b80601f0160208091040260200160405190810160405280929190818152602001828054610d4d9061249c565b8015610d985780601f10610d6f57610100808354040283529160200191610d98565b820191905f5260205f20905b815481529060010190602001808311610d7b57829003601f168201915b50505050508152602001600282015f9054906101000a900460ff166004811115610dc557610dc4611b0f565b5b6004811115610dd757610dd6611b0f565b5b81526020016002820160019054906101000a900460ff161515151581526020016002820160029054906101000a900460ff16151515158152602001600382018054610e219061249c565b80601f0160208091040260200160405190810160405280929190818152602001828054610e4d9061249c565b8015610e985780601f10610e6f57610100808354040283529160200191610e98565b820191905f5260205f20905b815481529060010190602001808311610e7b57829003601f168201915b50505050508152602001600482015481525050905087565b610eb86117d4565b86815f018190525085816020018190525084816040018181525050838160600181905250828160800181905250818160a0018181525050610ef7611815565b88815f0181815250506040518060400160405280600e81526020017f7777772e676f6f676c652e636f6d00000000000000000000000000000000000081525081602001819052505f81604001906004811115610f5657610f55611b0f565b5b90816004811115610f6a57610f69611b0f565b5b815250505f8160600190151590811515815250505f81608001901515908115158152505060405180602001604052805f8152508160a001819052505f8160c00181815250507fbe815bcae74ccb7bd49a4374ce3b2fb1a3f323f6581a139da01d9afe3604d714888884604001518888888f604051610fee97969594939291906124cc565b60405180910390a1808260c001819052508160015f8b81526020019081526020015f205f820151815f01908161102491906126f2565b50602082015181600101908161103a91906126f2565b5060408201518160020155606082015181600301908161105a91906126f2565b50608082015181600401908161107091906126f2565b5060a0820151816005015560c0820151816006015f820151815f015560208201518160010190816110a191906126f2565b506040820151816002015f6101000a81548160ff021916908360048111156110cc576110cb611b0f565b5b021790555060608201518160020160016101000a81548160ff02191690831515021790555060808201518160020160026101000a81548160ff02191690831515021790555060a082015181600301908161112691906126f2565b5060c0820151816004015550509050505f82908060018154018082558091505060019003905f5260205f2090600b02015f909190919091505f820151815f01908161117191906126f2565b50602082015181600101908161118791906126f2565b506040820151816002015560608201518160030190816111a791906126f2565b5060808201518160040190816111bd91906126f2565b5060a0820151816005015560c0820151816006015f820151815f015560208201518160010190816111ee91906126f2565b506040820151816002015f6101000a81548160ff0219169083600481111561121957611218611b0f565b5b021790555060608201518160020160016101000a81548160ff02191690831515021790555060808201518160020160026101000a81548160ff02191690831515021790555060a082015181600301908161127391906126f2565b5060c0820151816004015550505050505050505050505050565b60605f805480602002602001604051908101604052809291908181526020015f905b828210156116e9578382905f5260205f2090600b02016040518060e00160405290815f820180546112df9061249c565b80601f016020809104026020016040519081016040528092919081815260200182805461130b9061249c565b80156113565780601f1061132d57610100808354040283529160200191611356565b820191905f5260205f20905b81548152906001019060200180831161133957829003601f168201915b5050505050815260200160018201805461136f9061249c565b80601f016020809104026020016040519081016040528092919081815260200182805461139b9061249c565b80156113e65780601f106113bd576101008083540402835291602001916113e6565b820191905f5260205f20905b8154815290600101906020018083116113c957829003601f168201915b50505050508152602001600282015481526020016003820180546114099061249c565b80601f01602080910402602001604051908101604052809291908181526020018280546114359061249c565b80156114805780601f1061145757610100808354040283529160200191611480565b820191905f5260205f20905b81548152906001019060200180831161146357829003601f168201915b505050505081526020016004820180546114999061249c565b80601f01602080910402602001604051908101604052809291908181526020018280546114c59061249c565b80156115105780601f106114e757610100808354040283529160200191611510565b820191905f5260205f20905b8154815290600101906020018083116114f357829003601f168201915b5050505050815260200160058201548152602001600682016040518060e00160405290815f820154815260200160018201805461154c9061249c565b80601f01602080910402602001604051908101604052809291908181526020018280546115789061249c565b80156115c35780601f1061159a576101008083540402835291602001916115c3565b820191905f5260205f20905b8154815290600101906020018083116115a657829003601f168201915b50505050508152602001600282015f9054906101000a900460ff1660048111156115f0576115ef611b0f565b5b600481111561160257611601611b0f565b5b81526020016002820160019054906101000a900460ff161515151581526020016002820160029054906101000a900460ff1615151515815260200160038201805461164c9061249c565b80601f01602080910402602001604051908101604052809291908181526020018280546116789061249c565b80156116c35780601f1061169a576101008083540402835291602001916116c3565b820191905f5260205f20905b8154815290600101906020018083116116a657829003601f168201915b5050505050815260200160048201548152505081525050815260200190600101906112af565b50505050905090565b5f5b5f8054905081101561178c57815f828154811061171457611713612263565b5b905f5260205f2090600b02016006015f0154036117795760025f82815481106117405761173f612263565b5b905f5260205f2090600b02016006016002015f6101000a81548160ff0219169083600481111561177357611772611b0f565b5b02179055505b808061178490612373565b9150506116f4565b505f60015f8381526020019081526020015f2090506002816006016002015f6101000a81548160ff021916908360048111156117cb576117ca611b0f565b5b02179055505050565b6040518060e0016040528060608152602001606081526020015f815260200160608152602001606081526020015f815260200161180f611815565b81525090565b6040518060e001604052805f8152602001606081526020015f60048111156118405761183f611b0f565b5b81526020015f151581526020015f15158152602001606081526020015f81525090565b5f604051905090565b5f80fd5b5f80fd5b5f819050919050565b61188681611874565b8114611890575f80fd5b50565b5f813590506118a18161187d565b92915050565b5f602082840312156118bc576118bb61186c565b5b5f6118c984828501611893565b91505092915050565b5f819050919050565b6118e4816118d2565b82525050565b5f6020820190506118fd5f8301846118db565b92915050565b5f8115159050919050565b61191781611903565b8114611921575f80fd5b50565b5f813590506119328161190e565b92915050565b5f73ffffffffffffffffffffffffffffffffffffffff82169050919050565b5f61196182611938565b9050919050565b61197181611957565b811461197b575f80fd5b50565b5f8135905061198c81611968565b92915050565b5f805f606084860312156119a9576119a861186c565b5b5f6119b686828701611893565b93505060206119c786828701611924565b92505060406119d88682870161197e565b9150509250925092565b6119eb81611903565b82525050565b5f81519050919050565b5f82825260208201905092915050565b5f5b83811015611a28578082015181840152602081019050611a0d565b5f8484015250505050565b5f601f19601f8301169050919050565b5f611a4d826119f1565b611a5781856119fb565b9350611a67818560208601611a0b565b611a7081611a33565b840191505092915050565b5f604082019050611a8e5f8301856119e2565b8181036020830152611aa08184611a43565b90509392505050565b5f82825260208201905092915050565b5f611ac3826119f1565b611acd8185611aa9565b9350611add818560208601611a0b565b611ae681611a33565b840191505092915050565b611afa816118d2565b82525050565b611b0981611874565b82525050565b7f4e487b71000000000000000000000000000000000000000000000000000000005f52602160045260245ffd5b60058110611b4d57611b4c611b0f565b5b50565b5f819050611b5d82611b3c565b919050565b5f611b6c82611b50565b9050919050565b611b7c81611b62565b82525050565b611b8b81611903565b82525050565b5f60e083015f830151611ba65f860182611b00565b5060208301518482036020860152611bbe8282611ab9565b9150506040830151611bd36040860182611b73565b506060830151611be66060860182611b82565b506080830151611bf96080860182611b82565b5060a083015184820360a0860152611c118282611ab9565b91505060c0830151611c2660c0860182611b00565b508091505092915050565b5f60e083015f8301518482035f860152611c4b8282611ab9565b91505060208301518482036020860152611c658282611ab9565b9150506040830151611c7a6040860182611af1565b5060608301518482036060860152611c928282611ab9565b91505060808301518482036080860152611cac8282611ab9565b91505060a0830151611cc160a0860182611b00565b5060c083015184820360c0860152611cd98282611b91565b9150508091505092915050565b5f6020820190508181035f830152611cfe8184611c31565b905092915050565b611d0f816118d2565b8114611d19575f80fd5b50565b5f81359050611d2a81611d06565b92915050565b5f60208284031215611d4557611d4461186c565b5b5f611d5284828501611d1c565b91505092915050565b611d6481611874565b82525050565b5f60e083015f830151611d7f5f860182611b00565b5060208301518482036020860152611d978282611ab9565b9150506040830151611dac6040860182611b73565b506060830151611dbf6060860182611b82565b506080830151611dd26080860182611b82565b5060a083015184820360a0860152611dea8282611ab9565b91505060c0830151611dff60c0860182611b00565b508091505092915050565b5f60e0820190508181035f830152611e22818a611a43565b90508181036020830152611e368189611a43565b9050611e4560408301886118db565b8181036060830152611e578187611a43565b90508181036080830152611e6b8186611a43565b9050611e7a60a0830185611d5b565b81810360c0830152611e8c8184611d6a565b905098975050505050505050565b5f80fd5b5f80fd5b7f4e487b71000000000000000000000000000000000000000000000000000000005f52604160045260245ffd5b611ed882611a33565b810181811067ffffffffffffffff82111715611ef757611ef6611ea2565b5b80604052505050565b5f611f09611863565b9050611f158282611ecf565b919050565b5f67ffffffffffffffff821115611f3457611f33611ea2565b5b611f3d82611a33565b9050602081019050919050565b828183375f83830152505050565b5f611f6a611f6584611f1a565b611f00565b905082815260208101848484011115611f8657611f85611e9e565b5b611f91848285611f4a565b509392505050565b5f82601f830112611fad57611fac611e9a565b5b8135611fbd848260208601611f58565b91505092915050565b5f805f805f805f60e0888a031215611fe157611fe061186c565b5b5f611fee8a828b01611893565b975050602088013567ffffffffffffffff81111561200f5761200e611870565b5b61201b8a828b01611f99565b965050604088013567ffffffffffffffff81111561203c5761203b611870565b5b6120488a828b01611f99565b95505060606120598a828b01611893565b945050608088013567ffffffffffffffff81111561207a57612079611870565b5b6120868a828b01611f99565b93505060a088013567ffffffffffffffff8111156120a7576120a6611870565b5b6120b38a828b01611f99565b92505060c06120c48a828b01611893565b91505092959891949750929550565b5f81519050919050565b5f82825260208201905092915050565b5f819050602082019050919050565b5f60e083015f8301518482035f8601526121168282611ab9565b915050602083015184820360208601526121308282611ab9565b91505060408301516121456040860182611af1565b506060830151848203606086015261215d8282611ab9565b915050608083015184820360808601526121778282611ab9565b91505060a083015161218c60a0860182611b00565b5060c083015184820360c08601526121a48282611b91565b9150508091505092915050565b5f6121bc83836120fc565b905092915050565b5f602082019050919050565b5f6121da826120d3565b6121e481856120dd565b9350836020820285016121f6856120ed565b805f5b85811015612231578484038952815161221285826121b1565b945061221d836121c4565b925060208a019950506001810190506121f9565b50829750879550505050505092915050565b5f6020820190508181035f83015261225b81846121d0565b905092915050565b7f4e487b71000000000000000000000000000000000000000000000000000000005f52603260045260245ffd5b7f4e487b71000000000000000000000000000000000000000000000000000000005f52601160045260245ffd5b5f6122c782611874565b91506122d283611874565b925082820390508181125f8412168282135f8512151617156122f7576122f6612290565b5b92915050565b5f61230782611874565b915061231283611874565b925082820261232081611874565b91507f800000000000000000000000000000000000000000000000000000000000000084145f8412161561235757612356612290565b5b828205841483151761236c5761236b612290565b5b5092915050565b5f61237d826118d2565b91507fffffffffffffffffffffffffffffffffffffffffffffffffffffffffffffffff82036123af576123ae612290565b5b600182019050919050565b5f6123c4826118d2565b91506123cf836118d2565b92508282026123dd816118d2565b915082820484148315176123f4576123f3612290565b5b5092915050565b5f612405826118d2565b9150612410836118d2565b925082820390508181111561242857612427612290565b5b92915050565b5f61243882611874565b915061244383611874565b92508282019050828112155f8312168382125f84121516171561246957612468612290565b5b92915050565b7f4e487b71000000000000000000000000000000000000000000000000000000005f52602260045260245ffd5b5f60028204905060018216806124b357607f821691505b6020821081036124c6576124c561246f565b5b50919050565b5f60e0820190508181035f8301526124e4818a611a43565b905081810360208301526124f88189611a43565b905061250760408301886118db565b81810360608301526125198187611a43565b9050818103608083015261252d8186611a43565b905061253c60a0830185611d5b565b61254960c0830184611d5b565b98975050505050505050565b5f819050815f5260205f209050919050565b5f6020601f8301049050919050565b5f82821b905092915050565b5f600883026125b17fffffffffffffffffffffffffffffffffffffffffffffffffffffffffffffffff82612576565b6125bb8683612576565b95508019841693508086168417925050509392505050565b5f819050919050565b5f6125f66125f16125ec846118d2565b6125d3565b6118d2565b9050919050565b5f819050919050565b61260f836125dc565b61262361261b826125fd565b848454612582565b825550505050565b5f90565b61263761262b565b612642818484612606565b505050565b5b818110156126655761265a5f8261262f565b600181019050612648565b5050565b601f8211156126aa5761267b81612555565b61268484612567565b81016020851015612693578190505b6126a761269f85612567565b830182612647565b50505b505050565b5f82821c905092915050565b5f6126ca5f19846008026126af565b1980831691505092915050565b5f6126e283836126bb565b9150826002028217905092915050565b6126fb826119f1565b67ffffffffffffffff81111561271457612713611ea2565b5b61271e825461249c565b612729828285612669565b5f60209050601f83116001811461275a575f8415612748578287015190505b61275285826126d7565b8655506127b9565b601f19841661276886612555565b5f5b8281101561278f5784890151825560018201915060208501945060208101905061276a565b868310156127ac57848901516127a8601f8916826126bb565b8355505b6001600288020188555050505b50505050505056fe50656e616c74792063616c63756c6174696f6e2066756e6374696f6e2063616c6c6564a2646970667358221220fff42ae838e50baea073462d0a4379dee34ddf70d5c8aa5d2e0ba35f61fed04464736f6c63430008140033",
  "immutableReferences": {},
  "source": "// SPDX-License-Identifier: GPL-3.0\npragma solidity >=0.7.0 <0.9.0;\n\n// Enum declared for state\nenum State {\n    Inprogress,\n    Inreview,\n    Completed,\n    Rework,\n    Forceclosed\n}\n\n// Milestone struct contains fields coming internally\nstruct MilestoneRequired {\n    int msId;\n    string descriptionFileLink; //string/link\n    State state; //state-> init,done,rework,forcedClose\n    bool isApproved;\n    bool isclosed;\n    string resolveTime;\n    int revisionCounter;\n}\n\n// Milestone struct contains fields coming from UI\nstruct Milestone {\n    string descriptionFileHash;\n    string title;\n    uint budget;\n    string initDate;\n    string dueDate;\n    int numberRevisions;\n    MilestoneRequired ms_req;\n}\n\ncontract MilestoneContract {\n    //Milestone array contains milestones\n    Milestone[] public milestonesList;\n\n    // Map to store milestones  msId=> milestone\n    mapping(int => Milestone) milestones;\n\n    // Event to track change state\n    event trackState(State state);\n\n    event milestoneList(\n        string descriptionFileHash,\n        string title,\n        uint budget,\n        string initDate,\n        string dueDate,\n        int numberRevisions,\n        int msId\n    );\n\n    function addMilestone(\n        int _msId,\n        string memory _descriptionFileHash,\n        string memory _title,\n        int _budget,\n        string memory _initDate,\n        string memory _dueDate,\n        int _numberRevisions\n    ) public {\n        Milestone memory ms;\n        ms.descriptionFileHash = _descriptionFileHash;\n        ms.title = _title;\n        ms.budget = uint(_budget);\n        ms.initDate = _initDate;\n        ms.dueDate = _dueDate;\n        ms.numberRevisions = _numberRevisions;\n\n        MilestoneRequired memory msreq;\n        msreq.msId = _msId; // need to modification and call id generator function\n        msreq.descriptionFileLink = \"www.google.com\";\n        msreq.state = State.Inprogress;\n        msreq.isApproved = false;\n        msreq.isclosed = false;\n        msreq.resolveTime = \"\";\n        msreq.revisionCounter = 0;\n\n        emit milestoneList(\n            _descriptionFileHash,\n            _title,\n            ms.budget,\n            _initDate,\n            _dueDate,\n            _numberRevisions,\n            _msId\n        );\n\n        // emit trackState(msreq.state);\n         ms.ms_req = msreq;\n\n        milestones[_msId] = ms;\n\n        milestonesList.push(ms);\n    }\n\n    // Function called by provider to change MS state\n    function changeMS_state(int _id) public {\n        for (uint i = 0; i < milestonesList.length; i++) {\n            if (milestonesList[i].ms_req.msId == _id) {\n                milestonesList[i].ms_req.state = State.Completed;\n            }\n        }\n        Milestone storage ms = milestones[_id];\n        ms.ms_req.state = State.Completed;\n        // milestones[_id]=ms;--> This may not req, have to check\n    }\n\n    // Approve MS status -> 1. Accept and payout function will call 2. Reject and State change to rework.\n    function approveMS_status(\n        int _id,\n        bool _val,\n        address payable provider_address\n    ) public returns (bool approvedStatus, string memory message) {\n        // Purchaser will Approve Provider request\n        for (uint i = 0; i < milestonesList.length; i++) {\n            if (milestonesList[i].ms_req.msId == _id && _val == true) {\n                // Call fund transfer function\n                address contractAddress = address(this);\n                uint bal = (milestonesList[i].budget) * (10 ** 8);\n                provider_address.transfer(\n                    (contractAddress.balance) - (contractAddress.balance - bal)\n                );\n\n                return (true, \"Fund transfer successfully \");\n            } else if (milestonesList[i].ms_req.msId == _id && _val == false) {\n                if (\n                    milestonesList[i].ms_req.revisionCounter <\n                    milestonesList[i].numberRevisions\n                ) {\n                    //Revision counter will increase---> Array\n                    milestonesList[i].ms_req.revisionCounter =\n                        milestonesList[i].ms_req.revisionCounter +\n                        1;\n                    milestonesList[i].ms_req.state = State.Rework;\n\n                    //Revision counter will increase---> Map\n                    Milestone storage ms = milestones[_id];\n                    ms.ms_req.revisionCounter = ms.ms_req.revisionCounter +1;\n                    ms.ms_req.state=State.Rework;\n\n                    return (true, \"MS status change to rework\");\n                } else {\n                    // Penalty calculation function will call\n                    // Need to add more functionalities\n                    return (true, \"Penalty calculation function called\");\n                }\n            }\n        }\n\n        return (false, \"MS id not found \");\n    }\n\n    // Get MS by Id\n    function getMilestoneById(int _Id) public view returns (Milestone memory ms) {\n        for (uint i = 0; i < milestonesList.length; i++) {\n            if(milestonesList[i].ms_req.msId==_Id){\n                return milestonesList[i];\n            }\n        }\n        \n    }\n\n    // Get all MS\n    function getAllMS() public view returns (Milestone[] memory msList) {\n        return milestonesList;\n    }\n\n    // Penalty calculation--> 1.Based on number of revision counter\n\n    function penaltyCalculation(int _Id) public view returns (uint penalty){\n        for (uint i = 0; i < milestonesList.length; i++) {\n            if(milestonesList[i].ms_req.msId==_Id){\n                int n=(milestonesList[i].numberRevisions)-(milestonesList[i].ms_req.revisionCounter);\n                return uint(n*100000000);\n            }\n        }\n    }\n\n}\n",
  "sourcePath": "/Users/ravisatyam/Downloads/nestjs_test_prisma-rest-api-prisma/nestjs_test_prisma-rest-api-prisma_4.0_final/contracts/MilestoneContract.sol",
  "compiler": {
    "name": "solc",
    "version": "0.8.20+commit.a1b79de6.Emscripten.clang"
  },
  "schemaVersion": "3.4.14",
  "updatedAt": "2023-07-10T17:36:16.738Z",
  "devdoc": {
    "kind": "dev",
    "methods": {},
    "version": 1
  },
  "userdoc": {
    "kind": "user",
    "methods": {},
    "version": 1
  }
}