{
  "contractName": "BlockerContract",
  "abi": [
    {
      "anonymous": false,
      "inputs": [
        {
          "indexed": false,
          "internalType": "int256",
          "name": "id",
          "type": "int256"
        },
        {
          "indexed": false,
          "internalType": "string",
          "name": "name",
          "type": "string"
        },
        {
          "indexed": false,
          "internalType": "string",
          "name": "email",
          "type": "string"
        }
      ],
      "name": "blockerList",
      "type": "event"
    },
    {
      "inputs": [
        {
          "internalType": "uint256",
          "name": "",
          "type": "uint256"
        }
      ],
      "name": "hederaBlockerList",
      "outputs": [
        {
          "internalType": "int256",
          "name": "Id",
          "type": "int256"
        },
        {
          "internalType": "string",
          "name": "name",
          "type": "string"
        },
        {
          "internalType": "string",
          "name": "email",
          "type": "string"
        }
      ],
      "stateMutability": "view",
      "type": "function"
    },
    {
      "inputs": [
        {
          "internalType": "int256",
          "name": "_id",
          "type": "int256"
        },
        {
          "internalType": "string",
          "name": "_name",
          "type": "string"
        },
        {
          "internalType": "string",
          "name": "_email",
          "type": "string"
        }
      ],
      "name": "setBlockerData",
      "outputs": [],
      "stateMutability": "nonpayable",
      "type": "function"
    },
    {
      "inputs": [
        {
          "internalType": "int256",
          "name": "_id",
          "type": "int256"
        }
      ],
      "name": "blockerById",
      "outputs": [
        {
          "components": [
            {
              "internalType": "int256",
              "name": "Id",
              "type": "int256"
            },
            {
              "internalType": "string",
              "name": "name",
              "type": "string"
            },
            {
              "internalType": "string",
              "name": "email",
              "type": "string"
            }
          ],
          "internalType": "struct Blocker",
          "name": "blocker",
          "type": "tuple"
        }
      ],
      "stateMutability": "view",
      "type": "function"
    },
    {
      "inputs": [],
      "name": "allBlockers",
      "outputs": [
        {
          "components": [
            {
              "internalType": "int256",
              "name": "Id",
              "type": "int256"
            },
            {
              "internalType": "string",
              "name": "name",
              "type": "string"
            },
            {
              "internalType": "string",
              "name": "email",
              "type": "string"
            }
          ],
          "internalType": "struct Blocker[]",
          "name": "blocker",
          "type": "tuple[]"
        }
      ],
      "stateMutability": "view",
      "type": "function"
    }
  ],
  "bytecode": "0x608060405234801561000f575f80fd5b50610f3a8061001d5f395ff3fe608060405234801561000f575f80fd5b506004361061004a575f3560e01c8063404a2e3e1461004e5780636b360484146100805780636fa5f3e91461009e578063ab8622a0146100ba575b5f80fd5b61006860048036038101906100639190610687565b6100ea565b60405161007793929190610754565b60405180910390f35b61008861022a565b60405161009591906108fd565b60405180910390f35b6100b860048036038101906100b39190610a73565b6103ae565b005b6100d460048036038101906100cf9190610afb565b610470565b6040516100e19190610b7a565b60405180910390f35b5f81815481106100f8575f80fd5b905f5260205f2090600302015f91509050805f01549080600101805461011d90610bc7565b80601f016020809104026020016040519081016040528092919081815260200182805461014990610bc7565b80156101945780601f1061016b57610100808354040283529160200191610194565b820191905f5260205f20905b81548152906001019060200180831161017757829003601f168201915b5050505050908060020180546101a990610bc7565b80601f01602080910402602001604051908101604052809291908181526020018280546101d590610bc7565b80156102205780601f106101f757610100808354040283529160200191610220565b820191905f5260205f20905b81548152906001019060200180831161020357829003601f168201915b5050505050905083565b60605f805480602002602001604051908101604052809291908181526020015f905b828210156103a5578382905f5260205f2090600302016040518060600160405290815f820154815260200160018201805461028690610bc7565b80601f01602080910402602001604051908101604052809291908181526020018280546102b290610bc7565b80156102fd5780601f106102d4576101008083540402835291602001916102fd565b820191905f5260205f20905b8154815290600101906020018083116102e057829003601f168201915b5050505050815260200160028201805461031690610bc7565b80601f016020809104026020016040519081016040528092919081815260200182805461034290610bc7565b801561038d5780601f106103645761010080835404028352916020019161038d565b820191905f5260205f20905b81548152906001019060200180831161037057829003601f168201915b5050505050815250508152602001906001019061024c565b50505050905090565b6103b6610623565b83815f0181815250508181604001819052508281602001819052507fab0d109966aea27b7e3d7161aff5e2239bdb1aa26c33400659c1c644369bbff584848460405161040493929190610754565b60405180910390a15f81908060018154018082558091505060019003905f5260205f2090600302015f909190919091505f820151815f015560208201518160010190816104519190610d94565b5060408201518160020190816104679190610d94565b50505050505050565b610478610623565b5f5b5f8054905081101561061c57825f828154811061049a57610499610e63565b5b905f5260205f2090600302015f015403610609575f81815481106104c1576104c0610e63565b5b905f5260205f2090600302016040518060600160405290815f82015481526020016001820180546104f190610bc7565b80601f016020809104026020016040519081016040528092919081815260200182805461051d90610bc7565b80156105685780601f1061053f57610100808354040283529160200191610568565b820191905f5260205f20905b81548152906001019060200180831161054b57829003601f168201915b5050505050815260200160028201805461058190610bc7565b80601f01602080910402602001604051908101604052809291908181526020018280546105ad90610bc7565b80156105f85780601f106105cf576101008083540402835291602001916105f8565b820191905f5260205f20905b8154815290600101906020018083116105db57829003601f168201915b50505050508152505091505061061e565b808061061490610ebd565b91505061047a565b505b919050565b60405180606001604052805f815260200160608152602001606081525090565b5f604051905090565b5f80fd5b5f80fd5b5f819050919050565b61066681610654565b8114610670575f80fd5b50565b5f813590506106818161065d565b92915050565b5f6020828403121561069c5761069b61064c565b5b5f6106a984828501610673565b91505092915050565b5f819050919050565b6106c4816106b2565b82525050565b5f81519050919050565b5f82825260208201905092915050565b5f5b838110156107015780820151818401526020810190506106e6565b5f8484015250505050565b5f601f19601f8301169050919050565b5f610726826106ca565b61073081856106d4565b93506107408185602086016106e4565b6107498161070c565b840191505092915050565b5f6060820190506107675f8301866106bb565b8181036020830152610779818561071c565b9050818103604083015261078d818461071c565b9050949350505050565b5f81519050919050565b5f82825260208201905092915050565b5f819050602082019050919050565b6107c9816106b2565b82525050565b5f82825260208201905092915050565b5f6107e9826106ca565b6107f381856107cf565b93506108038185602086016106e4565b61080c8161070c565b840191505092915050565b5f606083015f83015161082c5f8601826107c0565b506020830151848203602086015261084482826107df565b9150506040830151848203604086015261085e82826107df565b9150508091505092915050565b5f6108768383610817565b905092915050565b5f602082019050919050565b5f61089482610797565b61089e81856107a1565b9350836020820285016108b0856107b1565b805f5b858110156108eb57848403895281516108cc858261086b565b94506108d78361087e565b925060208a019950506001810190506108b3565b50829750879550505050505092915050565b5f6020820190508181035f830152610915818461088a565b905092915050565b610926816106b2565b8114610930575f80fd5b50565b5f813590506109418161091d565b92915050565b5f80fd5b5f80fd5b7f4e487b71000000000000000000000000000000000000000000000000000000005f52604160045260245ffd5b6109858261070c565b810181811067ffffffffffffffff821117156109a4576109a361094f565b5b80604052505050565b5f6109b6610643565b90506109c2828261097c565b919050565b5f67ffffffffffffffff8211156109e1576109e061094f565b5b6109ea8261070c565b9050602081019050919050565b828183375f83830152505050565b5f610a17610a12846109c7565b6109ad565b905082815260208101848484011115610a3357610a3261094b565b5b610a3e8482856109f7565b509392505050565b5f82601f830112610a5a57610a59610947565b5b8135610a6a848260208601610a05565b91505092915050565b5f805f60608486031215610a8a57610a8961064c565b5b5f610a9786828701610933565b935050602084013567ffffffffffffffff811115610ab857610ab7610650565b5b610ac486828701610a46565b925050604084013567ffffffffffffffff811115610ae557610ae4610650565b5b610af186828701610a46565b9150509250925092565b5f60208284031215610b1057610b0f61064c565b5b5f610b1d84828501610933565b91505092915050565b5f606083015f830151610b3b5f8601826107c0565b5060208301518482036020860152610b5382826107df565b91505060408301518482036040860152610b6d82826107df565b9150508091505092915050565b5f6020820190508181035f830152610b928184610b26565b905092915050565b7f4e487b71000000000000000000000000000000000000000000000000000000005f52602260045260245ffd5b5f6002820490506001821680610bde57607f821691505b602082108103610bf157610bf0610b9a565b5b50919050565b5f819050815f5260205f209050919050565b5f6020601f8301049050919050565b5f82821b905092915050565b5f60088302610c537fffffffffffffffffffffffffffffffffffffffffffffffffffffffffffffffff82610c18565b610c5d8683610c18565b95508019841693508086168417925050509392505050565b5f819050919050565b5f610c98610c93610c8e84610654565b610c75565b610654565b9050919050565b5f819050919050565b610cb183610c7e565b610cc5610cbd82610c9f565b848454610c24565b825550505050565b5f90565b610cd9610ccd565b610ce4818484610ca8565b505050565b5b81811015610d0757610cfc5f82610cd1565b600181019050610cea565b5050565b601f821115610d4c57610d1d81610bf7565b610d2684610c09565b81016020851015610d35578190505b610d49610d4185610c09565b830182610ce9565b50505b505050565b5f82821c905092915050565b5f610d6c5f1984600802610d51565b1980831691505092915050565b5f610d848383610d5d565b9150826002028217905092915050565b610d9d826106ca565b67ffffffffffffffff811115610db657610db561094f565b5b610dc08254610bc7565b610dcb828285610d0b565b5f60209050601f831160018114610dfc575f8415610dea578287015190505b610df48582610d79565b865550610e5b565b601f198416610e0a86610bf7565b5f5b82811015610e3157848901518255600182019150602085019450602081019050610e0c565b86831015610e4e5784890151610e4a601f891682610d5d565b8355505b6001600288020188555050505b505050505050565b7f4e487b71000000000000000000000000000000000000000000000000000000005f52603260045260245ffd5b7f4e487b71000000000000000000000000000000000000000000000000000000005f52601160045260245ffd5b5f610ec782610654565b91507fffffffffffffffffffffffffffffffffffffffffffffffffffffffffffffffff8203610ef957610ef8610e90565b5b60018201905091905056fea264697066735822122010b373077e1d5605b5b40afbb5ee553c04f51a6d214329aed7474ebc69f552d564736f6c63430008140033",
  "immutableReferences": {},
  "source": "// SPDX-License-Identifier: GPL-3.0\n\npragma solidity ^0.8.0;\n\n\nstruct Blocker{\n    int Id;\n    string name;\n    string email;\n\n}\n\ncontract BlockerContract {\n\n    Blocker[] public hederaBlockerList;\n\n    event blockerList(int id,string name,string email);\n\n    function setBlockerData(int _id,string memory _name, string memory _email) public {\n    Blocker memory b;\n    b.Id=_id;\n    b.email=_email;\n    b.name=_name;\n   \n   emit blockerList(_id,_name,_email);\n    hederaBlockerList.push(b);\n    \n    }\n\n    function blockerById(int _id) public view returns(Blocker memory blocker){\n        for(uint i=0;i<hederaBlockerList.length;i++){\n            if(hederaBlockerList[i].Id==_id){\n                return hederaBlockerList[i];\n            }\n        }\n    }\n\n    function allBlockers() public view returns(Blocker[] memory blocker){\n        return hederaBlockerList;\n    }\n\n    \n\n}",
  "sourcePath": "/Users/ravisatyam/Downloads/nestjs_test_prisma-rest-api-prisma/nestjs_test_prisma-rest-api-prisma/contracts/BlockerContract.sol",
  "compiler": {
    "name": "solc",
    "version": "0.8.20+commit.a1b79de6.Emscripten.clang"
  },
  "schemaVersion": "3.4.14",
  "updatedAt": "2023-06-30T11:01:55.593Z",
  "devdoc": {
    "kind": "dev",
    "methods": {},
    "version": 1
  },
  "userdoc": {
    "kind": "user",
    "methods": {},
    "version": 1
  }
}