{
  "contractName": "EscrowContract",
  "abi": [
    {
      "inputs": [
        {
          "internalType": "address payable",
          "name": "_provider_address",
          "type": "address"
        },
        {
          "internalType": "address payable",
          "name": "_mo_address",
          "type": "address"
        },
        {
          "internalType": "address payable",
          "name": "_purchaser_address",
          "type": "address"
        }
      ],
      "stateMutability": "nonpayable",
      "type": "constructor"
    },
    {
      "inputs": [],
      "name": "allocatedBalance",
      "outputs": [
        {
          "internalType": "uint256",
          "name": "",
          "type": "uint256"
        }
      ],
      "stateMutability": "view",
      "type": "function"
    },
    {
      "inputs": [],
      "name": "balance",
      "outputs": [
        {
          "internalType": "uint256",
          "name": "",
          "type": "uint256"
        }
      ],
      "stateMutability": "view",
      "type": "function"
    },
    {
      "inputs": [],
      "name": "mo_address",
      "outputs": [
        {
          "internalType": "address payable",
          "name": "",
          "type": "address"
        }
      ],
      "stateMutability": "view",
      "type": "function"
    },
    {
      "inputs": [],
      "name": "provider_address",
      "outputs": [
        {
          "internalType": "address payable",
          "name": "",
          "type": "address"
        }
      ],
      "stateMutability": "view",
      "type": "function"
    },
    {
      "inputs": [],
      "name": "purchaser_address",
      "outputs": [
        {
          "internalType": "address payable",
          "name": "",
          "type": "address"
        }
      ],
      "stateMutability": "view",
      "type": "function"
    }
  ],
  "bytecode": "0x60806040526064600355348015610014575f80fd5b506040516103df3803806103df8339818101604052810190610036919061015b565b8260015f6101000a81548173ffffffffffffffffffffffffffffffffffffffff021916908373ffffffffffffffffffffffffffffffffffffffff1602179055508160025f6101000a81548173ffffffffffffffffffffffffffffffffffffffff021916908373ffffffffffffffffffffffffffffffffffffffff160217905550805f806101000a81548173ffffffffffffffffffffffffffffffffffffffff021916908373ffffffffffffffffffffffffffffffffffffffff1602179055505050506101ab565b5f80fd5b5f73ffffffffffffffffffffffffffffffffffffffff82169050919050565b5f61012a82610101565b9050919050565b61013a81610120565b8114610144575f80fd5b50565b5f8151905061015581610131565b92915050565b5f805f60608486031215610172576101716100fd565b5b5f61017f86828701610147565b935050602061019086828701610147565b92505060406101a186828701610147565b9150509250925092565b610227806101b85f395ff3fe608060405234801561000f575f80fd5b5060043610610055575f3560e01c80630e5630c11461005957806327b238af146100775780634aa8cf3f14610095578063b69ef8a8146100b3578063e53ecb79146100d1575b5f80fd5b6100616100ef565b60405161006e91906101a7565b60405180910390f35b61007f610114565b60405161008c91906101a7565b60405180910390f35b61009d610139565b6040516100aa91906101a7565b60405180910390f35b6100bb61015c565b6040516100c891906101d8565b60405180910390f35b6100d9610162565b6040516100e691906101d8565b60405180910390f35b60015f9054906101000a900473ffffffffffffffffffffffffffffffffffffffff1681565b60025f9054906101000a900473ffffffffffffffffffffffffffffffffffffffff1681565b5f8054906101000a900473ffffffffffffffffffffffffffffffffffffffff1681565b60035481565b60045481565b5f73ffffffffffffffffffffffffffffffffffffffff82169050919050565b5f61019182610168565b9050919050565b6101a181610187565b82525050565b5f6020820190506101ba5f830184610198565b92915050565b5f819050919050565b6101d2816101c0565b82525050565b5f6020820190506101eb5f8301846101c9565b9291505056fea26469706673582212207c41216ce9d86d6448f5def75efc16da0d6b8ae8e7504d7a419e5d2cea3b418f64736f6c63430008140033",
  "immutableReferences": {},
  "source": "// SPDX-License-Identifier: GPL-3.0\npragma solidity >=0.7.0 <0.9.0;\n\ncontract EscrowContract {\n\n    //Purchaser, Provider and MO addresses\n    address payable public purchaser_address;\n    address payable public provider_address;\n    address payable public mo_address;\n\n   // address payable public creditAddress;\n    \n   // address payable public contract_address = payable(this);\n    uint256 public balance = 100;\n    uint256 public allocatedBalance;\n\n\n\n    // Constructor with arguments \n    constructor(address payable _provider_address, address payable _mo_address,address payable _purchaser_address) {\n        //purchaser_address = payable(msg.sender);\n        provider_address = _provider_address;\n        mo_address = _mo_address;\n        purchaser_address=_purchaser_address;\n\n    }\n\n     // Modifier declaration \n\n    modifier onlyPurchaser() {\n        require(msg.sender == purchaser_address);\n        _;\n    }\n\n    modifier onlyProvider() {\n        require(msg.sender == provider_address);\n        _;\n    }\n    modifier onlyMO() {\n        require(msg.sender == mo_address);\n        _;\n    }\n\n}",
  "sourcePath": "/Users/amritakumari/Documents/escrow-final-draft/contracts/EscrowContract.sol",
  "compiler": {
    "name": "solc",
    "version": "0.8.20+commit.a1b79de6.Emscripten.clang"
  },
  "schemaVersion": "3.4.14",
  "updatedAt": "2023-06-26T10:43:20.942Z",
  "devdoc": {
    "kind": "dev",
    "methods": {},
    "version": 1
  },
  "userdoc": {
    "kind": "user",
    "methods": {},
    "version": 1
  }
}