{
  "contractName": "EscrowContract",
  "abi": [
    {
      "inputs": [
        {
          "internalType": "address payable",
          "name": "_provider_address",
          "type": "address"
        },
        {
          "internalType": "address payable",
          "name": "_mo_address",
          "type": "address"
        },
        {
          "internalType": "address payable",
          "name": "_purchaser_address",
          "type": "address"
        },
        {
          "internalType": "address payable",
          "name": "_creditAddress",
          "type": "address"
        }
      ],
      "stateMutability": "nonpayable",
      "type": "constructor"
    },
    {
      "anonymous": false,
      "inputs": [
        {
          "indexed": false,
          "internalType": "string",
          "name": "descriptionFileHash",
          "type": "string"
        },
        {
          "indexed": false,
          "internalType": "string",
          "name": "title",
          "type": "string"
        },
        {
          "indexed": false,
          "internalType": "uint256",
          "name": "budget",
          "type": "uint256"
        },
        {
          "indexed": false,
          "internalType": "string",
          "name": "initDate",
          "type": "string"
        },
        {
          "indexed": false,
          "internalType": "string",
          "name": "dueDate",
          "type": "string"
        },
        {
          "indexed": false,
          "internalType": "uint256",
          "name": "numberRevisions",
          "type": "uint256"
        },
        {
          "indexed": false,
          "internalType": "uint256",
          "name": "msId",
          "type": "uint256"
        }
      ],
      "name": "milestoneList",
      "type": "event"
    },
    {
      "anonymous": false,
      "inputs": [
        {
          "indexed": false,
          "internalType": "enum State",
          "name": "state",
          "type": "uint8"
        }
      ],
      "name": "trackState",
      "type": "event"
    },
    {
      "inputs": [
        {
          "internalType": "uint256",
          "name": "msId",
          "type": "uint256"
        },
        {
          "internalType": "string",
          "name": "_descriptionFileHash",
          "type": "string"
        },
        {
          "internalType": "string",
          "name": "_title",
          "type": "string"
        },
        {
          "internalType": "uint256",
          "name": "_budget",
          "type": "uint256"
        },
        {
          "internalType": "string",
          "name": "_initDate",
          "type": "string"
        },
        {
          "internalType": "string",
          "name": "_dueDate",
          "type": "string"
        },
        {
          "internalType": "uint256",
          "name": "_numberRevisions",
          "type": "uint256"
        }
      ],
      "name": "addMilestone",
      "outputs": [],
      "stateMutability": "nonpayable",
      "type": "function"
    },
    {
      "inputs": [
        {
          "internalType": "uint256",
          "name": "_id",
          "type": "uint256"
        },
        {
          "internalType": "bool",
          "name": "_val",
          "type": "bool"
        },
        {
          "internalType": "address payable",
          "name": "provider_address",
          "type": "address"
        }
      ],
      "name": "approveMS_status",
      "outputs": [
        {
          "internalType": "bool",
          "name": "approvedStatus",
          "type": "bool"
        },
        {
          "internalType": "string",
          "name": "message",
          "type": "string"
        }
      ],
      "stateMutability": "nonpayable",
      "type": "function"
    },
    {
      "inputs": [
        {
          "internalType": "uint256",
          "name": "_id",
          "type": "uint256"
        }
      ],
      "name": "changeMS_state",
      "outputs": [],
      "stateMutability": "nonpayable",
      "type": "function"
    },
    {
      "inputs": [],
      "name": "creditAddress",
      "outputs": [
        {
          "internalType": "address payable",
          "name": "",
          "type": "address"
        }
      ],
      "stateMutability": "view",
      "type": "function"
    },
    {
      "inputs": [
        {
          "internalType": "uint256",
          "name": "",
          "type": "uint256"
        }
      ],
      "name": "milestonesList",
      "outputs": [
        {
          "internalType": "string",
          "name": "descriptionFileHash",
          "type": "string"
        },
        {
          "internalType": "string",
          "name": "title",
          "type": "string"
        },
        {
          "internalType": "uint256",
          "name": "budget",
          "type": "uint256"
        },
        {
          "internalType": "string",
          "name": "initDate",
          "type": "string"
        },
        {
          "internalType": "string",
          "name": "dueDate",
          "type": "string"
        },
        {
          "internalType": "uint256",
          "name": "numberRevisions",
          "type": "uint256"
        },
        {
          "components": [
            {
              "internalType": "uint256",
              "name": "msId",
              "type": "uint256"
            },
            {
              "internalType": "string",
              "name": "descriptionFileLink",
              "type": "string"
            },
            {
              "internalType": "enum State",
              "name": "state",
              "type": "uint8"
            },
            {
              "internalType": "bool",
              "name": "isApproved",
              "type": "bool"
            },
            {
              "internalType": "bool",
              "name": "isclosed",
              "type": "bool"
            },
            {
              "internalType": "string",
              "name": "resolveTime",
              "type": "string"
            },
            {
              "internalType": "uint256",
              "name": "revisionCounter",
              "type": "uint256"
            }
          ],
          "internalType": "struct MilestoneRequired",
          "name": "ms_req",
          "type": "tuple"
        }
      ],
      "stateMutability": "view",
      "type": "function"
    },
    {
      "inputs": [],
      "name": "mo_address",
      "outputs": [
        {
          "internalType": "address payable",
          "name": "",
          "type": "address"
        }
      ],
      "stateMutability": "view",
      "type": "function"
    },
    {
      "inputs": [],
      "name": "provider_address",
      "outputs": [
        {
          "internalType": "address payable",
          "name": "",
          "type": "address"
        }
      ],
      "stateMutability": "view",
      "type": "function"
    },
    {
      "inputs": [],
      "name": "purchaser_address",
      "outputs": [
        {
          "internalType": "address payable",
          "name": "",
          "type": "address"
        }
      ],
      "stateMutability": "view",
      "type": "function"
    }
  ],
  "bytecode": "0x608060405234801562000010575f80fd5b5060405162001cd038038062001cd08339818101604052810190620000369190620001a5565b8360035f6101000a81548173ffffffffffffffffffffffffffffffffffffffff021916908373ffffffffffffffffffffffffffffffffffffffff1602179055508260045f6101000a81548173ffffffffffffffffffffffffffffffffffffffff021916908373ffffffffffffffffffffffffffffffffffffffff1602179055508160025f6101000a81548173ffffffffffffffffffffffffffffffffffffffff021916908373ffffffffffffffffffffffffffffffffffffffff1602179055508060055f6101000a81548173ffffffffffffffffffffffffffffffffffffffff021916908373ffffffffffffffffffffffffffffffffffffffff1602179055505050505062000214565b5f80fd5b5f73ffffffffffffffffffffffffffffffffffffffff82169050919050565b5f6200016f8262000144565b9050919050565b620001818162000163565b81146200018c575f80fd5b50565b5f815190506200019f8162000176565b92915050565b5f805f8060808587031215620001c057620001bf62000140565b5b5f620001cf878288016200018f565b9450506020620001e2878288016200018f565b9350506040620001f5878288016200018f565b925050606062000208878288016200018f565b91505092959194509250565b611aae80620002225f395ff3fe608060405234801561000f575f80fd5b5060043610610086575f3560e01c80634aa8cf3f116100595780634aa8cf3f1461010057806365ad8b751461011e57806372a207d71461014f578063cbda494a1461016b57610086565b80630e5630c11461008a5780631053c998146100a8578063148f90bb146100c457806327b238af146100e2575b5f80fd5b6100926101a1565b60405161009f9190610f6c565b60405180910390f35b6100c260048036038101906100bd9190611105565b6101c6565b005b6100cc610596565b6040516100d99190610f6c565b60405180910390f35b6100ea6105bb565b6040516100f79190610f6c565b60405180910390f35b6101086105e0565b6040516101159190610f6c565b60405180910390f35b61013860048036038101906101339190611271565b610605565b60405161014692919061134a565b60405180910390f35b61016960048036038101906101649190611378565b6109ab565b005b61018560048036038101906101809190611378565b610a8d565b604051610198979695949392919061152b565b60405180910390f35b60035f9054906101000a900473ffffffffffffffffffffffffffffffffffffffff1681565b6101ce610e9e565b86815f018190525085816020018190525084816040018181525050838160600181905250828160800181905250818160a001818152505061020d610edf565b88815f0181815250506040518060400160405280600e81526020017f7777772e676f6f676c652e636f6d00000000000000000000000000000000000081525081602001819052505f8160400190600481111561026c5761026b611409565b5b908160048111156102805761027f611409565b5b815250505f8160600190151590811515815250505f81608001901515908115158152505060405180602001604052805f8152508160a001819052505f8160c00181815250507fbddb1ceede154cb7fd51c2c105c4cd9fdeca47d52399300d8f94c97e63c34dcd8888888888888f60405161030097969594939291906115bb565b60405180910390a18160015f8b81526020019081526020015f205f820151815f01908161032d919061183e565b506020820151816001019081610343919061183e565b50604082015181600201556060820151816003019081610363919061183e565b506080820151816004019081610379919061183e565b5060a0820151816005015560c0820151816006015f820151815f015560208201518160010190816103aa919061183e565b506040820151816002015f6101000a81548160ff021916908360048111156103d5576103d4611409565b5b021790555060608201518160020160016101000a81548160ff02191690831515021790555060808201518160020160026101000a81548160ff02191690831515021790555060a082015181600301908161042f919061183e565b5060c0820151816004015550509050505f82908060018154018082558091505060019003905f5260205f2090600b02015f909190919091505f820151815f01908161047a919061183e565b506020820151816001019081610490919061183e565b506040820151816002015560608201518160030190816104b0919061183e565b5060808201518160040190816104c6919061183e565b5060a0820151816005015560c0820151816006015f820151815f015560208201518160010190816104f7919061183e565b506040820151816002015f6101000a81548160ff0219169083600481111561052257610521611409565b5b021790555060608201518160020160016101000a81548160ff02191690831515021790555060808201518160020160026101000a81548160ff02191690831515021790555060a082015181600301908161057c919061183e565b5060c0820151816004015550505050505050505050505050565b60055f9054906101000a900473ffffffffffffffffffffffffffffffffffffffff1681565b60045f9054906101000a900473ffffffffffffffffffffffffffffffffffffffff1681565b60025f9054906101000a900473ffffffffffffffffffffffffffffffffffffffff1681565b5f60605f5b5f8054905081101561096657855f828154811061062a5761062961190d565b5b905f5260205f2090600b02016006015f015414801561064d575060011515851515145b15610757575f3090505f6305f5e1005f848154811061066f5761066e61190d565b5b905f5260205f2090600b0201600201546106899190611967565b90508573ffffffffffffffffffffffffffffffffffffffff166108fc828473ffffffffffffffffffffffffffffffffffffffff16316106c891906119a8565b8473ffffffffffffffffffffffffffffffffffffffff16316106ea91906119a8565b90811502906040515f60405180830381858888f19350505050158015610712573d5f803e3d5ffd5b5060016040518060400160405280601b81526020017f46756e64207472616e73666572207375636365737366756c6c79200000000000815250945094505050506109a3565b855f828154811061076b5761076a61190d565b5b905f5260205f2090600b02016006015f015414801561078d57505f1515851515145b15610953575f81815481106107a5576107a461190d565b5b905f5260205f2090600b0201600501545f82815481106107c8576107c761190d565b5b905f5260205f2090600b020160060160040154101561092e5760015f82815481106107f6576107f561190d565b5b905f5260205f2090600b02016006016004015461081391906119db565b5f82815481106108265761082561190d565b5b905f5260205f2090600b02016006016004018190555060035f82815481106108515761085061190d565b5b905f5260205f2090600b02016006016002015f6101000a81548160ff0219169083600481111561088457610883611409565b5b02179055505f60015f8881526020019081526020015f209050600181600601600401546108b191906119db565b81600601600401819055506003816006016002015f6101000a81548160ff021916908360048111156108e6576108e5611409565b5b021790555060016040518060400160405280601a81526020017f4d5320737461747573206368616e676520746f207265776f726b0000000000008152509350935050506109a3565b6001604051806060016040528060238152602001611a566023913992509250506109a3565b808061095e90611a0e565b91505061060a565b505f6040518060400160405280601081526020017f4d53206964206e6f7420666f756e642000000000000000000000000000000000815250915091505b935093915050565b5f5b5f80549050811015610a4557815f82815481106109cd576109cc61190d565b5b905f5260205f2090600b02016006015f015403610a325760025f82815481106109f9576109f861190d565b5b905f5260205f2090600b02016006016002015f6101000a81548160ff02191690836004811115610a2c57610a2b611409565b5b02179055505b8080610a3d90611a0e565b9150506109ad565b505f60015f8381526020019081526020015f2090506002816006016002015f6101000a81548160ff02191690836004811115610a8457610a83611409565b5b02179055505050565b5f8181548110610a9b575f80fd5b905f5260205f2090600b02015f91509050805f018054610aba90611671565b80601f0160208091040260200160405190810160405280929190818152602001828054610ae690611671565b8015610b315780601f10610b0857610100808354040283529160200191610b31565b820191905f5260205f20905b815481529060010190602001808311610b1457829003601f168201915b505050505090806001018054610b4690611671565b80601f0160208091040260200160405190810160405280929190818152602001828054610b7290611671565b8015610bbd5780601f10610b9457610100808354040283529160200191610bbd565b820191905f5260205f20905b815481529060010190602001808311610ba057829003601f168201915b505050505090806002015490806003018054610bd890611671565b80601f0160208091040260200160405190810160405280929190818152602001828054610c0490611671565b8015610c4f5780601f10610c2657610100808354040283529160200191610c4f565b820191905f5260205f20905b815481529060010190602001808311610c3257829003601f168201915b505050505090806004018054610c6490611671565b80601f0160208091040260200160405190810160405280929190818152602001828054610c9090611671565b8015610cdb5780601f10610cb257610100808354040283529160200191610cdb565b820191905f5260205f20905b815481529060010190602001808311610cbe57829003601f168201915b505050505090806005015490806006016040518060e00160405290815f8201548152602001600182018054610d0f90611671565b80601f0160208091040260200160405190810160405280929190818152602001828054610d3b90611671565b8015610d865780601f10610d5d57610100808354040283529160200191610d86565b820191905f5260205f20905b815481529060010190602001808311610d6957829003601f168201915b50505050508152602001600282015f9054906101000a900460ff166004811115610db357610db2611409565b5b6004811115610dc557610dc4611409565b5b81526020016002820160019054906101000a900460ff161515151581526020016002820160029054906101000a900460ff16151515158152602001600382018054610e0f90611671565b80601f0160208091040260200160405190810160405280929190818152602001828054610e3b90611671565b8015610e865780601f10610e5d57610100808354040283529160200191610e86565b820191905f5260205f20905b815481529060010190602001808311610e6957829003601f168201915b50505050508152602001600482015481525050905087565b6040518060e0016040528060608152602001606081526020015f815260200160608152602001606081526020015f8152602001610ed9610edf565b81525090565b6040518060e001604052805f8152602001606081526020015f6004811115610f0a57610f09611409565b5b81526020015f151581526020015f15158152602001606081526020015f81525090565b5f73ffffffffffffffffffffffffffffffffffffffff82169050919050565b5f610f5682610f2d565b9050919050565b610f6681610f4c565b82525050565b5f602082019050610f7f5f830184610f5d565b92915050565b5f604051905090565b5f80fd5b5f80fd5b5f819050919050565b610fa881610f96565b8114610fb2575f80fd5b50565b5f81359050610fc381610f9f565b92915050565b5f80fd5b5f80fd5b5f601f19601f8301169050919050565b7f4e487b71000000000000000000000000000000000000000000000000000000005f52604160045260245ffd5b61101782610fd1565b810181811067ffffffffffffffff8211171561103657611035610fe1565b5b80604052505050565b5f611048610f85565b9050611054828261100e565b919050565b5f67ffffffffffffffff82111561107357611072610fe1565b5b61107c82610fd1565b9050602081019050919050565b828183375f83830152505050565b5f6110a96110a484611059565b61103f565b9050828152602081018484840111156110c5576110c4610fcd565b5b6110d0848285611089565b509392505050565b5f82601f8301126110ec576110eb610fc9565b5b81356110fc848260208601611097565b91505092915050565b5f805f805f805f60e0888a0312156111205761111f610f8e565b5b5f61112d8a828b01610fb5565b975050602088013567ffffffffffffffff81111561114e5761114d610f92565b5b61115a8a828b016110d8565b965050604088013567ffffffffffffffff81111561117b5761117a610f92565b5b6111878a828b016110d8565b95505060606111988a828b01610fb5565b945050608088013567ffffffffffffffff8111156111b9576111b8610f92565b5b6111c58a828b016110d8565b93505060a088013567ffffffffffffffff8111156111e6576111e5610f92565b5b6111f28a828b016110d8565b92505060c06112038a828b01610fb5565b91505092959891949750929550565b5f8115159050919050565b61122681611212565b8114611230575f80fd5b50565b5f813590506112418161121d565b92915050565b61125081610f4c565b811461125a575f80fd5b50565b5f8135905061126b81611247565b92915050565b5f805f6060848603121561128857611287610f8e565b5b5f61129586828701610fb5565b93505060206112a686828701611233565b92505060406112b78682870161125d565b9150509250925092565b6112ca81611212565b82525050565b5f81519050919050565b5f82825260208201905092915050565b5f5b838110156113075780820151818401526020810190506112ec565b5f8484015250505050565b5f61131c826112d0565b61132681856112da565b93506113368185602086016112ea565b61133f81610fd1565b840191505092915050565b5f60408201905061135d5f8301856112c1565b818103602083015261136f8184611312565b90509392505050565b5f6020828403121561138d5761138c610f8e565b5b5f61139a84828501610fb5565b91505092915050565b6113ac81610f96565b82525050565b6113bb81610f96565b82525050565b5f82825260208201905092915050565b5f6113db826112d0565b6113e581856113c1565b93506113f58185602086016112ea565b6113fe81610fd1565b840191505092915050565b7f4e487b71000000000000000000000000000000000000000000000000000000005f52602160045260245ffd5b6005811061144757611446611409565b5b50565b5f81905061145782611436565b919050565b5f6114668261144a565b9050919050565b6114768161145c565b82525050565b61148581611212565b82525050565b5f60e083015f8301516114a05f8601826113b2565b50602083015184820360208601526114b882826113d1565b91505060408301516114cd604086018261146d565b5060608301516114e0606086018261147c565b5060808301516114f3608086018261147c565b5060a083015184820360a086015261150b82826113d1565b91505060c083015161152060c08601826113b2565b508091505092915050565b5f60e0820190508181035f830152611543818a611312565b905081810360208301526115578189611312565b905061156660408301886113a3565b81810360608301526115788187611312565b9050818103608083015261158c8186611312565b905061159b60a08301856113a3565b81810360c08301526115ad818461148b565b905098975050505050505050565b5f60e0820190508181035f8301526115d3818a611312565b905081810360208301526115e78189611312565b90506115f660408301886113a3565b81810360608301526116088187611312565b9050818103608083015261161c8186611312565b905061162b60a08301856113a3565b61163860c08301846113a3565b98975050505050505050565b7f4e487b71000000000000000000000000000000000000000000000000000000005f52602260045260245ffd5b5f600282049050600182168061168857607f821691505b60208210810361169b5761169a611644565b5b50919050565b5f819050815f5260205f209050919050565b5f6020601f8301049050919050565b5f82821b905092915050565b5f600883026116fd7fffffffffffffffffffffffffffffffffffffffffffffffffffffffffffffffff826116c2565b61170786836116c2565b95508019841693508086168417925050509392505050565b5f819050919050565b5f61174261173d61173884610f96565b61171f565b610f96565b9050919050565b5f819050919050565b61175b83611728565b61176f61176782611749565b8484546116ce565b825550505050565b5f90565b611783611777565b61178e818484611752565b505050565b5b818110156117b1576117a65f8261177b565b600181019050611794565b5050565b601f8211156117f6576117c7816116a1565b6117d0846116b3565b810160208510156117df578190505b6117f36117eb856116b3565b830182611793565b50505b505050565b5f82821c905092915050565b5f6118165f19846008026117fb565b1980831691505092915050565b5f61182e8383611807565b9150826002028217905092915050565b611847826112d0565b67ffffffffffffffff8111156118605761185f610fe1565b5b61186a8254611671565b6118758282856117b5565b5f60209050601f8311600181146118a6575f8415611894578287015190505b61189e8582611823565b865550611905565b601f1984166118b4866116a1565b5f5b828110156118db578489015182556001820191506020850194506020810190506118b6565b868310156118f857848901516118f4601f891682611807565b8355505b6001600288020188555050505b505050505050565b7f4e487b71000000000000000000000000000000000000000000000000000000005f52603260045260245ffd5b7f4e487b71000000000000000000000000000000000000000000000000000000005f52601160045260245ffd5b5f61197182610f96565b915061197c83610f96565b925082820261198a81610f96565b915082820484148315176119a1576119a061193a565b5b5092915050565b5f6119b282610f96565b91506119bd83610f96565b92508282039050818111156119d5576119d461193a565b5b92915050565b5f6119e582610f96565b91506119f083610f96565b9250828201905080821115611a0857611a0761193a565b5b92915050565b5f611a1882610f96565b91507fffffffffffffffffffffffffffffffffffffffffffffffffffffffffffffffff8203611a4a57611a4961193a565b5b60018201905091905056fe50656e616c74792063616c63756c6174696f6e2066756e6374696f6e2063616c6c6564a2646970667358221220e9a26b0c6037df73f6a7926e1bc057a5aa9d31f273f5b8e3b517af310ac3337864736f6c63430008140033",
  "immutableReferences": {},
  "source": "// SPDX-License-Identifier: GPL-3.0\npragma solidity >=0.7.0 <0.9.0;\n\nimport \"./MilestoneContract.sol\";\n\ncontract EscrowContract is MilestoneContract {\n    //Purchaser, Provider and MO addresses\n    address payable public purchaser_address;\n    address payable public provider_address;\n    address payable public mo_address;\n\n    address payable public creditAddress;\n\n    // Constructor with arguments\n    constructor(\n        address payable _provider_address,\n        address payable _mo_address,\n        address payable _purchaser_address,\n        address payable _creditAddress\n    ) {\n        provider_address = _provider_address;\n        mo_address = _mo_address;\n        purchaser_address = _purchaser_address;\n        creditAddress = _creditAddress;\n    }\n}\n",
  "sourcePath": "/Users/ravisatyam/Desktop/ravi/escrow-final/contracts/EscrowContract.sol",
  "compiler": {
    "name": "solc",
    "version": "0.8.20+commit.a1b79de6.Emscripten.clang"
  },
  "schemaVersion": "3.4.14",
  "updatedAt": "2023-06-28T06:57:17.526Z",
  "devdoc": {
    "kind": "dev",
    "methods": {},
    "version": 1
  },
  "userdoc": {
    "kind": "user",
    "methods": {},
    "version": 1
  }
}