{
  "contractName": "EscrowContract",
  "abi": [
    {
      "inputs": [
        {
          "internalType": "address payable",
          "name": "_provider_address",
          "type": "address"
        },
        {
          "internalType": "address payable",
          "name": "_mo_address",
          "type": "address"
        },
        {
          "internalType": "address payable",
          "name": "_purchaser_address",
          "type": "address"
        },
        {
          "internalType": "address payable",
          "name": "_creditAddress",
          "type": "address"
        }
      ],
      "stateMutability": "nonpayable",
      "type": "constructor"
    },
    {
      "anonymous": false,
      "inputs": [
        {
          "indexed": false,
          "internalType": "string",
          "name": "descriptionFileHash",
          "type": "string"
        },
        {
          "indexed": false,
          "internalType": "string",
          "name": "title",
          "type": "string"
        },
        {
          "indexed": false,
          "internalType": "uint256",
          "name": "budget",
          "type": "uint256"
        },
        {
          "indexed": false,
          "internalType": "string",
          "name": "initDate",
          "type": "string"
        },
        {
          "indexed": false,
          "internalType": "string",
          "name": "dueDate",
          "type": "string"
        },
        {
          "indexed": false,
          "internalType": "uint256",
          "name": "numberRevisions",
          "type": "uint256"
        },
        {
          "indexed": false,
          "internalType": "uint256",
          "name": "msId",
          "type": "uint256"
        }
      ],
      "name": "milestoneList",
      "type": "event"
    },
    {
      "anonymous": false,
      "inputs": [
        {
          "indexed": false,
          "internalType": "enum State",
          "name": "state",
          "type": "uint8"
        }
      ],
      "name": "trackState",
      "type": "event"
    },
    {
      "inputs": [
        {
          "internalType": "uint256",
          "name": "_msId",
          "type": "uint256"
        },
        {
          "internalType": "string",
          "name": "_descriptionFileHash",
          "type": "string"
        },
        {
          "internalType": "string",
          "name": "_title",
          "type": "string"
        },
        {
          "internalType": "uint256",
          "name": "_budget",
          "type": "uint256"
        },
        {
          "internalType": "string",
          "name": "_initDate",
          "type": "string"
        },
        {
          "internalType": "string",
          "name": "_dueDate",
          "type": "string"
        },
        {
          "internalType": "uint256",
          "name": "_numberRevisions",
          "type": "uint256"
        }
      ],
      "name": "addMilestone",
      "outputs": [],
      "stateMutability": "nonpayable",
      "type": "function"
    },
    {
      "inputs": [
        {
          "internalType": "uint256",
          "name": "_id",
          "type": "uint256"
        },
        {
          "internalType": "bool",
          "name": "_val",
          "type": "bool"
        },
        {
          "internalType": "address payable",
          "name": "provider_address",
          "type": "address"
        }
      ],
      "name": "approveMS_status",
      "outputs": [
        {
          "internalType": "bool",
          "name": "approvedStatus",
          "type": "bool"
        },
        {
          "internalType": "string",
          "name": "message",
          "type": "string"
        }
      ],
      "stateMutability": "nonpayable",
      "type": "function"
    },
    {
      "inputs": [
        {
          "internalType": "uint256",
          "name": "_id",
          "type": "uint256"
        }
      ],
      "name": "changeMS_state",
      "outputs": [],
      "stateMutability": "nonpayable",
      "type": "function"
    },
    {
      "inputs": [],
      "name": "creditAddress",
      "outputs": [
        {
          "internalType": "address payable",
          "name": "",
          "type": "address"
        }
      ],
      "stateMutability": "view",
      "type": "function"
    },
    {
      "inputs": [],
      "name": "getAllMS",
      "outputs": [
        {
          "components": [
            {
              "internalType": "string",
              "name": "descriptionFileHash",
              "type": "string"
            },
            {
              "internalType": "string",
              "name": "title",
              "type": "string"
            },
            {
              "internalType": "uint256",
              "name": "budget",
              "type": "uint256"
            },
            {
              "internalType": "string",
              "name": "initDate",
              "type": "string"
            },
            {
              "internalType": "string",
              "name": "dueDate",
              "type": "string"
            },
            {
              "internalType": "uint256",
              "name": "numberRevisions",
              "type": "uint256"
            },
            {
              "components": [
                {
                  "internalType": "uint256",
                  "name": "msId",
                  "type": "uint256"
                },
                {
                  "internalType": "string",
                  "name": "descriptionFileLink",
                  "type": "string"
                },
                {
                  "internalType": "enum State",
                  "name": "state",
                  "type": "uint8"
                },
                {
                  "internalType": "bool",
                  "name": "isApproved",
                  "type": "bool"
                },
                {
                  "internalType": "bool",
                  "name": "isclosed",
                  "type": "bool"
                },
                {
                  "internalType": "string",
                  "name": "resolveTime",
                  "type": "string"
                },
                {
                  "internalType": "uint256",
                  "name": "revisionCounter",
                  "type": "uint256"
                }
              ],
              "internalType": "struct MilestoneRequired",
              "name": "ms_req",
              "type": "tuple"
            }
          ],
          "internalType": "struct Milestone[]",
          "name": "msList",
          "type": "tuple[]"
        }
      ],
      "stateMutability": "view",
      "type": "function"
    },
    {
      "inputs": [
        {
          "internalType": "uint256",
          "name": "_Id",
          "type": "uint256"
        }
      ],
      "name": "getMilestoneById",
      "outputs": [
        {
          "components": [
            {
              "internalType": "string",
              "name": "descriptionFileHash",
              "type": "string"
            },
            {
              "internalType": "string",
              "name": "title",
              "type": "string"
            },
            {
              "internalType": "uint256",
              "name": "budget",
              "type": "uint256"
            },
            {
              "internalType": "string",
              "name": "initDate",
              "type": "string"
            },
            {
              "internalType": "string",
              "name": "dueDate",
              "type": "string"
            },
            {
              "internalType": "uint256",
              "name": "numberRevisions",
              "type": "uint256"
            },
            {
              "components": [
                {
                  "internalType": "uint256",
                  "name": "msId",
                  "type": "uint256"
                },
                {
                  "internalType": "string",
                  "name": "descriptionFileLink",
                  "type": "string"
                },
                {
                  "internalType": "enum State",
                  "name": "state",
                  "type": "uint8"
                },
                {
                  "internalType": "bool",
                  "name": "isApproved",
                  "type": "bool"
                },
                {
                  "internalType": "bool",
                  "name": "isclosed",
                  "type": "bool"
                },
                {
                  "internalType": "string",
                  "name": "resolveTime",
                  "type": "string"
                },
                {
                  "internalType": "uint256",
                  "name": "revisionCounter",
                  "type": "uint256"
                }
              ],
              "internalType": "struct MilestoneRequired",
              "name": "ms_req",
              "type": "tuple"
            }
          ],
          "internalType": "struct Milestone",
          "name": "ms",
          "type": "tuple"
        }
      ],
      "stateMutability": "view",
      "type": "function"
    },
    {
      "inputs": [
        {
          "internalType": "uint256",
          "name": "",
          "type": "uint256"
        }
      ],
      "name": "milestonesList",
      "outputs": [
        {
          "internalType": "string",
          "name": "descriptionFileHash",
          "type": "string"
        },
        {
          "internalType": "string",
          "name": "title",
          "type": "string"
        },
        {
          "internalType": "uint256",
          "name": "budget",
          "type": "uint256"
        },
        {
          "internalType": "string",
          "name": "initDate",
          "type": "string"
        },
        {
          "internalType": "string",
          "name": "dueDate",
          "type": "string"
        },
        {
          "internalType": "uint256",
          "name": "numberRevisions",
          "type": "uint256"
        },
        {
          "components": [
            {
              "internalType": "uint256",
              "name": "msId",
              "type": "uint256"
            },
            {
              "internalType": "string",
              "name": "descriptionFileLink",
              "type": "string"
            },
            {
              "internalType": "enum State",
              "name": "state",
              "type": "uint8"
            },
            {
              "internalType": "bool",
              "name": "isApproved",
              "type": "bool"
            },
            {
              "internalType": "bool",
              "name": "isclosed",
              "type": "bool"
            },
            {
              "internalType": "string",
              "name": "resolveTime",
              "type": "string"
            },
            {
              "internalType": "uint256",
              "name": "revisionCounter",
              "type": "uint256"
            }
          ],
          "internalType": "struct MilestoneRequired",
          "name": "ms_req",
          "type": "tuple"
        }
      ],
      "stateMutability": "view",
      "type": "function"
    },
    {
      "inputs": [],
      "name": "mo_address",
      "outputs": [
        {
          "internalType": "address payable",
          "name": "",
          "type": "address"
        }
      ],
      "stateMutability": "view",
      "type": "function"
    },
    {
      "inputs": [],
      "name": "provider_address",
      "outputs": [
        {
          "internalType": "address payable",
          "name": "",
          "type": "address"
        }
      ],
      "stateMutability": "view",
      "type": "function"
    },
    {
      "inputs": [],
      "name": "purchaser_address",
      "outputs": [
        {
          "internalType": "address payable",
          "name": "",
          "type": "address"
        }
      ],
      "stateMutability": "view",
      "type": "function"
    }
  ],
  "bytecode": "0x608060405234801562000010575f80fd5b506040516200293e3803806200293e8339818101604052810190620000369190620001a5565b8360035f6101000a81548173ffffffffffffffffffffffffffffffffffffffff021916908373ffffffffffffffffffffffffffffffffffffffff1602179055508260045f6101000a81548173ffffffffffffffffffffffffffffffffffffffff021916908373ffffffffffffffffffffffffffffffffffffffff1602179055508160025f6101000a81548173ffffffffffffffffffffffffffffffffffffffff021916908373ffffffffffffffffffffffffffffffffffffffff1602179055508060055f6101000a81548173ffffffffffffffffffffffffffffffffffffffff021916908373ffffffffffffffffffffffffffffffffffffffff1602179055505050505062000214565b5f80fd5b5f73ffffffffffffffffffffffffffffffffffffffff82169050919050565b5f6200016f8262000144565b9050919050565b620001818162000163565b81146200018c575f80fd5b50565b5f815190506200019f8162000176565b92915050565b5f805f8060808587031215620001c057620001bf62000140565b5b5f620001cf878288016200018f565b9450506020620001e2878288016200018f565b9350506040620001f5878288016200018f565b925050606062000208878288016200018f565b91505092959194509250565b61271c80620002225f395ff3fe608060405234801561000f575f80fd5b506004361061009c575f3560e01c80634aa8cf3f116100645780634aa8cf3f1461014657806365ad8b751461016457806372a207d714610195578063cbda494a146101b1578063ebceba42146101e75761009c565b80630e5630c1146100a05780631053c998146100be578063148f90bb146100da57806327b238af146100f8578063399a567c14610116575b5f80fd5b6100a8610205565b6040516100b591906118d5565b60405180910390f35b6100d860048036038101906100d39190611a6e565b61022a565b005b6100e2610603565b6040516100ef91906118d5565b60405180910390f35b610100610628565b60405161010d91906118d5565b60405180910390f35b610130600480360381019061012b9190611b7b565b61064d565b60405161013d9190611e11565b60405180910390f35b61014e610ae4565b60405161015b91906118d5565b60405180910390f35b61017e60048036038101906101799190611e85565b610b09565b60405161018c929190611f2c565b60405180910390f35b6101af60048036038101906101aa9190611b7b565b610eaf565b005b6101cb60048036038101906101c69190611b7b565b610f91565b6040516101de9796959493929190612009565b60405180910390f35b6101ef6113a2565b6040516101fc9190612209565b60405180910390f35b60035f9054906101000a900473ffffffffffffffffffffffffffffffffffffffff1681565b610232611807565b86815f018190525085816020018190525084816040018181525050838160600181905250828160800181905250818160a0018181525050610271611848565b88815f0181815250506040518060400160405280600e81526020017f7777772e676f6f676c652e636f6d00000000000000000000000000000000000081525081602001819052505f816040019060048111156102d0576102cf611c2f565b5b908160048111156102e4576102e3611c2f565b5b815250505f8160600190151590811515815250505f81608001901515908115158152505060405180602001604052805f8152508160a001819052505f8160c00181815250507fbddb1ceede154cb7fd51c2c105c4cd9fdeca47d52399300d8f94c97e63c34dcd8888888888888f6040516103649796959493929190612229565b60405180910390a1808260c001819052508160015f8b81526020019081526020015f205f820151815f01908161039a91906124ac565b5060208201518160010190816103b091906124ac565b506040820151816002015560608201518160030190816103d091906124ac565b5060808201518160040190816103e691906124ac565b5060a0820151816005015560c0820151816006015f820151815f0155602082015181600101908161041791906124ac565b506040820151816002015f6101000a81548160ff0219169083600481111561044257610441611c2f565b5b021790555060608201518160020160016101000a81548160ff02191690831515021790555060808201518160020160026101000a81548160ff02191690831515021790555060a082015181600301908161049c91906124ac565b5060c0820151816004015550509050505f82908060018154018082558091505060019003905f5260205f2090600b02015f909190919091505f820151815f0190816104e791906124ac565b5060208201518160010190816104fd91906124ac565b5060408201518160020155606082015181600301908161051d91906124ac565b50608082015181600401908161053391906124ac565b5060a0820151816005015560c0820151816006015f820151815f0155602082015181600101908161056491906124ac565b506040820151816002015f6101000a81548160ff0219169083600481111561058f5761058e611c2f565b5b021790555060608201518160020160016101000a81548160ff02191690831515021790555060808201518160020160026101000a81548160ff02191690831515021790555060a08201518160030190816105e991906124ac565b5060c0820151816004015550505050505050505050505050565b60055f9054906101000a900473ffffffffffffffffffffffffffffffffffffffff1681565b60045f9054906101000a900473ffffffffffffffffffffffffffffffffffffffff1681565b610655611807565b5f5b5f80549050811015610add57825f82815481106106775761067661257b565b5b905f5260205f2090600b02016006015f015403610aca575f81815481106106a1576106a061257b565b5b905f5260205f2090600b02016040518060e00160405290815f820180546106c7906122df565b80601f01602080910402602001604051908101604052809291908181526020018280546106f3906122df565b801561073e5780601f106107155761010080835404028352916020019161073e565b820191905f5260205f20905b81548152906001019060200180831161072157829003601f168201915b50505050508152602001600182018054610757906122df565b80601f0160208091040260200160405190810160405280929190818152602001828054610783906122df565b80156107ce5780601f106107a5576101008083540402835291602001916107ce565b820191905f5260205f20905b8154815290600101906020018083116107b157829003601f168201915b50505050508152602001600282015481526020016003820180546107f1906122df565b80601f016020809104026020016040519081016040528092919081815260200182805461081d906122df565b80156108685780601f1061083f57610100808354040283529160200191610868565b820191905f5260205f20905b81548152906001019060200180831161084b57829003601f168201915b50505050508152602001600482018054610881906122df565b80601f01602080910402602001604051908101604052809291908181526020018280546108ad906122df565b80156108f85780601f106108cf576101008083540402835291602001916108f8565b820191905f5260205f20905b8154815290600101906020018083116108db57829003601f168201915b5050505050815260200160058201548152602001600682016040518060e00160405290815f8201548152602001600182018054610934906122df565b80601f0160208091040260200160405190810160405280929190818152602001828054610960906122df565b80156109ab5780601f10610982576101008083540402835291602001916109ab565b820191905f5260205f20905b81548152906001019060200180831161098e57829003601f168201915b50505050508152602001600282015f9054906101000a900460ff1660048111156109d8576109d7611c2f565b5b60048111156109ea576109e9611c2f565b5b81526020016002820160019054906101000a900460ff161515151581526020016002820160029054906101000a900460ff16151515158152602001600382018054610a34906122df565b80601f0160208091040260200160405190810160405280929190818152602001828054610a60906122df565b8015610aab5780601f10610a8257610100808354040283529160200191610aab565b820191905f5260205f20905b815481529060010190602001808311610a8e57829003601f168201915b5050505050815260200160048201548152505081525050915050610adf565b8080610ad5906125d5565b915050610657565b505b919050565b60025f9054906101000a900473ffffffffffffffffffffffffffffffffffffffff1681565b5f60605f5b5f80549050811015610e6a57855f8281548110610b2e57610b2d61257b565b5b905f5260205f2090600b02016006015f0154148015610b51575060011515851515145b15610c5b575f3090505f6305f5e1005f8481548110610b7357610b7261257b565b5b905f5260205f2090600b020160020154610b8d919061261c565b90508573ffffffffffffffffffffffffffffffffffffffff166108fc828473ffffffffffffffffffffffffffffffffffffffff1631610bcc919061265d565b8473ffffffffffffffffffffffffffffffffffffffff1631610bee919061265d565b90811502906040515f60405180830381858888f19350505050158015610c16573d5f803e3d5ffd5b5060016040518060400160405280601b81526020017f46756e64207472616e73666572207375636365737366756c6c7920000000000081525094509450505050610ea7565b855f8281548110610c6f57610c6e61257b565b5b905f5260205f2090600b02016006015f0154148015610c9157505f1515851515145b15610e57575f8181548110610ca957610ca861257b565b5b905f5260205f2090600b0201600501545f8281548110610ccc57610ccb61257b565b5b905f5260205f2090600b0201600601600401541015610e325760015f8281548110610cfa57610cf961257b565b5b905f5260205f2090600b020160060160040154610d179190612690565b5f8281548110610d2a57610d2961257b565b5b905f5260205f2090600b02016006016004018190555060035f8281548110610d5557610d5461257b565b5b905f5260205f2090600b02016006016002015f6101000a81548160ff02191690836004811115610d8857610d87611c2f565b5b02179055505f60015f8881526020019081526020015f20905060018160060160040154610db59190612690565b81600601600401819055506003816006016002015f6101000a81548160ff02191690836004811115610dea57610de9611c2f565b5b021790555060016040518060400160405280601a81526020017f4d5320737461747573206368616e676520746f207265776f726b000000000000815250935093505050610ea7565b60016040518060600160405280602381526020016126c4602391399250925050610ea7565b8080610e62906125d5565b915050610b0e565b505f6040518060400160405280601081526020017f4d53206964206e6f7420666f756e642000000000000000000000000000000000815250915091505b935093915050565b5f5b5f80549050811015610f4957815f8281548110610ed157610ed061257b565b5b905f5260205f2090600b02016006015f015403610f365760025f8281548110610efd57610efc61257b565b5b905f5260205f2090600b02016006016002015f6101000a81548160ff02191690836004811115610f3057610f2f611c2f565b5b02179055505b8080610f41906125d5565b915050610eb1565b505f60015f8381526020019081526020015f2090506002816006016002015f6101000a81548160ff02191690836004811115610f8857610f87611c2f565b5b02179055505050565b5f8181548110610f9f575f80fd5b905f5260205f2090600b02015f91509050805f018054610fbe906122df565b80601f0160208091040260200160405190810160405280929190818152602001828054610fea906122df565b80156110355780601f1061100c57610100808354040283529160200191611035565b820191905f5260205f20905b81548152906001019060200180831161101857829003601f168201915b50505050509080600101805461104a906122df565b80601f0160208091040260200160405190810160405280929190818152602001828054611076906122df565b80156110c15780601f10611098576101008083540402835291602001916110c1565b820191905f5260205f20905b8154815290600101906020018083116110a457829003601f168201915b5050505050908060020154908060030180546110dc906122df565b80601f0160208091040260200160405190810160405280929190818152602001828054611108906122df565b80156111535780601f1061112a57610100808354040283529160200191611153565b820191905f5260205f20905b81548152906001019060200180831161113657829003601f168201915b505050505090806004018054611168906122df565b80601f0160208091040260200160405190810160405280929190818152602001828054611194906122df565b80156111df5780601f106111b6576101008083540402835291602001916111df565b820191905f5260205f20905b8154815290600101906020018083116111c257829003601f168201915b505050505090806005015490806006016040518060e00160405290815f8201548152602001600182018054611213906122df565b80601f016020809104026020016040519081016040528092919081815260200182805461123f906122df565b801561128a5780601f106112615761010080835404028352916020019161128a565b820191905f5260205f20905b81548152906001019060200180831161126d57829003601f168201915b50505050508152602001600282015f9054906101000a900460ff1660048111156112b7576112b6611c2f565b5b60048111156112c9576112c8611c2f565b5b81526020016002820160019054906101000a900460ff161515151581526020016002820160029054906101000a900460ff16151515158152602001600382018054611313906122df565b80601f016020809104026020016040519081016040528092919081815260200182805461133f906122df565b801561138a5780601f106113615761010080835404028352916020019161138a565b820191905f5260205f20905b81548152906001019060200180831161136d57829003601f168201915b50505050508152602001600482015481525050905087565b60605f805480602002602001604051908101604052809291908181526020015f905b828210156117fe578382905f5260205f2090600b02016040518060e00160405290815f820180546113f4906122df565b80601f0160208091040260200160405190810160405280929190818152602001828054611420906122df565b801561146b5780601f106114425761010080835404028352916020019161146b565b820191905f5260205f20905b81548152906001019060200180831161144e57829003601f168201915b50505050508152602001600182018054611484906122df565b80601f01602080910402602001604051908101604052809291908181526020018280546114b0906122df565b80156114fb5780601f106114d2576101008083540402835291602001916114fb565b820191905f5260205f20905b8154815290600101906020018083116114de57829003601f168201915b505050505081526020016002820154815260200160038201805461151e906122df565b80601f016020809104026020016040519081016040528092919081815260200182805461154a906122df565b80156115955780601f1061156c57610100808354040283529160200191611595565b820191905f5260205f20905b81548152906001019060200180831161157857829003601f168201915b505050505081526020016004820180546115ae906122df565b80601f01602080910402602001604051908101604052809291908181526020018280546115da906122df565b80156116255780601f106115fc57610100808354040283529160200191611625565b820191905f5260205f20905b81548152906001019060200180831161160857829003601f168201915b5050505050815260200160058201548152602001600682016040518060e00160405290815f8201548152602001600182018054611661906122df565b80601f016020809104026020016040519081016040528092919081815260200182805461168d906122df565b80156116d85780601f106116af576101008083540402835291602001916116d8565b820191905f5260205f20905b8154815290600101906020018083116116bb57829003601f168201915b50505050508152602001600282015f9054906101000a900460ff16600481111561170557611704611c2f565b5b600481111561171757611716611c2f565b5b81526020016002820160019054906101000a900460ff161515151581526020016002820160029054906101000a900460ff16151515158152602001600382018054611761906122df565b80601f016020809104026020016040519081016040528092919081815260200182805461178d906122df565b80156117d85780601f106117af576101008083540402835291602001916117d8565b820191905f5260205f20905b8154815290600101906020018083116117bb57829003601f168201915b5050505050815260200160048201548152505081525050815260200190600101906113c4565b50505050905090565b6040518060e0016040528060608152602001606081526020015f815260200160608152602001606081526020015f8152602001611842611848565b81525090565b6040518060e001604052805f8152602001606081526020015f600481111561187357611872611c2f565b5b81526020015f151581526020015f15158152602001606081526020015f81525090565b5f73ffffffffffffffffffffffffffffffffffffffff82169050919050565b5f6118bf82611896565b9050919050565b6118cf816118b5565b82525050565b5f6020820190506118e85f8301846118c6565b92915050565b5f604051905090565b5f80fd5b5f80fd5b5f819050919050565b611911816118ff565b811461191b575f80fd5b50565b5f8135905061192c81611908565b92915050565b5f80fd5b5f80fd5b5f601f19601f8301169050919050565b7f4e487b71000000000000000000000000000000000000000000000000000000005f52604160045260245ffd5b6119808261193a565b810181811067ffffffffffffffff8211171561199f5761199e61194a565b5b80604052505050565b5f6119b16118ee565b90506119bd8282611977565b919050565b5f67ffffffffffffffff8211156119dc576119db61194a565b5b6119e58261193a565b9050602081019050919050565b828183375f83830152505050565b5f611a12611a0d846119c2565b6119a8565b905082815260208101848484011115611a2e57611a2d611936565b5b611a398482856119f2565b509392505050565b5f82601f830112611a5557611a54611932565b5b8135611a65848260208601611a00565b91505092915050565b5f805f805f805f60e0888a031215611a8957611a886118f7565b5b5f611a968a828b0161191e565b975050602088013567ffffffffffffffff811115611ab757611ab66118fb565b5b611ac38a828b01611a41565b965050604088013567ffffffffffffffff811115611ae457611ae36118fb565b5b611af08a828b01611a41565b9550506060611b018a828b0161191e565b945050608088013567ffffffffffffffff811115611b2257611b216118fb565b5b611b2e8a828b01611a41565b93505060a088013567ffffffffffffffff811115611b4f57611b4e6118fb565b5b611b5b8a828b01611a41565b92505060c0611b6c8a828b0161191e565b91505092959891949750929550565b5f60208284031215611b9057611b8f6118f7565b5b5f611b9d8482850161191e565b91505092915050565b5f81519050919050565b5f82825260208201905092915050565b5f5b83811015611bdd578082015181840152602081019050611bc2565b5f8484015250505050565b5f611bf282611ba6565b611bfc8185611bb0565b9350611c0c818560208601611bc0565b611c158161193a565b840191505092915050565b611c29816118ff565b82525050565b7f4e487b71000000000000000000000000000000000000000000000000000000005f52602160045260245ffd5b60058110611c6d57611c6c611c2f565b5b50565b5f819050611c7d82611c5c565b919050565b5f611c8c82611c70565b9050919050565b611c9c81611c82565b82525050565b5f8115159050919050565b611cb681611ca2565b82525050565b5f60e083015f830151611cd15f860182611c20565b5060208301518482036020860152611ce98282611be8565b9150506040830151611cfe6040860182611c93565b506060830151611d116060860182611cad565b506080830151611d246080860182611cad565b5060a083015184820360a0860152611d3c8282611be8565b91505060c0830151611d5160c0860182611c20565b508091505092915050565b5f60e083015f8301518482035f860152611d768282611be8565b91505060208301518482036020860152611d908282611be8565b9150506040830151611da56040860182611c20565b5060608301518482036060860152611dbd8282611be8565b91505060808301518482036080860152611dd78282611be8565b91505060a0830151611dec60a0860182611c20565b5060c083015184820360c0860152611e048282611cbc565b9150508091505092915050565b5f6020820190508181035f830152611e298184611d5c565b905092915050565b611e3a81611ca2565b8114611e44575f80fd5b50565b5f81359050611e5581611e31565b92915050565b611e64816118b5565b8114611e6e575f80fd5b50565b5f81359050611e7f81611e5b565b92915050565b5f805f60608486031215611e9c57611e9b6118f7565b5b5f611ea98682870161191e565b9350506020611eba86828701611e47565b9250506040611ecb86828701611e71565b9150509250925092565b611ede81611ca2565b82525050565b5f82825260208201905092915050565b5f611efe82611ba6565b611f088185611ee4565b9350611f18818560208601611bc0565b611f218161193a565b840191505092915050565b5f604082019050611f3f5f830185611ed5565b8181036020830152611f518184611ef4565b90509392505050565b611f63816118ff565b82525050565b5f60e083015f830151611f7e5f860182611c20565b5060208301518482036020860152611f968282611be8565b9150506040830151611fab6040860182611c93565b506060830151611fbe6060860182611cad565b506080830151611fd16080860182611cad565b5060a083015184820360a0860152611fe98282611be8565b91505060c0830151611ffe60c0860182611c20565b508091505092915050565b5f60e0820190508181035f830152612021818a611ef4565b905081810360208301526120358189611ef4565b90506120446040830188611f5a565b81810360608301526120568187611ef4565b9050818103608083015261206a8186611ef4565b905061207960a0830185611f5a565b81810360c083015261208b8184611f69565b905098975050505050505050565b5f81519050919050565b5f82825260208201905092915050565b5f819050602082019050919050565b5f60e083015f8301518482035f8601526120dc8282611be8565b915050602083015184820360208601526120f68282611be8565b915050604083015161210b6040860182611c20565b50606083015184820360608601526121238282611be8565b9150506080830151848203608086015261213d8282611be8565b91505060a083015161215260a0860182611c20565b5060c083015184820360c086015261216a8282611cbc565b9150508091505092915050565b5f61218283836120c2565b905092915050565b5f602082019050919050565b5f6121a082612099565b6121aa81856120a3565b9350836020820285016121bc856120b3565b805f5b858110156121f757848403895281516121d88582612177565b94506121e38361218a565b925060208a019950506001810190506121bf565b50829750879550505050505092915050565b5f6020820190508181035f8301526122218184612196565b905092915050565b5f60e0820190508181035f830152612241818a611ef4565b905081810360208301526122558189611ef4565b90506122646040830188611f5a565b81810360608301526122768187611ef4565b9050818103608083015261228a8186611ef4565b905061229960a0830185611f5a565b6122a660c0830184611f5a565b98975050505050505050565b7f4e487b71000000000000000000000000000000000000000000000000000000005f52602260045260245ffd5b5f60028204905060018216806122f657607f821691505b602082108103612309576123086122b2565b5b50919050565b5f819050815f5260205f209050919050565b5f6020601f8301049050919050565b5f82821b905092915050565b5f6008830261236b7fffffffffffffffffffffffffffffffffffffffffffffffffffffffffffffffff82612330565b6123758683612330565b95508019841693508086168417925050509392505050565b5f819050919050565b5f6123b06123ab6123a6846118ff565b61238d565b6118ff565b9050919050565b5f819050919050565b6123c983612396565b6123dd6123d5826123b7565b84845461233c565b825550505050565b5f90565b6123f16123e5565b6123fc8184846123c0565b505050565b5b8181101561241f576124145f826123e9565b600181019050612402565b5050565b601f821115612464576124358161230f565b61243e84612321565b8101602085101561244d578190505b61246161245985612321565b830182612401565b50505b505050565b5f82821c905092915050565b5f6124845f1984600802612469565b1980831691505092915050565b5f61249c8383612475565b9150826002028217905092915050565b6124b582611ba6565b67ffffffffffffffff8111156124ce576124cd61194a565b5b6124d882546122df565b6124e3828285612423565b5f60209050601f831160018114612514575f8415612502578287015190505b61250c8582612491565b865550612573565b601f1984166125228661230f565b5f5b8281101561254957848901518255600182019150602085019450602081019050612524565b868310156125665784890151612562601f891682612475565b8355505b6001600288020188555050505b505050505050565b7f4e487b71000000000000000000000000000000000000000000000000000000005f52603260045260245ffd5b7f4e487b71000000000000000000000000000000000000000000000000000000005f52601160045260245ffd5b5f6125df826118ff565b91507fffffffffffffffffffffffffffffffffffffffffffffffffffffffffffffffff8203612611576126106125a8565b5b600182019050919050565b5f612626826118ff565b9150612631836118ff565b925082820261263f816118ff565b91508282048414831517612656576126556125a8565b5b5092915050565b5f612667826118ff565b9150612672836118ff565b925082820390508181111561268a576126896125a8565b5b92915050565b5f61269a826118ff565b91506126a5836118ff565b92508282019050808211156126bd576126bc6125a8565b5b9291505056fe50656e616c74792063616c63756c6174696f6e2066756e6374696f6e2063616c6c6564a2646970667358221220648268aafa7ee71a32b5f8ebfcea072034c242faa2c88e4a3c87ece2d4fa837f64736f6c63430008140033",
  "immutableReferences": {},
  "source": "// SPDX-License-Identifier: GPL-3.0\npragma solidity >=0.7.0 <0.9.0;\n\nimport \"./MilestoneContract.sol\";\n\ncontract EscrowContract is MilestoneContract {\n    //Purchaser, Provider and MO addresses\n    address payable public purchaser_address;\n    address payable public provider_address;\n    address payable public mo_address;\n\n    address payable public creditAddress;\n\n    // Constructor with arguments\n    constructor(\n        address payable _provider_address,\n        address payable _mo_address,\n        address payable _purchaser_address,\n        address payable _creditAddress\n    ) {\n        provider_address = _provider_address;\n        mo_address = _mo_address;\n        purchaser_address = _purchaser_address;\n        creditAddress = _creditAddress;\n    }\n}\n",
  "sourcePath": "/Users/ravisatyam/Desktop/ravi/escrow-final/contracts/EscrowContract.sol",
  "compiler": {
    "name": "solc",
    "version": "0.8.20+commit.a1b79de6.Emscripten.clang"
  },
  "schemaVersion": "3.4.14",
  "updatedAt": "2023-06-28T09:34:23.767Z",
  "devdoc": {
    "kind": "dev",
    "methods": {},
    "version": 1
  },
  "userdoc": {
    "kind": "user",
    "methods": {},
    "version": 1
  }
}