{
  "contractName": "EscrowContract",
  "abi": [
    {
      "inputs": [
        {
          "internalType": "address payable",
          "name": "_provider_address",
          "type": "address"
        },
        {
          "internalType": "address payable",
          "name": "_mo_address",
          "type": "address"
        },
        {
          "internalType": "address payable",
          "name": "_purchaser_address",
          "type": "address"
        }
      ],
      "stateMutability": "nonpayable",
      "type": "constructor"
    },
    {
      "stateMutability": "payable",
      "type": "fallback"
    },
    {
      "inputs": [],
      "name": "contract_address",
      "outputs": [
        {
          "internalType": "address payable",
          "name": "",
          "type": "address"
        }
      ],
      "stateMutability": "view",
      "type": "function"
    },
    {
      "inputs": [],
      "name": "mo_address",
      "outputs": [
        {
          "internalType": "address payable",
          "name": "",
          "type": "address"
        }
      ],
      "stateMutability": "view",
      "type": "function"
    },
    {
      "inputs": [
        {
          "internalType": "address payable",
          "name": "_providerAddress",
          "type": "address"
        },
        {
          "internalType": "uint256",
          "name": "_amount",
          "type": "uint256"
        },
        {
          "internalType": "address payable",
          "name": "contract_address",
          "type": "address"
        }
      ],
      "name": "payout",
      "outputs": [],
      "stateMutability": "nonpayable",
      "type": "function"
    },
    {
      "inputs": [],
      "name": "provider_address",
      "outputs": [
        {
          "internalType": "address payable",
          "name": "",
          "type": "address"
        }
      ],
      "stateMutability": "view",
      "type": "function"
    },
    {
      "inputs": [],
      "name": "purchaser_address",
      "outputs": [
        {
          "internalType": "address payable",
          "name": "",
          "type": "address"
        }
      ],
      "stateMutability": "view",
      "type": "function"
    },
    {
      "inputs": [
        {
          "internalType": "address payable",
          "name": "_purhaserAddress",
          "type": "address"
        },
        {
          "internalType": "address payable",
          "name": "contract_address",
          "type": "address"
        }
      ],
      "name": "releaseFreeBalance",
      "outputs": [],
      "stateMutability": "nonpayable",
      "type": "function"
    },
    {
      "stateMutability": "payable",
      "type": "receive"
    }
  ],
  "bytecode": "0x60806040523060035f6101000a81548173ffffffffffffffffffffffffffffffffffffffff021916908373ffffffffffffffffffffffffffffffffffffffff16021790555034801561004f575f80fd5b506040516106b13803806106b183398181016040528101906100719190610196565b8260015f6101000a81548173ffffffffffffffffffffffffffffffffffffffff021916908373ffffffffffffffffffffffffffffffffffffffff1602179055508160025f6101000a81548173ffffffffffffffffffffffffffffffffffffffff021916908373ffffffffffffffffffffffffffffffffffffffff160217905550805f806101000a81548173ffffffffffffffffffffffffffffffffffffffff021916908373ffffffffffffffffffffffffffffffffffffffff1602179055505050506101e6565b5f80fd5b5f73ffffffffffffffffffffffffffffffffffffffff82169050919050565b5f6101658261013c565b9050919050565b6101758161015b565b811461017f575f80fd5b50565b5f815190506101908161016c565b92915050565b5f805f606084860312156101ad576101ac610138565b5b5f6101ba86828701610182565b93505060206101cb86828701610182565b92505060406101dc86828701610182565b9150509250925092565b6104be806101f35f395ff3fe608060405260043610610058575f3560e01c80630e5630c11461006157806327b238af1461008b5780634aa8cf3f146100b5578063966b3514146100df578063cbc8ea8c14610109578063d717cf27146101315761005f565b3661005f57005b005b34801561006c575f80fd5b50610075610159565b6040516100829190610320565b60405180910390f35b348015610096575f80fd5b5061009f61017e565b6040516100ac9190610320565b60405180910390f35b3480156100c0575f80fd5b506100c96101a3565b6040516100d69190610320565b60405180910390f35b3480156100ea575f80fd5b506100f36101c6565b6040516101009190610320565b60405180910390f35b348015610114575f80fd5b5061012f600480360381019061012a919061039a565b6101eb565b005b34801561013c575f80fd5b50610157600480360381019061015291906103ea565b61027d565b005b60015f9054906101000a900473ffffffffffffffffffffffffffffffffffffffff1681565b60025f9054906101000a900473ffffffffffffffffffffffffffffffffffffffff1681565b5f8054906101000a900473ffffffffffffffffffffffffffffffffffffffff1681565b60035f9054906101000a900473ffffffffffffffffffffffffffffffffffffffff1681565b5f828273ffffffffffffffffffffffffffffffffffffffff163161020f9190610455565b8273ffffffffffffffffffffffffffffffffffffffff16316102319190610455565b90508373ffffffffffffffffffffffffffffffffffffffff166108fc8290811502906040515f60405180830381858888f19350505050158015610276573d5f803e3d5ffd5b5050505050565b5f8173ffffffffffffffffffffffffffffffffffffffff163190508273ffffffffffffffffffffffffffffffffffffffff166108fc8290811502906040515f60405180830381858888f193505050501580156102db573d5f803e3d5ffd5b50505050565b5f73ffffffffffffffffffffffffffffffffffffffff82169050919050565b5f61030a826102e1565b9050919050565b61031a81610300565b82525050565b5f6020820190506103335f830184610311565b92915050565b5f80fd5b61034681610300565b8114610350575f80fd5b50565b5f813590506103618161033d565b92915050565b5f819050919050565b61037981610367565b8114610383575f80fd5b50565b5f8135905061039481610370565b92915050565b5f805f606084860312156103b1576103b0610339565b5b5f6103be86828701610353565b93505060206103cf86828701610386565b92505060406103e086828701610353565b9150509250925092565b5f8060408385031215610400576103ff610339565b5b5f61040d85828601610353565b925050602061041e85828601610353565b9150509250929050565b7f4e487b71000000000000000000000000000000000000000000000000000000005f52601160045260245ffd5b5f61045f82610367565b915061046a83610367565b925082820390508181111561048257610481610428565b5b9291505056fea26469706673582212202774edbc5f01f693409faffbe237a9271b6aceea320292276b1b8ca3c82fed0b64736f6c63430008140033",
  "immutableReferences": {},
  "source": "// SPDX-License-Identifier: GPL-3.0\npragma solidity >=0.7.0 <0.9.0;\nimport \"./PaymentContract.sol\";\n\ncontract EscrowContract is PaymentContract {\n\n    //Purchaser, Provider and MO addresses\n    address payable public purchaser_address;\n    address payable public provider_address;\n    address payable public mo_address;\n    address payable public contract_address = payable(address(this));\n\n    \n    // address public contract_address = address(this);\n   // uint256 public balance1 = 100;\n   // uint256 public allocatedBalance;\n\n\n    // Constructor with arguments \n    constructor(address payable _provider_address, address payable _mo_address,address payable _purchaser_address) {\n        //purchaser_address = payable(msg.sender);\n        provider_address = _provider_address;\n        mo_address = _mo_address;\n        purchaser_address=_purchaser_address;\n       \n    }\n   \n    \n\n     // Modifier declaration \n\n    modifier onlyPurchaser() {\n        require(msg.sender == purchaser_address);\n        _;\n    }\n\n    modifier onlyProvider() {\n        require(msg.sender == provider_address);\n        _;\n    }\n    modifier onlyMO() {\n        require(msg.sender == mo_address);\n        _;\n    }\n//   function getBalance() public view returns (uint) {\n  \n//         return address(this).balance;\n\n// }\n}",
  "sourcePath": "/Users/amritakumari/Documents/escrow-final-draft/contracts/EscrowContract.sol",
  "compiler": {
    "name": "solc",
    "version": "0.8.20+commit.a1b79de6.Emscripten.clang"
  },
  "schemaVersion": "3.4.14",
  "updatedAt": "2023-06-27T17:50:44.228Z",
  "devdoc": {
    "kind": "dev",
    "methods": {},
    "version": 1
  },
  "userdoc": {
    "kind": "user",
    "methods": {},
    "version": 1
  }
}