{
  "contractName": "EscrowContract",
  "abi": [
    {
      "inputs": [
        {
          "internalType": "address payable",
          "name": "_provider_address",
          "type": "address"
        },
        {
          "internalType": "address payable",
          "name": "_mo_address",
          "type": "address"
        },
        {
          "internalType": "address payable",
          "name": "_purchaser_address",
          "type": "address"
        },
        {
          "internalType": "address payable",
          "name": "_creditAddress",
          "type": "address"
        }
      ],
      "stateMutability": "nonpayable",
      "type": "constructor"
    },
    {
      "anonymous": false,
      "inputs": [
        {
          "indexed": false,
          "internalType": "string",
          "name": "descriptionFileHash",
          "type": "string"
        },
        {
          "indexed": false,
          "internalType": "string",
          "name": "title",
          "type": "string"
        },
        {
          "indexed": false,
          "internalType": "uint256",
          "name": "budget",
          "type": "uint256"
        },
        {
          "indexed": false,
          "internalType": "string",
          "name": "initDate",
          "type": "string"
        },
        {
          "indexed": false,
          "internalType": "string",
          "name": "dueDate",
          "type": "string"
        },
        {
          "indexed": false,
          "internalType": "uint256",
          "name": "numberRevisions",
          "type": "uint256"
        },
        {
          "indexed": false,
          "internalType": "uint256",
          "name": "msId",
          "type": "uint256"
        }
      ],
      "name": "milestoneList",
      "type": "event"
    },
    {
      "anonymous": false,
      "inputs": [
        {
          "indexed": false,
          "internalType": "enum State",
          "name": "state",
          "type": "uint8"
        }
      ],
      "name": "trackState",
      "type": "event"
    },
    {
      "inputs": [
        {
          "internalType": "uint256",
          "name": "msId",
          "type": "uint256"
        },
        {
          "internalType": "string",
          "name": "_descriptionFileHash",
          "type": "string"
        },
        {
          "internalType": "string",
          "name": "_title",
          "type": "string"
        },
        {
          "internalType": "uint256",
          "name": "_budget",
          "type": "uint256"
        },
        {
          "internalType": "string",
          "name": "_initDate",
          "type": "string"
        },
        {
          "internalType": "string",
          "name": "_dueDate",
          "type": "string"
        },
        {
          "internalType": "uint256",
          "name": "_numberRevisions",
          "type": "uint256"
        }
      ],
      "name": "addMilestone",
      "outputs": [],
      "stateMutability": "nonpayable",
      "type": "function"
    },
    {
      "inputs": [
        {
          "internalType": "uint256",
          "name": "_id",
          "type": "uint256"
        }
      ],
      "name": "changeMS_state",
      "outputs": [],
      "stateMutability": "nonpayable",
      "type": "function"
    },
    {
      "inputs": [],
      "name": "creditAddress",
      "outputs": [
        {
          "internalType": "address payable",
          "name": "",
          "type": "address"
        }
      ],
      "stateMutability": "view",
      "type": "function"
    },
    {
      "inputs": [
        {
          "internalType": "uint256",
          "name": "",
          "type": "uint256"
        }
      ],
      "name": "milestonesList",
      "outputs": [
        {
          "internalType": "string",
          "name": "descriptionFileHash",
          "type": "string"
        },
        {
          "internalType": "string",
          "name": "title",
          "type": "string"
        },
        {
          "internalType": "uint256",
          "name": "budget",
          "type": "uint256"
        },
        {
          "internalType": "string",
          "name": "initDate",
          "type": "string"
        },
        {
          "internalType": "string",
          "name": "dueDate",
          "type": "string"
        },
        {
          "internalType": "uint256",
          "name": "numberRevisions",
          "type": "uint256"
        },
        {
          "components": [
            {
              "internalType": "uint256",
              "name": "msId",
              "type": "uint256"
            },
            {
              "internalType": "string",
              "name": "descriptionFileLink",
              "type": "string"
            },
            {
              "internalType": "enum State",
              "name": "state",
              "type": "uint8"
            },
            {
              "internalType": "bool",
              "name": "isApproved",
              "type": "bool"
            },
            {
              "internalType": "bool",
              "name": "isclosed",
              "type": "bool"
            },
            {
              "internalType": "string",
              "name": "resolveTime",
              "type": "string"
            },
            {
              "internalType": "uint256",
              "name": "revisionCounter",
              "type": "uint256"
            }
          ],
          "internalType": "struct MilestoneRequired",
          "name": "ms_req",
          "type": "tuple"
        }
      ],
      "stateMutability": "view",
      "type": "function"
    },
    {
      "inputs": [],
      "name": "mo_address",
      "outputs": [
        {
          "internalType": "address payable",
          "name": "",
          "type": "address"
        }
      ],
      "stateMutability": "view",
      "type": "function"
    },
    {
      "inputs": [],
      "name": "provider_address",
      "outputs": [
        {
          "internalType": "address payable",
          "name": "",
          "type": "address"
        }
      ],
      "stateMutability": "view",
      "type": "function"
    },
    {
      "inputs": [],
      "name": "purchaser_address",
      "outputs": [
        {
          "internalType": "address payable",
          "name": "",
          "type": "address"
        }
      ],
      "stateMutability": "view",
      "type": "function"
    }
  ],
  "bytecode": "0x608060405234801562000010575f80fd5b50604051620017af380380620017af8339818101604052810190620000369190620001a5565b8360035f6101000a81548173ffffffffffffffffffffffffffffffffffffffff021916908373ffffffffffffffffffffffffffffffffffffffff1602179055508260045f6101000a81548173ffffffffffffffffffffffffffffffffffffffff021916908373ffffffffffffffffffffffffffffffffffffffff1602179055508160025f6101000a81548173ffffffffffffffffffffffffffffffffffffffff021916908373ffffffffffffffffffffffffffffffffffffffff1602179055508060055f6101000a81548173ffffffffffffffffffffffffffffffffffffffff021916908373ffffffffffffffffffffffffffffffffffffffff1602179055505050505062000214565b5f80fd5b5f73ffffffffffffffffffffffffffffffffffffffff82169050919050565b5f6200016f8262000144565b9050919050565b620001818162000163565b81146200018c575f80fd5b50565b5f815190506200019f8162000176565b92915050565b5f805f8060808587031215620001c057620001bf62000140565b5b5f620001cf878288016200018f565b9450506020620001e2878288016200018f565b9350506040620001f5878288016200018f565b925050606062000208878288016200018f565b91505092959194509250565b61158d80620002225f395ff3fe608060405234801561000f575f80fd5b506004361061007b575f3560e01c806327b238af1161005957806327b238af146100d75780634aa8cf3f146100f557806372a207d714610113578063cbda494a1461012f5761007b565b80630e5630c11461007f5780631053c9981461009d578063148f90bb146100b9575b5f80fd5b610087610165565b6040516100949190610bce565b60405180910390f35b6100b760048036038101906100b29190610d67565b61018a565b005b6100c161059e565b6040516100ce9190610bce565b60405180910390f35b6100df6105c3565b6040516100ec9190610bce565b60405180910390f35b6100fd6105e8565b60405161010a9190610bce565b60405180910390f35b61012d60048036038101906101289190610e74565b61060d565b005b61014960048036038101906101449190610e74565b6106ef565b60405161015c97969594939291906110ac565b60405180910390f35b60035f9054906101000a900473ffffffffffffffffffffffffffffffffffffffff1681565b610192610b00565b86815f018190525085816020018190525084816040018181525050838160600181905250828160800181905250818160a00181815250506101d1610b41565b88815f0181815250506040518060400160405280600e81526020017f7777772e676f6f676c652e636f6d00000000000000000000000000000000000081525081602001819052505f816040019060048111156102305761022f610f7f565b5b9081600481111561024457610243610f7f565b5b815250505f8160600190151590811515815250505f81608001901515908115158152505060405180602001604052805f8152508160a001819052505f8160c00181815250507fbddb1ceede154cb7fd51c2c105c4cd9fdeca47d52399300d8f94c97e63c34dcd8888888888888f6040516102c4979695949392919061113c565b60405180910390a17fe445fe19a5560afd2e3f14077cfb0f37708a6571ef78da21df8436ebfed3be2f81604001516040516102ff91906111d4565b60405180910390a1808260c001819052508160015f8b81526020019081526020015f205f820151815f01908161033591906113e7565b50602082015181600101908161034b91906113e7565b5060408201518160020155606082015181600301908161036b91906113e7565b50608082015181600401908161038191906113e7565b5060a0820151816005015560c0820151816006015f820151815f015560208201518160010190816103b291906113e7565b506040820151816002015f6101000a81548160ff021916908360048111156103dd576103dc610f7f565b5b021790555060608201518160020160016101000a81548160ff02191690831515021790555060808201518160020160026101000a81548160ff02191690831515021790555060a082015181600301908161043791906113e7565b5060c0820151816004015550509050505f82908060018154018082558091505060019003905f5260205f2090600b02015f909190919091505f820151815f01908161048291906113e7565b50602082015181600101908161049891906113e7565b506040820151816002015560608201518160030190816104b891906113e7565b5060808201518160040190816104ce91906113e7565b5060a0820151816005015560c0820151816006015f820151815f015560208201518160010190816104ff91906113e7565b506040820151816002015f6101000a81548160ff0219169083600481111561052a57610529610f7f565b5b021790555060608201518160020160016101000a81548160ff02191690831515021790555060808201518160020160026101000a81548160ff02191690831515021790555060a082015181600301908161058491906113e7565b5060c0820151816004015550505050505050505050505050565b60055f9054906101000a900473ffffffffffffffffffffffffffffffffffffffff1681565b60045f9054906101000a900473ffffffffffffffffffffffffffffffffffffffff1681565b60025f9054906101000a900473ffffffffffffffffffffffffffffffffffffffff1681565b5f5b5f805490508110156106a757815f828154811061062f5761062e6114b6565b5b905f5260205f2090600b02016006015f0154036106945760025f828154811061065b5761065a6114b6565b5b905f5260205f2090600b02016006016002015f6101000a81548160ff0219169083600481111561068e5761068d610f7f565b5b02179055505b808061069f90611510565b91505061060f565b505f60015f8381526020019081526020015f2090506002816006016002015f6101000a81548160ff021916908360048111156106e6576106e5610f7f565b5b02179055505050565b5f81815481106106fd575f80fd5b905f5260205f2090600b02015f91509050805f01805461071c9061121a565b80601f01602080910402602001604051908101604052809291908181526020018280546107489061121a565b80156107935780601f1061076a57610100808354040283529160200191610793565b820191905f5260205f20905b81548152906001019060200180831161077657829003601f168201915b5050505050908060010180546107a89061121a565b80601f01602080910402602001604051908101604052809291908181526020018280546107d49061121a565b801561081f5780601f106107f65761010080835404028352916020019161081f565b820191905f5260205f20905b81548152906001019060200180831161080257829003601f168201915b50505050509080600201549080600301805461083a9061121a565b80601f01602080910402602001604051908101604052809291908181526020018280546108669061121a565b80156108b15780601f10610888576101008083540402835291602001916108b1565b820191905f5260205f20905b81548152906001019060200180831161089457829003601f168201915b5050505050908060040180546108c69061121a565b80601f01602080910402602001604051908101604052809291908181526020018280546108f29061121a565b801561093d5780601f106109145761010080835404028352916020019161093d565b820191905f5260205f20905b81548152906001019060200180831161092057829003601f168201915b505050505090806005015490806006016040518060e00160405290815f82015481526020016001820180546109719061121a565b80601f016020809104026020016040519081016040528092919081815260200182805461099d9061121a565b80156109e85780601f106109bf576101008083540402835291602001916109e8565b820191905f5260205f20905b8154815290600101906020018083116109cb57829003601f168201915b50505050508152602001600282015f9054906101000a900460ff166004811115610a1557610a14610f7f565b5b6004811115610a2757610a26610f7f565b5b81526020016002820160019054906101000a900460ff161515151581526020016002820160029054906101000a900460ff16151515158152602001600382018054610a719061121a565b80601f0160208091040260200160405190810160405280929190818152602001828054610a9d9061121a565b8015610ae85780601f10610abf57610100808354040283529160200191610ae8565b820191905f5260205f20905b815481529060010190602001808311610acb57829003601f168201915b50505050508152602001600482015481525050905087565b6040518060e0016040528060608152602001606081526020015f815260200160608152602001606081526020015f8152602001610b3b610b41565b81525090565b6040518060e001604052805f8152602001606081526020015f6004811115610b6c57610b6b610f7f565b5b81526020015f151581526020015f15158152602001606081526020015f81525090565b5f73ffffffffffffffffffffffffffffffffffffffff82169050919050565b5f610bb882610b8f565b9050919050565b610bc881610bae565b82525050565b5f602082019050610be15f830184610bbf565b92915050565b5f604051905090565b5f80fd5b5f80fd5b5f819050919050565b610c0a81610bf8565b8114610c14575f80fd5b50565b5f81359050610c2581610c01565b92915050565b5f80fd5b5f80fd5b5f601f19601f8301169050919050565b7f4e487b71000000000000000000000000000000000000000000000000000000005f52604160045260245ffd5b610c7982610c33565b810181811067ffffffffffffffff82111715610c9857610c97610c43565b5b80604052505050565b5f610caa610be7565b9050610cb68282610c70565b919050565b5f67ffffffffffffffff821115610cd557610cd4610c43565b5b610cde82610c33565b9050602081019050919050565b828183375f83830152505050565b5f610d0b610d0684610cbb565b610ca1565b905082815260208101848484011115610d2757610d26610c2f565b5b610d32848285610ceb565b509392505050565b5f82601f830112610d4e57610d4d610c2b565b5b8135610d5e848260208601610cf9565b91505092915050565b5f805f805f805f60e0888a031215610d8257610d81610bf0565b5b5f610d8f8a828b01610c17565b975050602088013567ffffffffffffffff811115610db057610daf610bf4565b5b610dbc8a828b01610d3a565b965050604088013567ffffffffffffffff811115610ddd57610ddc610bf4565b5b610de98a828b01610d3a565b9550506060610dfa8a828b01610c17565b945050608088013567ffffffffffffffff811115610e1b57610e1a610bf4565b5b610e278a828b01610d3a565b93505060a088013567ffffffffffffffff811115610e4857610e47610bf4565b5b610e548a828b01610d3a565b92505060c0610e658a828b01610c17565b91505092959891949750929550565b5f60208284031215610e8957610e88610bf0565b5b5f610e9684828501610c17565b91505092915050565b5f81519050919050565b5f82825260208201905092915050565b5f5b83811015610ed6578082015181840152602081019050610ebb565b5f8484015250505050565b5f610eeb82610e9f565b610ef58185610ea9565b9350610f05818560208601610eb9565b610f0e81610c33565b840191505092915050565b610f2281610bf8565b82525050565b610f3181610bf8565b82525050565b5f82825260208201905092915050565b5f610f5182610e9f565b610f5b8185610f37565b9350610f6b818560208601610eb9565b610f7481610c33565b840191505092915050565b7f4e487b71000000000000000000000000000000000000000000000000000000005f52602160045260245ffd5b60058110610fbd57610fbc610f7f565b5b50565b5f819050610fcd82610fac565b919050565b5f610fdc82610fc0565b9050919050565b610fec81610fd2565b82525050565b5f8115159050919050565b61100681610ff2565b82525050565b5f60e083015f8301516110215f860182610f28565b50602083015184820360208601526110398282610f47565b915050604083015161104e6040860182610fe3565b5060608301516110616060860182610ffd565b5060808301516110746080860182610ffd565b5060a083015184820360a086015261108c8282610f47565b91505060c08301516110a160c0860182610f28565b508091505092915050565b5f60e0820190508181035f8301526110c4818a610ee1565b905081810360208301526110d88189610ee1565b90506110e76040830188610f19565b81810360608301526110f98187610ee1565b9050818103608083015261110d8186610ee1565b905061111c60a0830185610f19565b81810360c083015261112e818461100c565b905098975050505050505050565b5f60e0820190508181035f830152611154818a610ee1565b905081810360208301526111688189610ee1565b90506111776040830188610f19565b81810360608301526111898187610ee1565b9050818103608083015261119d8186610ee1565b90506111ac60a0830185610f19565b6111b960c0830184610f19565b98975050505050505050565b6111ce81610fd2565b82525050565b5f6020820190506111e75f8301846111c5565b92915050565b7f4e487b71000000000000000000000000000000000000000000000000000000005f52602260045260245ffd5b5f600282049050600182168061123157607f821691505b602082108103611244576112436111ed565b5b50919050565b5f819050815f5260205f209050919050565b5f6020601f8301049050919050565b5f82821b905092915050565b5f600883026112a67fffffffffffffffffffffffffffffffffffffffffffffffffffffffffffffffff8261126b565b6112b0868361126b565b95508019841693508086168417925050509392505050565b5f819050919050565b5f6112eb6112e66112e184610bf8565b6112c8565b610bf8565b9050919050565b5f819050919050565b611304836112d1565b611318611310826112f2565b848454611277565b825550505050565b5f90565b61132c611320565b6113378184846112fb565b505050565b5b8181101561135a5761134f5f82611324565b60018101905061133d565b5050565b601f82111561139f576113708161124a565b6113798461125c565b81016020851015611388578190505b61139c6113948561125c565b83018261133c565b50505b505050565b5f82821c905092915050565b5f6113bf5f19846008026113a4565b1980831691505092915050565b5f6113d783836113b0565b9150826002028217905092915050565b6113f082610e9f565b67ffffffffffffffff81111561140957611408610c43565b5b611413825461121a565b61141e82828561135e565b5f60209050601f83116001811461144f575f841561143d578287015190505b61144785826113cc565b8655506114ae565b601f19841661145d8661124a565b5f5b828110156114845784890151825560018201915060208501945060208101905061145f565b868310156114a1578489015161149d601f8916826113b0565b8355505b6001600288020188555050505b505050505050565b7f4e487b71000000000000000000000000000000000000000000000000000000005f52603260045260245ffd5b7f4e487b71000000000000000000000000000000000000000000000000000000005f52601160045260245ffd5b5f61151a82610bf8565b91507fffffffffffffffffffffffffffffffffffffffffffffffffffffffffffffffff820361154c5761154b6114e3565b5b60018201905091905056fea26469706673582212200875c678ff548e3666181ff7fc035ab645d41afa973e5398dc4d7b6ec237c92964736f6c63430008140033",
  "immutableReferences": {},
  "source": "// SPDX-License-Identifier: GPL-3.0\npragma solidity >=0.7.0 <0.9.0;\n\nimport \"./MilestoneContract.sol\";\n\ncontract EscrowContract is MilestoneContract {\n    //Purchaser, Provider and MO addresses\n    address payable public purchaser_address;\n    address payable public provider_address;\n    address payable public mo_address;\n\n    address payable public creditAddress;\n\n    // Constructor with arguments\n    constructor(\n        address payable _provider_address,\n        address payable _mo_address,\n        address payable _purchaser_address,\n        address payable _creditAddress\n    ) {\n        provider_address = _provider_address;\n        mo_address = _mo_address;\n        purchaser_address = _purchaser_address;\n        creditAddress = _creditAddress;\n    }\n}\n",
  "sourcePath": "/Users/ravisatyam/Desktop/ravi/escrow-final/contracts/EscrowContract.sol",
  "compiler": {
    "name": "solc",
    "version": "0.8.20+commit.a1b79de6.Emscripten.clang"
  },
  "schemaVersion": "3.4.14",
  "updatedAt": "2023-06-26T11:30:58.898Z",
  "devdoc": {
    "kind": "dev",
    "methods": {},
    "version": 1
  },
  "userdoc": {
    "kind": "user",
    "methods": {},
    "version": 1
  }
}