{
  "contractName": "EscrowContract",
  "abi": [
    {
      "inputs": [
        {
          "internalType": "address payable",
          "name": "_provider_address",
          "type": "address"
        },
        {
          "internalType": "address payable",
          "name": "_mo_address",
          "type": "address"
        },
        {
          "internalType": "address payable",
          "name": "_purchaser_address",
          "type": "address"
        },
        {
          "internalType": "address payable",
          "name": "_creditAddress",
          "type": "address"
        }
      ],
      "stateMutability": "nonpayable",
      "type": "constructor"
    },
    {
      "anonymous": false,
      "inputs": [
        {
          "indexed": false,
          "internalType": "string",
          "name": "descriptionFileHash",
          "type": "string"
        },
        {
          "indexed": false,
          "internalType": "string",
          "name": "title",
          "type": "string"
        },
        {
          "indexed": false,
          "internalType": "uint256",
          "name": "budget",
          "type": "uint256"
        },
        {
          "indexed": false,
          "internalType": "string",
          "name": "initDate",
          "type": "string"
        },
        {
          "indexed": false,
          "internalType": "string",
          "name": "dueDate",
          "type": "string"
        },
        {
          "indexed": false,
          "internalType": "int256",
          "name": "numberRevisions",
          "type": "int256"
        },
        {
          "indexed": false,
          "internalType": "int256",
          "name": "msId",
          "type": "int256"
        }
      ],
      "name": "milestoneList",
      "type": "event"
    },
    {
      "anonymous": false,
      "inputs": [
        {
          "indexed": false,
          "internalType": "enum State",
          "name": "state",
          "type": "uint8"
        }
      ],
      "name": "trackState",
      "type": "event"
    },
    {
      "stateMutability": "payable",
      "type": "fallback"
    },
    {
      "inputs": [
        {
          "internalType": "int256",
          "name": "_msId",
          "type": "int256"
        },
        {
          "internalType": "string",
          "name": "_descriptionFileHash",
          "type": "string"
        },
        {
          "internalType": "string",
          "name": "_title",
          "type": "string"
        },
        {
          "internalType": "int256",
          "name": "_budget",
          "type": "int256"
        },
        {
          "internalType": "string",
          "name": "_initDate",
          "type": "string"
        },
        {
          "internalType": "string",
          "name": "_dueDate",
          "type": "string"
        },
        {
          "internalType": "int256",
          "name": "_numberRevisions",
          "type": "int256"
        }
      ],
      "name": "addMilestone",
      "outputs": [],
      "stateMutability": "nonpayable",
      "type": "function"
    },
    {
      "inputs": [
        {
          "internalType": "int256",
          "name": "_id",
          "type": "int256"
        },
        {
          "internalType": "bool",
          "name": "_val",
          "type": "bool"
        },
        {
          "internalType": "address payable",
          "name": "provider_address",
          "type": "address"
        }
      ],
      "name": "approveMS_status",
      "outputs": [
        {
          "internalType": "bool",
          "name": "approvedStatus",
          "type": "bool"
        },
        {
          "internalType": "string",
          "name": "message",
          "type": "string"
        }
      ],
      "stateMutability": "nonpayable",
      "type": "function"
    },
    {
      "inputs": [
        {
          "internalType": "int256",
          "name": "_id",
          "type": "int256"
        }
      ],
      "name": "changeMS_state",
      "outputs": [],
      "stateMutability": "nonpayable",
      "type": "function"
    },
    {
      "inputs": [],
      "name": "creditAddress",
      "outputs": [
        {
          "internalType": "address payable",
          "name": "",
          "type": "address"
        }
      ],
      "stateMutability": "view",
      "type": "function"
    },
    {
      "inputs": [],
      "name": "getAllMS",
      "outputs": [
        {
          "components": [
            {
              "internalType": "string",
              "name": "descriptionFileHash",
              "type": "string"
            },
            {
              "internalType": "string",
              "name": "title",
              "type": "string"
            },
            {
              "internalType": "uint256",
              "name": "budget",
              "type": "uint256"
            },
            {
              "internalType": "string",
              "name": "initDate",
              "type": "string"
            },
            {
              "internalType": "string",
              "name": "dueDate",
              "type": "string"
            },
            {
              "internalType": "int256",
              "name": "numberRevisions",
              "type": "int256"
            },
            {
              "components": [
                {
                  "internalType": "int256",
                  "name": "msId",
                  "type": "int256"
                },
                {
                  "internalType": "string",
                  "name": "descriptionFileLink",
                  "type": "string"
                },
                {
                  "internalType": "enum State",
                  "name": "state",
                  "type": "uint8"
                },
                {
                  "internalType": "bool",
                  "name": "isApproved",
                  "type": "bool"
                },
                {
                  "internalType": "bool",
                  "name": "isclosed",
                  "type": "bool"
                },
                {
                  "internalType": "string",
                  "name": "resolveTime",
                  "type": "string"
                },
                {
                  "internalType": "int256",
                  "name": "revisionCounter",
                  "type": "int256"
                }
              ],
              "internalType": "struct MilestoneRequired",
              "name": "ms_req",
              "type": "tuple"
            }
          ],
          "internalType": "struct Milestone[]",
          "name": "msList",
          "type": "tuple[]"
        }
      ],
      "stateMutability": "view",
      "type": "function"
    },
    {
      "inputs": [
        {
          "internalType": "int256",
          "name": "_Id",
          "type": "int256"
        }
      ],
      "name": "getMilestoneById",
      "outputs": [
        {
          "components": [
            {
              "internalType": "string",
              "name": "descriptionFileHash",
              "type": "string"
            },
            {
              "internalType": "string",
              "name": "title",
              "type": "string"
            },
            {
              "internalType": "uint256",
              "name": "budget",
              "type": "uint256"
            },
            {
              "internalType": "string",
              "name": "initDate",
              "type": "string"
            },
            {
              "internalType": "string",
              "name": "dueDate",
              "type": "string"
            },
            {
              "internalType": "int256",
              "name": "numberRevisions",
              "type": "int256"
            },
            {
              "components": [
                {
                  "internalType": "int256",
                  "name": "msId",
                  "type": "int256"
                },
                {
                  "internalType": "string",
                  "name": "descriptionFileLink",
                  "type": "string"
                },
                {
                  "internalType": "enum State",
                  "name": "state",
                  "type": "uint8"
                },
                {
                  "internalType": "bool",
                  "name": "isApproved",
                  "type": "bool"
                },
                {
                  "internalType": "bool",
                  "name": "isclosed",
                  "type": "bool"
                },
                {
                  "internalType": "string",
                  "name": "resolveTime",
                  "type": "string"
                },
                {
                  "internalType": "int256",
                  "name": "revisionCounter",
                  "type": "int256"
                }
              ],
              "internalType": "struct MilestoneRequired",
              "name": "ms_req",
              "type": "tuple"
            }
          ],
          "internalType": "struct Milestone",
          "name": "ms",
          "type": "tuple"
        }
      ],
      "stateMutability": "view",
      "type": "function"
    },
    {
      "inputs": [
        {
          "internalType": "uint256",
          "name": "",
          "type": "uint256"
        }
      ],
      "name": "milestonesList",
      "outputs": [
        {
          "internalType": "string",
          "name": "descriptionFileHash",
          "type": "string"
        },
        {
          "internalType": "string",
          "name": "title",
          "type": "string"
        },
        {
          "internalType": "uint256",
          "name": "budget",
          "type": "uint256"
        },
        {
          "internalType": "string",
          "name": "initDate",
          "type": "string"
        },
        {
          "internalType": "string",
          "name": "dueDate",
          "type": "string"
        },
        {
          "internalType": "int256",
          "name": "numberRevisions",
          "type": "int256"
        },
        {
          "components": [
            {
              "internalType": "int256",
              "name": "msId",
              "type": "int256"
            },
            {
              "internalType": "string",
              "name": "descriptionFileLink",
              "type": "string"
            },
            {
              "internalType": "enum State",
              "name": "state",
              "type": "uint8"
            },
            {
              "internalType": "bool",
              "name": "isApproved",
              "type": "bool"
            },
            {
              "internalType": "bool",
              "name": "isclosed",
              "type": "bool"
            },
            {
              "internalType": "string",
              "name": "resolveTime",
              "type": "string"
            },
            {
              "internalType": "int256",
              "name": "revisionCounter",
              "type": "int256"
            }
          ],
          "internalType": "struct MilestoneRequired",
          "name": "ms_req",
          "type": "tuple"
        }
      ],
      "stateMutability": "view",
      "type": "function"
    },
    {
      "inputs": [],
      "name": "mo_address",
      "outputs": [
        {
          "internalType": "address payable",
          "name": "",
          "type": "address"
        }
      ],
      "stateMutability": "view",
      "type": "function"
    },
    {
      "inputs": [
        {
          "internalType": "int256",
          "name": "_Id",
          "type": "int256"
        }
      ],
      "name": "penaltyCalculation",
      "outputs": [
        {
          "internalType": "uint256",
          "name": "penalty",
          "type": "uint256"
        }
      ],
      "stateMutability": "view",
      "type": "function"
    },
    {
      "inputs": [],
      "name": "provider_address",
      "outputs": [
        {
          "internalType": "address payable",
          "name": "",
          "type": "address"
        }
      ],
      "stateMutability": "view",
      "type": "function"
    },
    {
      "inputs": [],
      "name": "purchaser_address",
      "outputs": [
        {
          "internalType": "address payable",
          "name": "",
          "type": "address"
        }
      ],
      "stateMutability": "view",
      "type": "function"
    },
    {
      "stateMutability": "payable",
      "type": "receive"
    },
    {
      "inputs": [],
      "name": "getBalance",
      "outputs": [
        {
          "internalType": "uint256",
          "name": "",
          "type": "uint256"
        }
      ],
      "stateMutability": "view",
      "type": "function"
    },
    {
      "inputs": [
        {
          "internalType": "int256",
          "name": "_amount",
          "type": "int256"
        }
      ],
      "name": "payout",
      "outputs": [],
      "stateMutability": "nonpayable",
      "type": "function"
    }
  ],
  "bytecode": "0x608060405234801562000010575f80fd5b5060405162002d1838038062002d188339818101604052810190620000369190620001a5565b8360035f6101000a81548173ffffffffffffffffffffffffffffffffffffffff021916908373ffffffffffffffffffffffffffffffffffffffff1602179055508260045f6101000a81548173ffffffffffffffffffffffffffffffffffffffff021916908373ffffffffffffffffffffffffffffffffffffffff1602179055508160025f6101000a81548173ffffffffffffffffffffffffffffffffffffffff021916908373ffffffffffffffffffffffffffffffffffffffff1602179055508060055f6101000a81548173ffffffffffffffffffffffffffffffffffffffff021916908373ffffffffffffffffffffffffffffffffffffffff1602179055505050505062000214565b5f80fd5b5f73ffffffffffffffffffffffffffffffffffffffff82169050919050565b5f6200016f8262000144565b9050919050565b620001818162000163565b81146200018c575f80fd5b50565b5f815190506200019f8162000176565b92915050565b5f805f8060808587031215620001c057620001bf62000140565b5b5f620001cf878288016200018f565b9450506020620001e2878288016200018f565b9350506040620001f5878288016200018f565b925050606062000208878288016200018f565b91505092959194509250565b612af680620002225f395ff3fe6080604052600436106100c5575f3560e01c80636a46bb4e1161007e578063cbda494a11610058578063cbda494a1461027d578063daec13a8146102bf578063ebceba42146102e7578063ee187e1914610311576100cc565b80636a46bb4e146101dc5780637a2b6586146102195780639b6e3ec914610241576100cc565b80630e5630c1146100ce57806312065fe0146100f8578063148f90bb1461012257806327b238af1461014c5780634aa8cf3f146101765780635e03c839146101a0576100cc565b366100cc57005b005b3480156100d9575f80fd5b506100e2610339565b6040516100ef9190611b56565b60405180910390f35b348015610103575f80fd5b5061010c61035e565b6040516101199190611b87565b60405180910390f35b34801561012d575f80fd5b50610136610365565b6040516101439190611b56565b60405180910390f35b348015610157575f80fd5b5061016061038a565b60405161016d9190611b56565b60405180910390f35b348015610181575f80fd5b5061018a6103af565b6040516101979190611b56565b60405180910390f35b3480156101ab575f80fd5b506101c660048036038101906101c19190611be4565b6103d4565b6040516101d39190611b87565b60405180910390f35b3480156101e7575f80fd5b5061020260048036038101906101fd9190611c6e565b61049a565b604051610210929190611d57565b60405180910390f35b348015610224575f80fd5b5061023f600480360381019061023a9190611be4565b610840565b005b34801561024c575f80fd5b5061026760048036038101906102629190611be4565b6108bc565b6040516102749190611fc2565b60405180910390f35b348015610288575f80fd5b506102a3600480360381019061029e919061200c565b610d53565b6040516102b697969594939291906120e6565b60405180910390f35b3480156102ca575f80fd5b506102e560048036038101906102e091906122a2565b611164565b005b3480156102f2575f80fd5b506102fb611541565b604051610308919061251f565b60405180910390f35b34801561031c575f80fd5b5061033760048036038101906103329190611be4565b6119a6565b005b60035f9054906101000a900473ffffffffffffffffffffffffffffffffffffffff1681565b5f47905090565b60055f9054906101000a900473ffffffffffffffffffffffffffffffffffffffff1681565b60045f9054906101000a900473ffffffffffffffffffffffffffffffffffffffff1681565b60025f9054906101000a900473ffffffffffffffffffffffffffffffffffffffff1681565b5f805f90505b5f8054905081101561049357825f82815481106103fa576103f961253f565b5b905f5260205f2090600b02016006015f015403610480575f8082815481106104255761042461253f565b5b905f5260205f2090600b0201600601600401545f838154811061044b5761044a61253f565b5b905f5260205f2090600b0201600501546104659190612599565b90506305f5e1008161047791906125d9565b92505050610495565b808061048b9061264f565b9150506103da565b505b919050565b5f60605f5b5f805490508110156107fb57855f82815481106104bf576104be61253f565b5b905f5260205f2090600b02016006015f01541480156104e2575060011515851515145b156105ec575f3090505f6305f5e1005f84815481106105045761050361253f565b5b905f5260205f2090600b02016002015461051e9190612696565b90508573ffffffffffffffffffffffffffffffffffffffff166108fc828473ffffffffffffffffffffffffffffffffffffffff163161055d91906126d7565b8473ffffffffffffffffffffffffffffffffffffffff163161057f91906126d7565b90811502906040515f60405180830381858888f193505050501580156105a7573d5f803e3d5ffd5b5060016040518060400160405280601b81526020017f46756e64207472616e73666572207375636365737366756c6c7920000000000081525094509450505050610838565b855f8281548110610600576105ff61253f565b5b905f5260205f2090600b02016006015f015414801561062257505f1515851515145b156107e8575f818154811061063a5761063961253f565b5b905f5260205f2090600b0201600501545f828154811061065d5761065c61253f565b5b905f5260205f2090600b02016006016004015412156107c35760015f828154811061068b5761068a61253f565b5b905f5260205f2090600b0201600601600401546106a8919061270a565b5f82815481106106bb576106ba61253f565b5b905f5260205f2090600b02016006016004018190555060035f82815481106106e6576106e561253f565b5b905f5260205f2090600b02016006016002015f6101000a81548160ff0219169083600481111561071957610718611deb565b5b02179055505f60015f8881526020019081526020015f20905060018160060160040154610746919061270a565b81600601600401819055506003816006016002015f6101000a81548160ff0219169083600481111561077b5761077a611deb565b5b021790555060016040518060400160405280601a81526020017f4d5320737461747573206368616e676520746f207265776f726b000000000000815250935093505050610838565b6001604051806060016040528060238152602001612a9e602391399250925050610838565b80806107f39061264f565b91505061049f565b505f6040518060400160405280601081526020017f4d53206964206e6f7420666f756e642000000000000000000000000000000000815250915091505b935093915050565b5f6305f5e100826108519190612696565b905060035f9054906101000a900473ffffffffffffffffffffffffffffffffffffffff1673ffffffffffffffffffffffffffffffffffffffff166108fc8290811502906040515f60405180830381858888f193505050501580156108b7573d5f803e3d5ffd5b505050565b6108c4611a88565b5f5b5f80549050811015610d4c57825f82815481106108e6576108e561253f565b5b905f5260205f2090600b02016006015f015403610d39575f81815481106109105761090f61253f565b5b905f5260205f2090600b02016040518060e00160405290815f8201805461093690612778565b80601f016020809104026020016040519081016040528092919081815260200182805461096290612778565b80156109ad5780601f10610984576101008083540402835291602001916109ad565b820191905f5260205f20905b81548152906001019060200180831161099057829003601f168201915b505050505081526020016001820180546109c690612778565b80601f01602080910402602001604051908101604052809291908181526020018280546109f290612778565b8015610a3d5780601f10610a1457610100808354040283529160200191610a3d565b820191905f5260205f20905b815481529060010190602001808311610a2057829003601f168201915b5050505050815260200160028201548152602001600382018054610a6090612778565b80601f0160208091040260200160405190810160405280929190818152602001828054610a8c90612778565b8015610ad75780601f10610aae57610100808354040283529160200191610ad7565b820191905f5260205f20905b815481529060010190602001808311610aba57829003601f168201915b50505050508152602001600482018054610af090612778565b80601f0160208091040260200160405190810160405280929190818152602001828054610b1c90612778565b8015610b675780601f10610b3e57610100808354040283529160200191610b67565b820191905f5260205f20905b815481529060010190602001808311610b4a57829003601f168201915b5050505050815260200160058201548152602001600682016040518060e00160405290815f8201548152602001600182018054610ba390612778565b80601f0160208091040260200160405190810160405280929190818152602001828054610bcf90612778565b8015610c1a5780601f10610bf157610100808354040283529160200191610c1a565b820191905f5260205f20905b815481529060010190602001808311610bfd57829003601f168201915b50505050508152602001600282015f9054906101000a900460ff166004811115610c4757610c46611deb565b5b6004811115610c5957610c58611deb565b5b81526020016002820160019054906101000a900460ff161515151581526020016002820160029054906101000a900460ff16151515158152602001600382018054610ca390612778565b80601f0160208091040260200160405190810160405280929190818152602001828054610ccf90612778565b8015610d1a5780601f10610cf157610100808354040283529160200191610d1a565b820191905f5260205f20905b815481529060010190602001808311610cfd57829003601f168201915b5050505050815260200160048201548152505081525050915050610d4e565b8080610d449061264f565b9150506108c6565b505b919050565b5f8181548110610d61575f80fd5b905f5260205f2090600b02015f91509050805f018054610d8090612778565b80601f0160208091040260200160405190810160405280929190818152602001828054610dac90612778565b8015610df75780601f10610dce57610100808354040283529160200191610df7565b820191905f5260205f20905b815481529060010190602001808311610dda57829003601f168201915b505050505090806001018054610e0c90612778565b80601f0160208091040260200160405190810160405280929190818152602001828054610e3890612778565b8015610e835780601f10610e5a57610100808354040283529160200191610e83565b820191905f5260205f20905b815481529060010190602001808311610e6657829003601f168201915b505050505090806002015490806003018054610e9e90612778565b80601f0160208091040260200160405190810160405280929190818152602001828054610eca90612778565b8015610f155780601f10610eec57610100808354040283529160200191610f15565b820191905f5260205f20905b815481529060010190602001808311610ef857829003601f168201915b505050505090806004018054610f2a90612778565b80601f0160208091040260200160405190810160405280929190818152602001828054610f5690612778565b8015610fa15780601f10610f7857610100808354040283529160200191610fa1565b820191905f5260205f20905b815481529060010190602001808311610f8457829003601f168201915b505050505090806005015490806006016040518060e00160405290815f8201548152602001600182018054610fd590612778565b80601f016020809104026020016040519081016040528092919081815260200182805461100190612778565b801561104c5780601f106110235761010080835404028352916020019161104c565b820191905f5260205f20905b81548152906001019060200180831161102f57829003601f168201915b50505050508152602001600282015f9054906101000a900460ff16600481111561107957611078611deb565b5b600481111561108b5761108a611deb565b5b81526020016002820160019054906101000a900460ff161515151581526020016002820160029054906101000a900460ff161515151581526020016003820180546110d590612778565b80601f016020809104026020016040519081016040528092919081815260200182805461110190612778565b801561114c5780601f106111235761010080835404028352916020019161114c565b820191905f5260205f20905b81548152906001019060200180831161112f57829003601f168201915b50505050508152602001600482015481525050905087565b61116c611a88565b86815f018190525085816020018190525084816040018181525050838160600181905250828160800181905250818160a00181815250506111ab611ac9565b88815f0181815250506040518060400160405280600e81526020017f7777772e676f6f676c652e636f6d00000000000000000000000000000000000081525081602001819052505f8160400190600481111561120a57611209611deb565b5b9081600481111561121e5761121d611deb565b5b815250505f8160600190151590811515815250505f81608001901515908115158152505060405180602001604052805f8152508160a001819052505f8160c00181815250507fbe815bcae74ccb7bd49a4374ce3b2fb1a3f323f6581a139da01d9afe3604d714888884604001518888888f6040516112a297969594939291906127a8565b60405180910390a1808260c001819052508160015f8b81526020019081526020015f205f820151815f0190816112d891906129ce565b5060208201518160010190816112ee91906129ce565b5060408201518160020155606082015181600301908161130e91906129ce565b50608082015181600401908161132491906129ce565b5060a0820151816005015560c0820151816006015f820151815f0155602082015181600101908161135591906129ce565b506040820151816002015f6101000a81548160ff021916908360048111156113805761137f611deb565b5b021790555060608201518160020160016101000a81548160ff02191690831515021790555060808201518160020160026101000a81548160ff02191690831515021790555060a08201518160030190816113da91906129ce565b5060c0820151816004015550509050505f82908060018154018082558091505060019003905f5260205f2090600b02015f909190919091505f820151815f01908161142591906129ce565b50602082015181600101908161143b91906129ce565b5060408201518160020155606082015181600301908161145b91906129ce565b50608082015181600401908161147191906129ce565b5060a0820151816005015560c0820151816006015f820151815f015560208201518160010190816114a291906129ce565b506040820151816002015f6101000a81548160ff021916908360048111156114cd576114cc611deb565b5b021790555060608201518160020160016101000a81548160ff02191690831515021790555060808201518160020160026101000a81548160ff02191690831515021790555060a082015181600301908161152791906129ce565b5060c0820151816004015550505050505050505050505050565b60605f805480602002602001604051908101604052809291908181526020015f905b8282101561199d578382905f5260205f2090600b02016040518060e00160405290815f8201805461159390612778565b80601f01602080910402602001604051908101604052809291908181526020018280546115bf90612778565b801561160a5780601f106115e15761010080835404028352916020019161160a565b820191905f5260205f20905b8154815290600101906020018083116115ed57829003601f168201915b5050505050815260200160018201805461162390612778565b80601f016020809104026020016040519081016040528092919081815260200182805461164f90612778565b801561169a5780601f106116715761010080835404028352916020019161169a565b820191905f5260205f20905b81548152906001019060200180831161167d57829003601f168201915b50505050508152602001600282015481526020016003820180546116bd90612778565b80601f01602080910402602001604051908101604052809291908181526020018280546116e990612778565b80156117345780601f1061170b57610100808354040283529160200191611734565b820191905f5260205f20905b81548152906001019060200180831161171757829003601f168201915b5050505050815260200160048201805461174d90612778565b80601f016020809104026020016040519081016040528092919081815260200182805461177990612778565b80156117c45780601f1061179b576101008083540402835291602001916117c4565b820191905f5260205f20905b8154815290600101906020018083116117a757829003601f168201915b5050505050815260200160058201548152602001600682016040518060e00160405290815f820154815260200160018201805461180090612778565b80601f016020809104026020016040519081016040528092919081815260200182805461182c90612778565b80156118775780601f1061184e57610100808354040283529160200191611877565b820191905f5260205f20905b81548152906001019060200180831161185a57829003601f168201915b50505050508152602001600282015f9054906101000a900460ff1660048111156118a4576118a3611deb565b5b60048111156118b6576118b5611deb565b5b81526020016002820160019054906101000a900460ff161515151581526020016002820160029054906101000a900460ff1615151515815260200160038201805461190090612778565b80601f016020809104026020016040519081016040528092919081815260200182805461192c90612778565b80156119775780601f1061194e57610100808354040283529160200191611977565b820191905f5260205f20905b81548152906001019060200180831161195a57829003601f168201915b505050505081526020016004820154815250508152505081526020019060010190611563565b50505050905090565b5f5b5f80549050811015611a4057815f82815481106119c8576119c761253f565b5b905f5260205f2090600b02016006015f015403611a2d5760025f82815481106119f4576119f361253f565b5b905f5260205f2090600b02016006016002015f6101000a81548160ff02191690836004811115611a2757611a26611deb565b5b02179055505b8080611a389061264f565b9150506119a8565b505f60015f8381526020019081526020015f2090506002816006016002015f6101000a81548160ff02191690836004811115611a7f57611a7e611deb565b5b02179055505050565b6040518060e0016040528060608152602001606081526020015f815260200160608152602001606081526020015f8152602001611ac3611ac9565b81525090565b6040518060e001604052805f8152602001606081526020015f6004811115611af457611af3611deb565b5b81526020015f151581526020015f15158152602001606081526020015f81525090565b5f73ffffffffffffffffffffffffffffffffffffffff82169050919050565b5f611b4082611b17565b9050919050565b611b5081611b36565b82525050565b5f602082019050611b695f830184611b47565b92915050565b5f819050919050565b611b8181611b6f565b82525050565b5f602082019050611b9a5f830184611b78565b92915050565b5f604051905090565b5f80fd5b5f80fd5b5f819050919050565b611bc381611bb1565b8114611bcd575f80fd5b50565b5f81359050611bde81611bba565b92915050565b5f60208284031215611bf957611bf8611ba9565b5b5f611c0684828501611bd0565b91505092915050565b5f8115159050919050565b611c2381611c0f565b8114611c2d575f80fd5b50565b5f81359050611c3e81611c1a565b92915050565b611c4d81611b36565b8114611c57575f80fd5b50565b5f81359050611c6881611c44565b92915050565b5f805f60608486031215611c8557611c84611ba9565b5b5f611c9286828701611bd0565b9350506020611ca386828701611c30565b9250506040611cb486828701611c5a565b9150509250925092565b611cc781611c0f565b82525050565b5f81519050919050565b5f82825260208201905092915050565b5f5b83811015611d04578082015181840152602081019050611ce9565b5f8484015250505050565b5f601f19601f8301169050919050565b5f611d2982611ccd565b611d338185611cd7565b9350611d43818560208601611ce7565b611d4c81611d0f565b840191505092915050565b5f604082019050611d6a5f830185611cbe565b8181036020830152611d7c8184611d1f565b90509392505050565b5f82825260208201905092915050565b5f611d9f82611ccd565b611da98185611d85565b9350611db9818560208601611ce7565b611dc281611d0f565b840191505092915050565b611dd681611b6f565b82525050565b611de581611bb1565b82525050565b7f4e487b71000000000000000000000000000000000000000000000000000000005f52602160045260245ffd5b60058110611e2957611e28611deb565b5b50565b5f819050611e3982611e18565b919050565b5f611e4882611e2c565b9050919050565b611e5881611e3e565b82525050565b611e6781611c0f565b82525050565b5f60e083015f830151611e825f860182611ddc565b5060208301518482036020860152611e9a8282611d95565b9150506040830151611eaf6040860182611e4f565b506060830151611ec26060860182611e5e565b506080830151611ed56080860182611e5e565b5060a083015184820360a0860152611eed8282611d95565b91505060c0830151611f0260c0860182611ddc565b508091505092915050565b5f60e083015f8301518482035f860152611f278282611d95565b91505060208301518482036020860152611f418282611d95565b9150506040830151611f566040860182611dcd565b5060608301518482036060860152611f6e8282611d95565b91505060808301518482036080860152611f888282611d95565b91505060a0830151611f9d60a0860182611ddc565b5060c083015184820360c0860152611fb58282611e6d565b9150508091505092915050565b5f6020820190508181035f830152611fda8184611f0d565b905092915050565b611feb81611b6f565b8114611ff5575f80fd5b50565b5f8135905061200681611fe2565b92915050565b5f6020828403121561202157612020611ba9565b5b5f61202e84828501611ff8565b91505092915050565b61204081611bb1565b82525050565b5f60e083015f83015161205b5f860182611ddc565b50602083015184820360208601526120738282611d95565b91505060408301516120886040860182611e4f565b50606083015161209b6060860182611e5e565b5060808301516120ae6080860182611e5e565b5060a083015184820360a08601526120c68282611d95565b91505060c08301516120db60c0860182611ddc565b508091505092915050565b5f60e0820190508181035f8301526120fe818a611d1f565b905081810360208301526121128189611d1f565b90506121216040830188611b78565b81810360608301526121338187611d1f565b905081810360808301526121478186611d1f565b905061215660a0830185612037565b81810360c08301526121688184612046565b905098975050505050505050565b5f80fd5b5f80fd5b7f4e487b71000000000000000000000000000000000000000000000000000000005f52604160045260245ffd5b6121b482611d0f565b810181811067ffffffffffffffff821117156121d3576121d261217e565b5b80604052505050565b5f6121e5611ba0565b90506121f182826121ab565b919050565b5f67ffffffffffffffff8211156122105761220f61217e565b5b61221982611d0f565b9050602081019050919050565b828183375f83830152505050565b5f612246612241846121f6565b6121dc565b9050828152602081018484840111156122625761226161217a565b5b61226d848285612226565b509392505050565b5f82601f83011261228957612288612176565b5b8135612299848260208601612234565b91505092915050565b5f805f805f805f60e0888a0312156122bd576122bc611ba9565b5b5f6122ca8a828b01611bd0565b975050602088013567ffffffffffffffff8111156122eb576122ea611bad565b5b6122f78a828b01612275565b965050604088013567ffffffffffffffff81111561231857612317611bad565b5b6123248a828b01612275565b95505060606123358a828b01611bd0565b945050608088013567ffffffffffffffff81111561235657612355611bad565b5b6123628a828b01612275565b93505060a088013567ffffffffffffffff81111561238357612382611bad565b5b61238f8a828b01612275565b92505060c06123a08a828b01611bd0565b91505092959891949750929550565b5f81519050919050565b5f82825260208201905092915050565b5f819050602082019050919050565b5f60e083015f8301518482035f8601526123f28282611d95565b9150506020830151848203602086015261240c8282611d95565b91505060408301516124216040860182611dcd565b50606083015184820360608601526124398282611d95565b915050608083015184820360808601526124538282611d95565b91505060a083015161246860a0860182611ddc565b5060c083015184820360c08601526124808282611e6d565b9150508091505092915050565b5f61249883836123d8565b905092915050565b5f602082019050919050565b5f6124b6826123af565b6124c081856123b9565b9350836020820285016124d2856123c9565b805f5b8581101561250d57848403895281516124ee858261248d565b94506124f9836124a0565b925060208a019950506001810190506124d5565b50829750879550505050505092915050565b5f6020820190508181035f83015261253781846124ac565b905092915050565b7f4e487b71000000000000000000000000000000000000000000000000000000005f52603260045260245ffd5b7f4e487b71000000000000000000000000000000000000000000000000000000005f52601160045260245ffd5b5f6125a382611bb1565b91506125ae83611bb1565b925082820390508181125f8412168282135f8512151617156125d3576125d261256c565b5b92915050565b5f6125e382611bb1565b91506125ee83611bb1565b92508282026125fc81611bb1565b91507f800000000000000000000000000000000000000000000000000000000000000084145f841216156126335761263261256c565b5b82820584148315176126485761264761256c565b5b5092915050565b5f61265982611b6f565b91507fffffffffffffffffffffffffffffffffffffffffffffffffffffffffffffffff820361268b5761268a61256c565b5b600182019050919050565b5f6126a082611b6f565b91506126ab83611b6f565b92508282026126b981611b6f565b915082820484148315176126d0576126cf61256c565b5b5092915050565b5f6126e182611b6f565b91506126ec83611b6f565b92508282039050818111156127045761270361256c565b5b92915050565b5f61271482611bb1565b915061271f83611bb1565b92508282019050828112155f8312168382125f8412151617156127455761274461256c565b5b92915050565b7f4e487b71000000000000000000000000000000000000000000000000000000005f52602260045260245ffd5b5f600282049050600182168061278f57607f821691505b6020821081036127a2576127a161274b565b5b50919050565b5f60e0820190508181035f8301526127c0818a611d1f565b905081810360208301526127d48189611d1f565b90506127e36040830188611b78565b81810360608301526127f58187611d1f565b905081810360808301526128098186611d1f565b905061281860a0830185612037565b61282560c0830184612037565b98975050505050505050565b5f819050815f5260205f209050919050565b5f6020601f8301049050919050565b5f82821b905092915050565b5f6008830261288d7fffffffffffffffffffffffffffffffffffffffffffffffffffffffffffffffff82612852565b6128978683612852565b95508019841693508086168417925050509392505050565b5f819050919050565b5f6128d26128cd6128c884611b6f565b6128af565b611b6f565b9050919050565b5f819050919050565b6128eb836128b8565b6128ff6128f7826128d9565b84845461285e565b825550505050565b5f90565b612913612907565b61291e8184846128e2565b505050565b5b81811015612941576129365f8261290b565b600181019050612924565b5050565b601f8211156129865761295781612831565b61296084612843565b8101602085101561296f578190505b61298361297b85612843565b830182612923565b50505b505050565b5f82821c905092915050565b5f6129a65f198460080261298b565b1980831691505092915050565b5f6129be8383612997565b9150826002028217905092915050565b6129d782611ccd565b67ffffffffffffffff8111156129f0576129ef61217e565b5b6129fa8254612778565b612a05828285612945565b5f60209050601f831160018114612a36575f8415612a24578287015190505b612a2e85826129b3565b865550612a95565b601f198416612a4486612831565b5f5b82811015612a6b57848901518255600182019150602085019450602081019050612a46565b86831015612a885784890151612a84601f891682612997565b8355505b6001600288020188555050505b50505050505056fe50656e616c74792063616c63756c6174696f6e2066756e6374696f6e2063616c6c6564a264697066735822122097d1df7b08a366788ed3d72797c9d6ccf1788f01a5c3f9b282231ad00b72cb6164736f6c63430008140033",
  "immutableReferences": {},
  "source": "// SPDX-License-Identifier: GPL-3.0\npragma solidity >=0.7.0 <0.9.0;\n\nimport \"./MilestoneContract.sol\";\n//import \"./PaymentContract.sol\";\nimport \"../precompiled-contracts/HederaTokenService.sol\";\nimport \"../precompiled-contracts/HederaResponseCodes.sol\";\n\n\ncontract EscrowContract is MilestoneContract {\n    //Purchaser, Provider and MO addresses\n    address payable public purchaser_address;\n    address payable public provider_address;\n    address payable public mo_address;\n\n    address payable public creditAddress;\n\n    // Constructor with arguments\n    constructor(\n        address payable _provider_address,\n        address payable _mo_address,\n        address payable _purchaser_address,\n        address payable _creditAddress\n    ) {\n        provider_address = _provider_address;\n        mo_address = _mo_address;\n        purchaser_address = _purchaser_address;\n        creditAddress = _creditAddress;\n    }\n\n     //============================================ \n    // GETTING HBAR TO THE CONTRACT\n    //============================================ \n    // Lock Funds to the Contract from the Purchaser\n    receive() external payable {}\n\n    fallback() external payable {}\n\n    //============================================ \n    // CHECKING THE HBAR BALANCE OF THE CONTRACT\n    //============================================ \n    function getBalance() public view returns (uint) {\n        return address(this).balance;\n    }\n\n    // Payout to provider\n    function payout( int _amount) public {\n        uint bal=uint(_amount)*(10**8);\n\n      provider_address.transfer(bal);\n\n\n    }\n\n    \n}\n",
  "sourcePath": "/Users/ravisatyam/Downloads/nestjs_test_prisma-rest-api-prisma/mo_final/contracts/EscrowContract.sol",
  "compiler": {
    "name": "solc",
    "version": "0.8.20+commit.a1b79de6.Emscripten.clang"
  },
  "schemaVersion": "3.4.14",
  "updatedAt": "2023-08-15T13:47:21.646Z",
  "devdoc": {
    "kind": "dev",
    "methods": {},
    "version": 1
  },
  "userdoc": {
    "kind": "user",
    "methods": {},
    "version": 1
  }
}