{
  "contractName": "EscrowContract",
  "abi": [
    {
      "inputs": [
        {
          "internalType": "address payable",
          "name": "_provider_address",
          "type": "address"
        },
        {
          "internalType": "address payable",
          "name": "_mo_address",
          "type": "address"
        },
        {
          "internalType": "address payable",
          "name": "_purchaser_address",
          "type": "address"
        },
        {
          "internalType": "address payable",
          "name": "_creditAddress",
          "type": "address"
        }
      ],
      "stateMutability": "nonpayable",
      "type": "constructor"
    },
    {
      "anonymous": false,
      "inputs": [
        {
          "indexed": false,
          "internalType": "string",
          "name": "descriptionFileHash",
          "type": "string"
        },
        {
          "indexed": false,
          "internalType": "string",
          "name": "title",
          "type": "string"
        },
        {
          "indexed": false,
          "internalType": "uint256",
          "name": "budget",
          "type": "uint256"
        },
        {
          "indexed": false,
          "internalType": "string",
          "name": "initDate",
          "type": "string"
        },
        {
          "indexed": false,
          "internalType": "string",
          "name": "dueDate",
          "type": "string"
        },
        {
          "indexed": false,
          "internalType": "int256",
          "name": "numberRevisions",
          "type": "int256"
        },
        {
          "indexed": false,
          "internalType": "int256",
          "name": "msId",
          "type": "int256"
        }
      ],
      "name": "milestoneList",
      "type": "event"
    },
    {
      "anonymous": false,
      "inputs": [
        {
          "indexed": false,
          "internalType": "enum State",
          "name": "state",
          "type": "uint8"
        }
      ],
      "name": "trackState",
      "type": "event"
    },
    {
      "inputs": [
        {
          "internalType": "int256",
          "name": "_msId",
          "type": "int256"
        },
        {
          "internalType": "string",
          "name": "_descriptionFileHash",
          "type": "string"
        },
        {
          "internalType": "string",
          "name": "_title",
          "type": "string"
        },
        {
          "internalType": "int256",
          "name": "_budget",
          "type": "int256"
        },
        {
          "internalType": "string",
          "name": "_initDate",
          "type": "string"
        },
        {
          "internalType": "string",
          "name": "_dueDate",
          "type": "string"
        },
        {
          "internalType": "int256",
          "name": "_numberRevisions",
          "type": "int256"
        }
      ],
      "name": "addMilestone",
      "outputs": [],
      "stateMutability": "nonpayable",
      "type": "function"
    },
    {
      "inputs": [
        {
          "internalType": "int256",
          "name": "_id",
          "type": "int256"
        },
        {
          "internalType": "bool",
          "name": "_val",
          "type": "bool"
        },
        {
          "internalType": "address payable",
          "name": "provider_address",
          "type": "address"
        }
      ],
      "name": "approveMS_status",
      "outputs": [
        {
          "internalType": "bool",
          "name": "approvedStatus",
          "type": "bool"
        },
        {
          "internalType": "string",
          "name": "message",
          "type": "string"
        }
      ],
      "stateMutability": "nonpayable",
      "type": "function"
    },
    {
      "inputs": [
        {
          "internalType": "int256",
          "name": "_id",
          "type": "int256"
        }
      ],
      "name": "changeMS_state",
      "outputs": [],
      "stateMutability": "nonpayable",
      "type": "function"
    },
    {
      "inputs": [],
      "name": "creditAddress",
      "outputs": [
        {
          "internalType": "address payable",
          "name": "",
          "type": "address"
        }
      ],
      "stateMutability": "view",
      "type": "function"
    },
    {
      "inputs": [],
      "name": "getAllMS",
      "outputs": [
        {
          "components": [
            {
              "internalType": "string",
              "name": "descriptionFileHash",
              "type": "string"
            },
            {
              "internalType": "string",
              "name": "title",
              "type": "string"
            },
            {
              "internalType": "uint256",
              "name": "budget",
              "type": "uint256"
            },
            {
              "internalType": "string",
              "name": "initDate",
              "type": "string"
            },
            {
              "internalType": "string",
              "name": "dueDate",
              "type": "string"
            },
            {
              "internalType": "int256",
              "name": "numberRevisions",
              "type": "int256"
            },
            {
              "components": [
                {
                  "internalType": "int256",
                  "name": "msId",
                  "type": "int256"
                },
                {
                  "internalType": "string",
                  "name": "descriptionFileLink",
                  "type": "string"
                },
                {
                  "internalType": "enum State",
                  "name": "state",
                  "type": "uint8"
                },
                {
                  "internalType": "bool",
                  "name": "isApproved",
                  "type": "bool"
                },
                {
                  "internalType": "bool",
                  "name": "isclosed",
                  "type": "bool"
                },
                {
                  "internalType": "string",
                  "name": "resolveTime",
                  "type": "string"
                },
                {
                  "internalType": "int256",
                  "name": "revisionCounter",
                  "type": "int256"
                }
              ],
              "internalType": "struct MilestoneRequired",
              "name": "ms_req",
              "type": "tuple"
            }
          ],
          "internalType": "struct Milestone[]",
          "name": "msList",
          "type": "tuple[]"
        }
      ],
      "stateMutability": "view",
      "type": "function"
    },
    {
      "inputs": [
        {
          "internalType": "int256",
          "name": "_Id",
          "type": "int256"
        }
      ],
      "name": "getMilestoneById",
      "outputs": [
        {
          "components": [
            {
              "internalType": "string",
              "name": "descriptionFileHash",
              "type": "string"
            },
            {
              "internalType": "string",
              "name": "title",
              "type": "string"
            },
            {
              "internalType": "uint256",
              "name": "budget",
              "type": "uint256"
            },
            {
              "internalType": "string",
              "name": "initDate",
              "type": "string"
            },
            {
              "internalType": "string",
              "name": "dueDate",
              "type": "string"
            },
            {
              "internalType": "int256",
              "name": "numberRevisions",
              "type": "int256"
            },
            {
              "components": [
                {
                  "internalType": "int256",
                  "name": "msId",
                  "type": "int256"
                },
                {
                  "internalType": "string",
                  "name": "descriptionFileLink",
                  "type": "string"
                },
                {
                  "internalType": "enum State",
                  "name": "state",
                  "type": "uint8"
                },
                {
                  "internalType": "bool",
                  "name": "isApproved",
                  "type": "bool"
                },
                {
                  "internalType": "bool",
                  "name": "isclosed",
                  "type": "bool"
                },
                {
                  "internalType": "string",
                  "name": "resolveTime",
                  "type": "string"
                },
                {
                  "internalType": "int256",
                  "name": "revisionCounter",
                  "type": "int256"
                }
              ],
              "internalType": "struct MilestoneRequired",
              "name": "ms_req",
              "type": "tuple"
            }
          ],
          "internalType": "struct Milestone",
          "name": "ms",
          "type": "tuple"
        }
      ],
      "stateMutability": "view",
      "type": "function"
    },
    {
      "inputs": [
        {
          "internalType": "uint256",
          "name": "",
          "type": "uint256"
        }
      ],
      "name": "milestonesList",
      "outputs": [
        {
          "internalType": "string",
          "name": "descriptionFileHash",
          "type": "string"
        },
        {
          "internalType": "string",
          "name": "title",
          "type": "string"
        },
        {
          "internalType": "uint256",
          "name": "budget",
          "type": "uint256"
        },
        {
          "internalType": "string",
          "name": "initDate",
          "type": "string"
        },
        {
          "internalType": "string",
          "name": "dueDate",
          "type": "string"
        },
        {
          "internalType": "int256",
          "name": "numberRevisions",
          "type": "int256"
        },
        {
          "components": [
            {
              "internalType": "int256",
              "name": "msId",
              "type": "int256"
            },
            {
              "internalType": "string",
              "name": "descriptionFileLink",
              "type": "string"
            },
            {
              "internalType": "enum State",
              "name": "state",
              "type": "uint8"
            },
            {
              "internalType": "bool",
              "name": "isApproved",
              "type": "bool"
            },
            {
              "internalType": "bool",
              "name": "isclosed",
              "type": "bool"
            },
            {
              "internalType": "string",
              "name": "resolveTime",
              "type": "string"
            },
            {
              "internalType": "int256",
              "name": "revisionCounter",
              "type": "int256"
            }
          ],
          "internalType": "struct MilestoneRequired",
          "name": "ms_req",
          "type": "tuple"
        }
      ],
      "stateMutability": "view",
      "type": "function"
    },
    {
      "inputs": [],
      "name": "mo_address",
      "outputs": [
        {
          "internalType": "address payable",
          "name": "",
          "type": "address"
        }
      ],
      "stateMutability": "view",
      "type": "function"
    },
    {
      "inputs": [
        {
          "internalType": "int256",
          "name": "_Id",
          "type": "int256"
        }
      ],
      "name": "penaltyCalculation",
      "outputs": [
        {
          "internalType": "uint256",
          "name": "penalty",
          "type": "uint256"
        }
      ],
      "stateMutability": "view",
      "type": "function"
    },
    {
      "inputs": [],
      "name": "provider_address",
      "outputs": [
        {
          "internalType": "address payable",
          "name": "",
          "type": "address"
        }
      ],
      "stateMutability": "view",
      "type": "function"
    },
    {
      "inputs": [],
      "name": "purchaser_address",
      "outputs": [
        {
          "internalType": "address payable",
          "name": "",
          "type": "address"
        }
      ],
      "stateMutability": "view",
      "type": "function"
    }
  ],
  "bytecode": "0x608060405234801562000010575f80fd5b5060405162002b9c38038062002b9c8339818101604052810190620000369190620001a5565b8360035f6101000a81548173ffffffffffffffffffffffffffffffffffffffff021916908373ffffffffffffffffffffffffffffffffffffffff1602179055508260045f6101000a81548173ffffffffffffffffffffffffffffffffffffffff021916908373ffffffffffffffffffffffffffffffffffffffff1602179055508160025f6101000a81548173ffffffffffffffffffffffffffffffffffffffff021916908373ffffffffffffffffffffffffffffffffffffffff1602179055508060055f6101000a81548173ffffffffffffffffffffffffffffffffffffffff021916908373ffffffffffffffffffffffffffffffffffffffff1602179055505050505062000214565b5f80fd5b5f73ffffffffffffffffffffffffffffffffffffffff82169050919050565b5f6200016f8262000144565b9050919050565b620001818162000163565b81146200018c575f80fd5b50565b5f815190506200019f8162000176565b92915050565b5f805f8060808587031215620001c057620001bf62000140565b5b5f620001cf878288016200018f565b9450506020620001e2878288016200018f565b9350506040620001f5878288016200018f565b925050606062000208878288016200018f565b91505092959194509250565b61297a80620002225f395ff3fe608060405234801561000f575f80fd5b50600436106100a7575f3560e01c80636a46bb4e1161006f5780636a46bb4e146101535780639b6e3ec914610184578063cbda494a146101b4578063daec13a8146101ea578063ebceba4214610206578063ee187e1914610224576100a7565b80630e5630c1146100ab578063148f90bb146100c957806327b238af146100e75780634aa8cf3f146101055780635e03c83914610123575b5f80fd5b6100b3610240565b6040516100c091906119da565b60405180910390f35b6100d1610265565b6040516100de91906119da565b60405180910390f35b6100ef61028a565b6040516100fc91906119da565b60405180910390f35b61010d6102af565b60405161011a91906119da565b60405180910390f35b61013d60048036038101906101389190611a37565b6102d4565b60405161014a9190611a7a565b60405180910390f35b61016d60048036038101906101689190611af2565b61039a565b60405161017b929190611bdb565b60405180910390f35b61019e60048036038101906101999190611a37565b610740565b6040516101ab9190611e46565b60405180910390f35b6101ce60048036038101906101c99190611e90565b610bd7565b6040516101e19796959493929190611f6a565b60405180910390f35b61020460048036038101906101ff9190612126565b610fe8565b005b61020e6113c5565b60405161021b91906123a3565b60405180910390f35b61023e60048036038101906102399190611a37565b61182a565b005b60035f9054906101000a900473ffffffffffffffffffffffffffffffffffffffff1681565b60055f9054906101000a900473ffffffffffffffffffffffffffffffffffffffff1681565b60045f9054906101000a900473ffffffffffffffffffffffffffffffffffffffff1681565b60025f9054906101000a900473ffffffffffffffffffffffffffffffffffffffff1681565b5f805f90505b5f8054905081101561039357825f82815481106102fa576102f96123c3565b5b905f5260205f2090600b02016006015f015403610380575f808281548110610325576103246123c3565b5b905f5260205f2090600b0201600601600401545f838154811061034b5761034a6123c3565b5b905f5260205f2090600b020160050154610365919061241d565b90506305f5e10081610377919061245d565b92505050610395565b808061038b906124d3565b9150506102da565b505b919050565b5f60605f5b5f805490508110156106fb57855f82815481106103bf576103be6123c3565b5b905f5260205f2090600b02016006015f01541480156103e2575060011515851515145b156104ec575f3090505f6305f5e1005f8481548110610404576104036123c3565b5b905f5260205f2090600b02016002015461041e919061251a565b90508573ffffffffffffffffffffffffffffffffffffffff166108fc828473ffffffffffffffffffffffffffffffffffffffff163161045d919061255b565b8473ffffffffffffffffffffffffffffffffffffffff163161047f919061255b565b90811502906040515f60405180830381858888f193505050501580156104a7573d5f803e3d5ffd5b5060016040518060400160405280601b81526020017f46756e64207472616e73666572207375636365737366756c6c7920000000000081525094509450505050610738565b855f8281548110610500576104ff6123c3565b5b905f5260205f2090600b02016006015f015414801561052257505f1515851515145b156106e8575f818154811061053a576105396123c3565b5b905f5260205f2090600b0201600501545f828154811061055d5761055c6123c3565b5b905f5260205f2090600b02016006016004015412156106c35760015f828154811061058b5761058a6123c3565b5b905f5260205f2090600b0201600601600401546105a8919061258e565b5f82815481106105bb576105ba6123c3565b5b905f5260205f2090600b02016006016004018190555060035f82815481106105e6576105e56123c3565b5b905f5260205f2090600b02016006016002015f6101000a81548160ff0219169083600481111561061957610618611c6f565b5b02179055505f60015f8881526020019081526020015f20905060018160060160040154610646919061258e565b81600601600401819055506003816006016002015f6101000a81548160ff0219169083600481111561067b5761067a611c6f565b5b021790555060016040518060400160405280601a81526020017f4d5320737461747573206368616e676520746f207265776f726b000000000000815250935093505050610738565b6001604051806060016040528060238152602001612922602391399250925050610738565b80806106f3906124d3565b91505061039f565b505f6040518060400160405280601081526020017f4d53206964206e6f7420666f756e642000000000000000000000000000000000815250915091505b935093915050565b61074861190c565b5f5b5f80549050811015610bd057825f828154811061076a576107696123c3565b5b905f5260205f2090600b02016006015f015403610bbd575f8181548110610794576107936123c3565b5b905f5260205f2090600b02016040518060e00160405290815f820180546107ba906125fc565b80601f01602080910402602001604051908101604052809291908181526020018280546107e6906125fc565b80156108315780601f1061080857610100808354040283529160200191610831565b820191905f5260205f20905b81548152906001019060200180831161081457829003601f168201915b5050505050815260200160018201805461084a906125fc565b80601f0160208091040260200160405190810160405280929190818152602001828054610876906125fc565b80156108c15780601f10610898576101008083540402835291602001916108c1565b820191905f5260205f20905b8154815290600101906020018083116108a457829003601f168201915b50505050508152602001600282015481526020016003820180546108e4906125fc565b80601f0160208091040260200160405190810160405280929190818152602001828054610910906125fc565b801561095b5780601f106109325761010080835404028352916020019161095b565b820191905f5260205f20905b81548152906001019060200180831161093e57829003601f168201915b50505050508152602001600482018054610974906125fc565b80601f01602080910402602001604051908101604052809291908181526020018280546109a0906125fc565b80156109eb5780601f106109c2576101008083540402835291602001916109eb565b820191905f5260205f20905b8154815290600101906020018083116109ce57829003601f168201915b5050505050815260200160058201548152602001600682016040518060e00160405290815f8201548152602001600182018054610a27906125fc565b80601f0160208091040260200160405190810160405280929190818152602001828054610a53906125fc565b8015610a9e5780601f10610a7557610100808354040283529160200191610a9e565b820191905f5260205f20905b815481529060010190602001808311610a8157829003601f168201915b50505050508152602001600282015f9054906101000a900460ff166004811115610acb57610aca611c6f565b5b6004811115610add57610adc611c6f565b5b81526020016002820160019054906101000a900460ff161515151581526020016002820160029054906101000a900460ff16151515158152602001600382018054610b27906125fc565b80601f0160208091040260200160405190810160405280929190818152602001828054610b53906125fc565b8015610b9e5780601f10610b7557610100808354040283529160200191610b9e565b820191905f5260205f20905b815481529060010190602001808311610b8157829003601f168201915b5050505050815260200160048201548152505081525050915050610bd2565b8080610bc8906124d3565b91505061074a565b505b919050565b5f8181548110610be5575f80fd5b905f5260205f2090600b02015f91509050805f018054610c04906125fc565b80601f0160208091040260200160405190810160405280929190818152602001828054610c30906125fc565b8015610c7b5780601f10610c5257610100808354040283529160200191610c7b565b820191905f5260205f20905b815481529060010190602001808311610c5e57829003601f168201915b505050505090806001018054610c90906125fc565b80601f0160208091040260200160405190810160405280929190818152602001828054610cbc906125fc565b8015610d075780601f10610cde57610100808354040283529160200191610d07565b820191905f5260205f20905b815481529060010190602001808311610cea57829003601f168201915b505050505090806002015490806003018054610d22906125fc565b80601f0160208091040260200160405190810160405280929190818152602001828054610d4e906125fc565b8015610d995780601f10610d7057610100808354040283529160200191610d99565b820191905f5260205f20905b815481529060010190602001808311610d7c57829003601f168201915b505050505090806004018054610dae906125fc565b80601f0160208091040260200160405190810160405280929190818152602001828054610dda906125fc565b8015610e255780601f10610dfc57610100808354040283529160200191610e25565b820191905f5260205f20905b815481529060010190602001808311610e0857829003601f168201915b505050505090806005015490806006016040518060e00160405290815f8201548152602001600182018054610e59906125fc565b80601f0160208091040260200160405190810160405280929190818152602001828054610e85906125fc565b8015610ed05780601f10610ea757610100808354040283529160200191610ed0565b820191905f5260205f20905b815481529060010190602001808311610eb357829003601f168201915b50505050508152602001600282015f9054906101000a900460ff166004811115610efd57610efc611c6f565b5b6004811115610f0f57610f0e611c6f565b5b81526020016002820160019054906101000a900460ff161515151581526020016002820160029054906101000a900460ff16151515158152602001600382018054610f59906125fc565b80601f0160208091040260200160405190810160405280929190818152602001828054610f85906125fc565b8015610fd05780601f10610fa757610100808354040283529160200191610fd0565b820191905f5260205f20905b815481529060010190602001808311610fb357829003601f168201915b50505050508152602001600482015481525050905087565b610ff061190c565b86815f018190525085816020018190525084816040018181525050838160600181905250828160800181905250818160a001818152505061102f61194d565b88815f0181815250506040518060400160405280600e81526020017f7777772e676f6f676c652e636f6d00000000000000000000000000000000000081525081602001819052505f8160400190600481111561108e5761108d611c6f565b5b908160048111156110a2576110a1611c6f565b5b815250505f8160600190151590811515815250505f81608001901515908115158152505060405180602001604052805f8152508160a001819052505f8160c00181815250507fbe815bcae74ccb7bd49a4374ce3b2fb1a3f323f6581a139da01d9afe3604d714888884604001518888888f604051611126979695949392919061262c565b60405180910390a1808260c001819052508160015f8b81526020019081526020015f205f820151815f01908161115c9190612852565b5060208201518160010190816111729190612852565b506040820151816002015560608201518160030190816111929190612852565b5060808201518160040190816111a89190612852565b5060a0820151816005015560c0820151816006015f820151815f015560208201518160010190816111d99190612852565b506040820151816002015f6101000a81548160ff0219169083600481111561120457611203611c6f565b5b021790555060608201518160020160016101000a81548160ff02191690831515021790555060808201518160020160026101000a81548160ff02191690831515021790555060a082015181600301908161125e9190612852565b5060c0820151816004015550509050505f82908060018154018082558091505060019003905f5260205f2090600b02015f909190919091505f820151815f0190816112a99190612852565b5060208201518160010190816112bf9190612852565b506040820151816002015560608201518160030190816112df9190612852565b5060808201518160040190816112f59190612852565b5060a0820151816005015560c0820151816006015f820151815f015560208201518160010190816113269190612852565b506040820151816002015f6101000a81548160ff0219169083600481111561135157611350611c6f565b5b021790555060608201518160020160016101000a81548160ff02191690831515021790555060808201518160020160026101000a81548160ff02191690831515021790555060a08201518160030190816113ab9190612852565b5060c0820151816004015550505050505050505050505050565b60605f805480602002602001604051908101604052809291908181526020015f905b82821015611821578382905f5260205f2090600b02016040518060e00160405290815f82018054611417906125fc565b80601f0160208091040260200160405190810160405280929190818152602001828054611443906125fc565b801561148e5780601f106114655761010080835404028352916020019161148e565b820191905f5260205f20905b81548152906001019060200180831161147157829003601f168201915b505050505081526020016001820180546114a7906125fc565b80601f01602080910402602001604051908101604052809291908181526020018280546114d3906125fc565b801561151e5780601f106114f55761010080835404028352916020019161151e565b820191905f5260205f20905b81548152906001019060200180831161150157829003601f168201915b5050505050815260200160028201548152602001600382018054611541906125fc565b80601f016020809104026020016040519081016040528092919081815260200182805461156d906125fc565b80156115b85780601f1061158f576101008083540402835291602001916115b8565b820191905f5260205f20905b81548152906001019060200180831161159b57829003601f168201915b505050505081526020016004820180546115d1906125fc565b80601f01602080910402602001604051908101604052809291908181526020018280546115fd906125fc565b80156116485780601f1061161f57610100808354040283529160200191611648565b820191905f5260205f20905b81548152906001019060200180831161162b57829003601f168201915b5050505050815260200160058201548152602001600682016040518060e00160405290815f8201548152602001600182018054611684906125fc565b80601f01602080910402602001604051908101604052809291908181526020018280546116b0906125fc565b80156116fb5780601f106116d2576101008083540402835291602001916116fb565b820191905f5260205f20905b8154815290600101906020018083116116de57829003601f168201915b50505050508152602001600282015f9054906101000a900460ff16600481111561172857611727611c6f565b5b600481111561173a57611739611c6f565b5b81526020016002820160019054906101000a900460ff161515151581526020016002820160029054906101000a900460ff16151515158152602001600382018054611784906125fc565b80601f01602080910402602001604051908101604052809291908181526020018280546117b0906125fc565b80156117fb5780601f106117d2576101008083540402835291602001916117fb565b820191905f5260205f20905b8154815290600101906020018083116117de57829003601f168201915b5050505050815260200160048201548152505081525050815260200190600101906113e7565b50505050905090565b5f5b5f805490508110156118c457815f828154811061184c5761184b6123c3565b5b905f5260205f2090600b02016006015f0154036118b15760025f8281548110611878576118776123c3565b5b905f5260205f2090600b02016006016002015f6101000a81548160ff021916908360048111156118ab576118aa611c6f565b5b02179055505b80806118bc906124d3565b91505061182c565b505f60015f8381526020019081526020015f2090506002816006016002015f6101000a81548160ff0219169083600481111561190357611902611c6f565b5b02179055505050565b6040518060e0016040528060608152602001606081526020015f815260200160608152602001606081526020015f815260200161194761194d565b81525090565b6040518060e001604052805f8152602001606081526020015f600481111561197857611977611c6f565b5b81526020015f151581526020015f15158152602001606081526020015f81525090565b5f73ffffffffffffffffffffffffffffffffffffffff82169050919050565b5f6119c48261199b565b9050919050565b6119d4816119ba565b82525050565b5f6020820190506119ed5f8301846119cb565b92915050565b5f604051905090565b5f80fd5b5f80fd5b5f819050919050565b611a1681611a04565b8114611a20575f80fd5b50565b5f81359050611a3181611a0d565b92915050565b5f60208284031215611a4c57611a4b6119fc565b5b5f611a5984828501611a23565b91505092915050565b5f819050919050565b611a7481611a62565b82525050565b5f602082019050611a8d5f830184611a6b565b92915050565b5f8115159050919050565b611aa781611a93565b8114611ab1575f80fd5b50565b5f81359050611ac281611a9e565b92915050565b611ad1816119ba565b8114611adb575f80fd5b50565b5f81359050611aec81611ac8565b92915050565b5f805f60608486031215611b0957611b086119fc565b5b5f611b1686828701611a23565b9350506020611b2786828701611ab4565b9250506040611b3886828701611ade565b9150509250925092565b611b4b81611a93565b82525050565b5f81519050919050565b5f82825260208201905092915050565b5f5b83811015611b88578082015181840152602081019050611b6d565b5f8484015250505050565b5f601f19601f8301169050919050565b5f611bad82611b51565b611bb78185611b5b565b9350611bc7818560208601611b6b565b611bd081611b93565b840191505092915050565b5f604082019050611bee5f830185611b42565b8181036020830152611c008184611ba3565b90509392505050565b5f82825260208201905092915050565b5f611c2382611b51565b611c2d8185611c09565b9350611c3d818560208601611b6b565b611c4681611b93565b840191505092915050565b611c5a81611a62565b82525050565b611c6981611a04565b82525050565b7f4e487b71000000000000000000000000000000000000000000000000000000005f52602160045260245ffd5b60058110611cad57611cac611c6f565b5b50565b5f819050611cbd82611c9c565b919050565b5f611ccc82611cb0565b9050919050565b611cdc81611cc2565b82525050565b611ceb81611a93565b82525050565b5f60e083015f830151611d065f860182611c60565b5060208301518482036020860152611d1e8282611c19565b9150506040830151611d336040860182611cd3565b506060830151611d466060860182611ce2565b506080830151611d596080860182611ce2565b5060a083015184820360a0860152611d718282611c19565b91505060c0830151611d8660c0860182611c60565b508091505092915050565b5f60e083015f8301518482035f860152611dab8282611c19565b91505060208301518482036020860152611dc58282611c19565b9150506040830151611dda6040860182611c51565b5060608301518482036060860152611df28282611c19565b91505060808301518482036080860152611e0c8282611c19565b91505060a0830151611e2160a0860182611c60565b5060c083015184820360c0860152611e398282611cf1565b9150508091505092915050565b5f6020820190508181035f830152611e5e8184611d91565b905092915050565b611e6f81611a62565b8114611e79575f80fd5b50565b5f81359050611e8a81611e66565b92915050565b5f60208284031215611ea557611ea46119fc565b5b5f611eb284828501611e7c565b91505092915050565b611ec481611a04565b82525050565b5f60e083015f830151611edf5f860182611c60565b5060208301518482036020860152611ef78282611c19565b9150506040830151611f0c6040860182611cd3565b506060830151611f1f6060860182611ce2565b506080830151611f326080860182611ce2565b5060a083015184820360a0860152611f4a8282611c19565b91505060c0830151611f5f60c0860182611c60565b508091505092915050565b5f60e0820190508181035f830152611f82818a611ba3565b90508181036020830152611f968189611ba3565b9050611fa56040830188611a6b565b8181036060830152611fb78187611ba3565b90508181036080830152611fcb8186611ba3565b9050611fda60a0830185611ebb565b81810360c0830152611fec8184611eca565b905098975050505050505050565b5f80fd5b5f80fd5b7f4e487b71000000000000000000000000000000000000000000000000000000005f52604160045260245ffd5b61203882611b93565b810181811067ffffffffffffffff8211171561205757612056612002565b5b80604052505050565b5f6120696119f3565b9050612075828261202f565b919050565b5f67ffffffffffffffff82111561209457612093612002565b5b61209d82611b93565b9050602081019050919050565b828183375f83830152505050565b5f6120ca6120c58461207a565b612060565b9050828152602081018484840111156120e6576120e5611ffe565b5b6120f18482856120aa565b509392505050565b5f82601f83011261210d5761210c611ffa565b5b813561211d8482602086016120b8565b91505092915050565b5f805f805f805f60e0888a031215612141576121406119fc565b5b5f61214e8a828b01611a23565b975050602088013567ffffffffffffffff81111561216f5761216e611a00565b5b61217b8a828b016120f9565b965050604088013567ffffffffffffffff81111561219c5761219b611a00565b5b6121a88a828b016120f9565b95505060606121b98a828b01611a23565b945050608088013567ffffffffffffffff8111156121da576121d9611a00565b5b6121e68a828b016120f9565b93505060a088013567ffffffffffffffff81111561220757612206611a00565b5b6122138a828b016120f9565b92505060c06122248a828b01611a23565b91505092959891949750929550565b5f81519050919050565b5f82825260208201905092915050565b5f819050602082019050919050565b5f60e083015f8301518482035f8601526122768282611c19565b915050602083015184820360208601526122908282611c19565b91505060408301516122a56040860182611c51565b50606083015184820360608601526122bd8282611c19565b915050608083015184820360808601526122d78282611c19565b91505060a08301516122ec60a0860182611c60565b5060c083015184820360c08601526123048282611cf1565b9150508091505092915050565b5f61231c838361225c565b905092915050565b5f602082019050919050565b5f61233a82612233565b612344818561223d565b9350836020820285016123568561224d565b805f5b8581101561239157848403895281516123728582612311565b945061237d83612324565b925060208a01995050600181019050612359565b50829750879550505050505092915050565b5f6020820190508181035f8301526123bb8184612330565b905092915050565b7f4e487b71000000000000000000000000000000000000000000000000000000005f52603260045260245ffd5b7f4e487b71000000000000000000000000000000000000000000000000000000005f52601160045260245ffd5b5f61242782611a04565b915061243283611a04565b925082820390508181125f8412168282135f851215161715612457576124566123f0565b5b92915050565b5f61246782611a04565b915061247283611a04565b925082820261248081611a04565b91507f800000000000000000000000000000000000000000000000000000000000000084145f841216156124b7576124b66123f0565b5b82820584148315176124cc576124cb6123f0565b5b5092915050565b5f6124dd82611a62565b91507fffffffffffffffffffffffffffffffffffffffffffffffffffffffffffffffff820361250f5761250e6123f0565b5b600182019050919050565b5f61252482611a62565b915061252f83611a62565b925082820261253d81611a62565b91508282048414831517612554576125536123f0565b5b5092915050565b5f61256582611a62565b915061257083611a62565b9250828203905081811115612588576125876123f0565b5b92915050565b5f61259882611a04565b91506125a383611a04565b92508282019050828112155f8312168382125f8412151617156125c9576125c86123f0565b5b92915050565b7f4e487b71000000000000000000000000000000000000000000000000000000005f52602260045260245ffd5b5f600282049050600182168061261357607f821691505b602082108103612626576126256125cf565b5b50919050565b5f60e0820190508181035f830152612644818a611ba3565b905081810360208301526126588189611ba3565b90506126676040830188611a6b565b81810360608301526126798187611ba3565b9050818103608083015261268d8186611ba3565b905061269c60a0830185611ebb565b6126a960c0830184611ebb565b98975050505050505050565b5f819050815f5260205f209050919050565b5f6020601f8301049050919050565b5f82821b905092915050565b5f600883026127117fffffffffffffffffffffffffffffffffffffffffffffffffffffffffffffffff826126d6565b61271b86836126d6565b95508019841693508086168417925050509392505050565b5f819050919050565b5f61275661275161274c84611a62565b612733565b611a62565b9050919050565b5f819050919050565b61276f8361273c565b61278361277b8261275d565b8484546126e2565b825550505050565b5f90565b61279761278b565b6127a2818484612766565b505050565b5b818110156127c5576127ba5f8261278f565b6001810190506127a8565b5050565b601f82111561280a576127db816126b5565b6127e4846126c7565b810160208510156127f3578190505b6128076127ff856126c7565b8301826127a7565b50505b505050565b5f82821c905092915050565b5f61282a5f198460080261280f565b1980831691505092915050565b5f612842838361281b565b9150826002028217905092915050565b61285b82611b51565b67ffffffffffffffff81111561287457612873612002565b5b61287e82546125fc565b6128898282856127c9565b5f60209050601f8311600181146128ba575f84156128a8578287015190505b6128b28582612837565b865550612919565b601f1984166128c8866126b5565b5f5b828110156128ef578489015182556001820191506020850194506020810190506128ca565b8683101561290c5784890151612908601f89168261281b565b8355505b6001600288020188555050505b50505050505056fe50656e616c74792063616c63756c6174696f6e2066756e6374696f6e2063616c6c6564a26469706673582212209f1e90922d45c744d01c563c69cd8f2a4522b753b5e05f28802297baa8e9f1e964736f6c63430008140033",
  "immutableReferences": {},
  "source": "// SPDX-License-Identifier: GPL-3.0\npragma solidity >=0.7.0 <0.9.0;\n\nimport \"./MilestoneContract.sol\";\nimport \"./PaymentContract.sol\";\n\ncontract EscrowContract is MilestoneContract {\n    //Purchaser, Provider and MO addresses\n    address payable public purchaser_address;\n    address payable public provider_address;\n    address payable public mo_address;\n\n    address payable public creditAddress;\n\n    // Constructor with arguments\n    constructor(\n        address payable _provider_address,\n        address payable _mo_address,\n        address payable _purchaser_address,\n        address payable _creditAddress\n    ) {\n        provider_address = _provider_address;\n        mo_address = _mo_address;\n        purchaser_address = _purchaser_address;\n        creditAddress = _creditAddress;\n    }\n}\n",
  "sourcePath": "/Users/ravisatyam/Downloads/nestjs_test_prisma-rest-api-prisma/nestjs_test_prisma-rest-api-prisma_4.0_final/contracts/EscrowContract.sol",
  "compiler": {
    "name": "solc",
    "version": "0.8.20+commit.a1b79de6.Emscripten.clang"
  },
  "schemaVersion": "3.4.14",
  "updatedAt": "2023-07-10T17:36:16.731Z",
  "devdoc": {
    "kind": "dev",
    "methods": {},
    "version": 1
  },
  "userdoc": {
    "kind": "user",
    "methods": {},
    "version": 1
  }
}