{
  "contractName": "MilestoneContract",
  "abi": [
    {
      "anonymous": false,
      "inputs": [
        {
          "indexed": false,
          "internalType": "string",
          "name": "descriptionFileHash",
          "type": "string"
        },
        {
          "indexed": false,
          "internalType": "string",
          "name": "title",
          "type": "string"
        },
        {
          "indexed": false,
          "internalType": "uint256",
          "name": "budget",
          "type": "uint256"
        },
        {
          "indexed": false,
          "internalType": "string",
          "name": "initDate",
          "type": "string"
        },
        {
          "indexed": false,
          "internalType": "string",
          "name": "dueDate",
          "type": "string"
        },
        {
          "indexed": false,
          "internalType": "uint256",
          "name": "numberRevisions",
          "type": "uint256"
        },
        {
          "indexed": false,
          "internalType": "uint256",
          "name": "msId",
          "type": "uint256"
        }
      ],
      "name": "milestoneList",
      "type": "event"
    },
    {
      "anonymous": false,
      "inputs": [
        {
          "indexed": false,
          "internalType": "enum State",
          "name": "state",
          "type": "uint8"
        }
      ],
      "name": "trackState",
      "type": "event"
    },
    {
      "inputs": [
        {
          "internalType": "uint256",
          "name": "",
          "type": "uint256"
        }
      ],
      "name": "milestonesList",
      "outputs": [
        {
          "internalType": "string",
          "name": "descriptionFileHash",
          "type": "string"
        },
        {
          "internalType": "string",
          "name": "title",
          "type": "string"
        },
        {
          "internalType": "uint256",
          "name": "budget",
          "type": "uint256"
        },
        {
          "internalType": "string",
          "name": "initDate",
          "type": "string"
        },
        {
          "internalType": "string",
          "name": "dueDate",
          "type": "string"
        },
        {
          "internalType": "uint256",
          "name": "numberRevisions",
          "type": "uint256"
        },
        {
          "components": [
            {
              "internalType": "uint256",
              "name": "msId",
              "type": "uint256"
            },
            {
              "internalType": "string",
              "name": "descriptionFileLink",
              "type": "string"
            },
            {
              "internalType": "enum State",
              "name": "state",
              "type": "uint8"
            },
            {
              "internalType": "bool",
              "name": "isApproved",
              "type": "bool"
            },
            {
              "internalType": "bool",
              "name": "isclosed",
              "type": "bool"
            },
            {
              "internalType": "string",
              "name": "resolveTime",
              "type": "string"
            },
            {
              "internalType": "uint256",
              "name": "revisionCounter",
              "type": "uint256"
            }
          ],
          "internalType": "struct MilestoneRequired",
          "name": "ms_req",
          "type": "tuple"
        }
      ],
      "stateMutability": "view",
      "type": "function"
    },
    {
      "inputs": [
        {
          "internalType": "uint256",
          "name": "msId",
          "type": "uint256"
        },
        {
          "internalType": "string",
          "name": "_descriptionFileHash",
          "type": "string"
        },
        {
          "internalType": "string",
          "name": "_title",
          "type": "string"
        },
        {
          "internalType": "uint256",
          "name": "_budget",
          "type": "uint256"
        },
        {
          "internalType": "string",
          "name": "_initDate",
          "type": "string"
        },
        {
          "internalType": "string",
          "name": "_dueDate",
          "type": "string"
        },
        {
          "internalType": "uint256",
          "name": "_numberRevisions",
          "type": "uint256"
        }
      ],
      "name": "addMilestone",
      "outputs": [],
      "stateMutability": "nonpayable",
      "type": "function"
    },
    {
      "inputs": [
        {
          "internalType": "uint256",
          "name": "_id",
          "type": "uint256"
        }
      ],
      "name": "changeMS_state",
      "outputs": [],
      "stateMutability": "nonpayable",
      "type": "function"
    },
    {
      "inputs": [
        {
          "internalType": "uint256",
          "name": "_id",
          "type": "uint256"
        },
        {
          "internalType": "bool",
          "name": "_val",
          "type": "bool"
        },
        {
          "internalType": "address payable",
          "name": "provider_address",
          "type": "address"
        }
      ],
      "name": "approveMS_status",
      "outputs": [
        {
          "internalType": "bool",
          "name": "approvedStatus",
          "type": "bool"
        },
        {
          "internalType": "string",
          "name": "message",
          "type": "string"
        }
      ],
      "stateMutability": "nonpayable",
      "type": "function"
    }
  ],
  "bytecode": "0x608060405234801561000f575f80fd5b5061193e8061001d5f395ff3fe608060405234801561000f575f80fd5b506004361061004a575f3560e01c80631053c9981461004e57806365ad8b751461006a57806372a207d71461009b578063cbda494a146100b7575b5f80fd5b61006860048036038101906100639190610f65565b6100ed565b005b610084600480360381019061007f9190611101565b6104bd565b6040516100929291906111da565b60405180910390f35b6100b560048036038101906100b09190611208565b610863565b005b6100d160048036038101906100cc9190611208565b610945565b6040516100e497969594939291906113bb565b60405180910390f35b6100f5610d56565b86815f018190525085816020018190525084816040018181525050838160600181905250828160800181905250818160a0018181525050610134610d97565b88815f0181815250506040518060400160405280600e81526020017f7777772e676f6f676c652e636f6d00000000000000000000000000000000000081525081602001819052505f8160400190600481111561019357610192611299565b5b908160048111156101a7576101a6611299565b5b815250505f8160600190151590811515815250505f81608001901515908115158152505060405180602001604052805f8152508160a001819052505f8160c00181815250507fbddb1ceede154cb7fd51c2c105c4cd9fdeca47d52399300d8f94c97e63c34dcd8888888888888f604051610227979695949392919061144b565b60405180910390a18160015f8b81526020019081526020015f205f820151815f01908161025491906116ce565b50602082015181600101908161026a91906116ce565b5060408201518160020155606082015181600301908161028a91906116ce565b5060808201518160040190816102a091906116ce565b5060a0820151816005015560c0820151816006015f820151815f015560208201518160010190816102d191906116ce565b506040820151816002015f6101000a81548160ff021916908360048111156102fc576102fb611299565b5b021790555060608201518160020160016101000a81548160ff02191690831515021790555060808201518160020160026101000a81548160ff02191690831515021790555060a082015181600301908161035691906116ce565b5060c0820151816004015550509050505f82908060018154018082558091505060019003905f5260205f2090600b02015f909190919091505f820151815f0190816103a191906116ce565b5060208201518160010190816103b791906116ce565b506040820151816002015560608201518160030190816103d791906116ce565b5060808201518160040190816103ed91906116ce565b5060a0820151816005015560c0820151816006015f820151815f0155602082015181600101908161041e91906116ce565b506040820151816002015f6101000a81548160ff0219169083600481111561044957610448611299565b5b021790555060608201518160020160016101000a81548160ff02191690831515021790555060808201518160020160026101000a81548160ff02191690831515021790555060a08201518160030190816104a391906116ce565b5060c0820151816004015550505050505050505050505050565b5f60605f5b5f8054905081101561081e57855f82815481106104e2576104e161179d565b5b905f5260205f2090600b02016006015f0154148015610505575060011515851515145b1561060f575f3090505f6305f5e1005f84815481106105275761052661179d565b5b905f5260205f2090600b02016002015461054191906117f7565b90508573ffffffffffffffffffffffffffffffffffffffff166108fc828473ffffffffffffffffffffffffffffffffffffffff16316105809190611838565b8473ffffffffffffffffffffffffffffffffffffffff16316105a29190611838565b90811502906040515f60405180830381858888f193505050501580156105ca573d5f803e3d5ffd5b5060016040518060400160405280601b81526020017f46756e64207472616e73666572207375636365737366756c6c792000000000008152509450945050505061085b565b855f82815481106106235761062261179d565b5b905f5260205f2090600b02016006015f015414801561064557505f1515851515145b1561080b575f818154811061065d5761065c61179d565b5b905f5260205f2090600b0201600501545f82815481106106805761067f61179d565b5b905f5260205f2090600b02016006016004015410156107e65760015f82815481106106ae576106ad61179d565b5b905f5260205f2090600b0201600601600401546106cb919061186b565b5f82815481106106de576106dd61179d565b5b905f5260205f2090600b02016006016004018190555060035f82815481106107095761070861179d565b5b905f5260205f2090600b02016006016002015f6101000a81548160ff0219169083600481111561073c5761073b611299565b5b02179055505f60015f8881526020019081526020015f20905060018160060160040154610769919061186b565b81600601600401819055506003816006016002015f6101000a81548160ff0219169083600481111561079e5761079d611299565b5b021790555060016040518060400160405280601a81526020017f4d5320737461747573206368616e676520746f207265776f726b00000000000081525093509350505061085b565b60016040518060600160405280602381526020016118e660239139925092505061085b565b80806108169061189e565b9150506104c2565b505f6040518060400160405280601081526020017f4d53206964206e6f7420666f756e642000000000000000000000000000000000815250915091505b935093915050565b5f5b5f805490508110156108fd57815f82815481106108855761088461179d565b5b905f5260205f2090600b02016006015f0154036108ea5760025f82815481106108b1576108b061179d565b5b905f5260205f2090600b02016006016002015f6101000a81548160ff021916908360048111156108e4576108e3611299565b5b02179055505b80806108f59061189e565b915050610865565b505f60015f8381526020019081526020015f2090506002816006016002015f6101000a81548160ff0219169083600481111561093c5761093b611299565b5b02179055505050565b5f8181548110610953575f80fd5b905f5260205f2090600b02015f91509050805f01805461097290611501565b80601f016020809104026020016040519081016040528092919081815260200182805461099e90611501565b80156109e95780601f106109c0576101008083540402835291602001916109e9565b820191905f5260205f20905b8154815290600101906020018083116109cc57829003601f168201915b5050505050908060010180546109fe90611501565b80601f0160208091040260200160405190810160405280929190818152602001828054610a2a90611501565b8015610a755780601f10610a4c57610100808354040283529160200191610a75565b820191905f5260205f20905b815481529060010190602001808311610a5857829003601f168201915b505050505090806002015490806003018054610a9090611501565b80601f0160208091040260200160405190810160405280929190818152602001828054610abc90611501565b8015610b075780601f10610ade57610100808354040283529160200191610b07565b820191905f5260205f20905b815481529060010190602001808311610aea57829003601f168201915b505050505090806004018054610b1c90611501565b80601f0160208091040260200160405190810160405280929190818152602001828054610b4890611501565b8015610b935780601f10610b6a57610100808354040283529160200191610b93565b820191905f5260205f20905b815481529060010190602001808311610b7657829003601f168201915b505050505090806005015490806006016040518060e00160405290815f8201548152602001600182018054610bc790611501565b80601f0160208091040260200160405190810160405280929190818152602001828054610bf390611501565b8015610c3e5780601f10610c1557610100808354040283529160200191610c3e565b820191905f5260205f20905b815481529060010190602001808311610c2157829003601f168201915b50505050508152602001600282015f9054906101000a900460ff166004811115610c6b57610c6a611299565b5b6004811115610c7d57610c7c611299565b5b81526020016002820160019054906101000a900460ff161515151581526020016002820160029054906101000a900460ff16151515158152602001600382018054610cc790611501565b80601f0160208091040260200160405190810160405280929190818152602001828054610cf390611501565b8015610d3e5780601f10610d1557610100808354040283529160200191610d3e565b820191905f5260205f20905b815481529060010190602001808311610d2157829003601f168201915b50505050508152602001600482015481525050905087565b6040518060e0016040528060608152602001606081526020015f815260200160608152602001606081526020015f8152602001610d91610d97565b81525090565b6040518060e001604052805f8152602001606081526020015f6004811115610dc257610dc1611299565b5b81526020015f151581526020015f15158152602001606081526020015f81525090565b5f604051905090565b5f80fd5b5f80fd5b5f819050919050565b610e0881610df6565b8114610e12575f80fd5b50565b5f81359050610e2381610dff565b92915050565b5f80fd5b5f80fd5b5f601f19601f8301169050919050565b7f4e487b71000000000000000000000000000000000000000000000000000000005f52604160045260245ffd5b610e7782610e31565b810181811067ffffffffffffffff82111715610e9657610e95610e41565b5b80604052505050565b5f610ea8610de5565b9050610eb48282610e6e565b919050565b5f67ffffffffffffffff821115610ed357610ed2610e41565b5b610edc82610e31565b9050602081019050919050565b828183375f83830152505050565b5f610f09610f0484610eb9565b610e9f565b905082815260208101848484011115610f2557610f24610e2d565b5b610f30848285610ee9565b509392505050565b5f82601f830112610f4c57610f4b610e29565b5b8135610f5c848260208601610ef7565b91505092915050565b5f805f805f805f60e0888a031215610f8057610f7f610dee565b5b5f610f8d8a828b01610e15565b975050602088013567ffffffffffffffff811115610fae57610fad610df2565b5b610fba8a828b01610f38565b965050604088013567ffffffffffffffff811115610fdb57610fda610df2565b5b610fe78a828b01610f38565b9550506060610ff88a828b01610e15565b945050608088013567ffffffffffffffff81111561101957611018610df2565b5b6110258a828b01610f38565b93505060a088013567ffffffffffffffff81111561104657611045610df2565b5b6110528a828b01610f38565b92505060c06110638a828b01610e15565b91505092959891949750929550565b5f8115159050919050565b61108681611072565b8114611090575f80fd5b50565b5f813590506110a18161107d565b92915050565b5f73ffffffffffffffffffffffffffffffffffffffff82169050919050565b5f6110d0826110a7565b9050919050565b6110e0816110c6565b81146110ea575f80fd5b50565b5f813590506110fb816110d7565b92915050565b5f805f6060848603121561111857611117610dee565b5b5f61112586828701610e15565b935050602061113686828701611093565b9250506040611147868287016110ed565b9150509250925092565b61115a81611072565b82525050565b5f81519050919050565b5f82825260208201905092915050565b5f5b8381101561119757808201518184015260208101905061117c565b5f8484015250505050565b5f6111ac82611160565b6111b6818561116a565b93506111c681856020860161117a565b6111cf81610e31565b840191505092915050565b5f6040820190506111ed5f830185611151565b81810360208301526111ff81846111a2565b90509392505050565b5f6020828403121561121d5761121c610dee565b5b5f61122a84828501610e15565b91505092915050565b61123c81610df6565b82525050565b61124b81610df6565b82525050565b5f82825260208201905092915050565b5f61126b82611160565b6112758185611251565b935061128581856020860161117a565b61128e81610e31565b840191505092915050565b7f4e487b71000000000000000000000000000000000000000000000000000000005f52602160045260245ffd5b600581106112d7576112d6611299565b5b50565b5f8190506112e7826112c6565b919050565b5f6112f6826112da565b9050919050565b611306816112ec565b82525050565b61131581611072565b82525050565b5f60e083015f8301516113305f860182611242565b50602083015184820360208601526113488282611261565b915050604083015161135d60408601826112fd565b506060830151611370606086018261130c565b506080830151611383608086018261130c565b5060a083015184820360a086015261139b8282611261565b91505060c08301516113b060c0860182611242565b508091505092915050565b5f60e0820190508181035f8301526113d3818a6111a2565b905081810360208301526113e781896111a2565b90506113f66040830188611233565b818103606083015261140881876111a2565b9050818103608083015261141c81866111a2565b905061142b60a0830185611233565b81810360c083015261143d818461131b565b905098975050505050505050565b5f60e0820190508181035f830152611463818a6111a2565b9050818103602083015261147781896111a2565b90506114866040830188611233565b818103606083015261149881876111a2565b905081810360808301526114ac81866111a2565b90506114bb60a0830185611233565b6114c860c0830184611233565b98975050505050505050565b7f4e487b71000000000000000000000000000000000000000000000000000000005f52602260045260245ffd5b5f600282049050600182168061151857607f821691505b60208210810361152b5761152a6114d4565b5b50919050565b5f819050815f5260205f209050919050565b5f6020601f8301049050919050565b5f82821b905092915050565b5f6008830261158d7fffffffffffffffffffffffffffffffffffffffffffffffffffffffffffffffff82611552565b6115978683611552565b95508019841693508086168417925050509392505050565b5f819050919050565b5f6115d26115cd6115c884610df6565b6115af565b610df6565b9050919050565b5f819050919050565b6115eb836115b8565b6115ff6115f7826115d9565b84845461155e565b825550505050565b5f90565b611613611607565b61161e8184846115e2565b505050565b5b81811015611641576116365f8261160b565b600181019050611624565b5050565b601f8211156116865761165781611531565b61166084611543565b8101602085101561166f578190505b61168361167b85611543565b830182611623565b50505b505050565b5f82821c905092915050565b5f6116a65f198460080261168b565b1980831691505092915050565b5f6116be8383611697565b9150826002028217905092915050565b6116d782611160565b67ffffffffffffffff8111156116f0576116ef610e41565b5b6116fa8254611501565b611705828285611645565b5f60209050601f831160018114611736575f8415611724578287015190505b61172e85826116b3565b865550611795565b601f19841661174486611531565b5f5b8281101561176b57848901518255600182019150602085019450602081019050611746565b868310156117885784890151611784601f891682611697565b8355505b6001600288020188555050505b505050505050565b7f4e487b71000000000000000000000000000000000000000000000000000000005f52603260045260245ffd5b7f4e487b71000000000000000000000000000000000000000000000000000000005f52601160045260245ffd5b5f61180182610df6565b915061180c83610df6565b925082820261181a81610df6565b91508282048414831517611831576118306117ca565b5b5092915050565b5f61184282610df6565b915061184d83610df6565b9250828203905081811115611865576118646117ca565b5b92915050565b5f61187582610df6565b915061188083610df6565b9250828201905080821115611898576118976117ca565b5b92915050565b5f6118a882610df6565b91507fffffffffffffffffffffffffffffffffffffffffffffffffffffffffffffffff82036118da576118d96117ca565b5b60018201905091905056fe50656e616c74792063616c63756c6174696f6e2066756e6374696f6e2063616c6c6564a26469706673582212200d61bc894b4ef7c6ade7d74a5d56cdfedb2ab882e3e89920aac822b7a868c92664736f6c63430008140033",
  "immutableReferences": {},
  "source": "// SPDX-License-Identifier: GPL-3.0\npragma solidity >=0.7.0 <0.9.0;\n\n// Enum declared for state\nenum State {\n    Inprogress,\n    Inreview,\n    Completed,\n    Rework,\n    Forceclosed\n}\n\n// Milestone struct contains fields coming internally\nstruct MilestoneRequired {\n    uint msId;\n    string descriptionFileLink; //string/link\n    State state; //state-> init,done,rework,forcedClose\n    bool isApproved;\n    bool isclosed;\n    string resolveTime;\n    uint revisionCounter;\n}\n\n// Milestone struct contains fields coming from UI\nstruct Milestone {\n    string descriptionFileHash;\n    string title;\n    uint budget;\n    string initDate;\n    string dueDate;\n    uint numberRevisions;\n    MilestoneRequired ms_req;\n}\n\ncontract MilestoneContract {\n    //Milestone array contains milestones\n    Milestone[] public milestonesList;\n\n    // Map to store milestones  msId=> milestone\n    mapping(uint => Milestone) milestones;\n\n    // Event to track change state\n    event trackState(State state);\n\n    event milestoneList(\n        string descriptionFileHash,\n        string title,\n        uint budget,\n        string initDate,\n        string dueDate,\n        uint numberRevisions,\n        uint msId\n    );\n\n    function addMilestone(\n        uint msId,\n        string memory _descriptionFileHash,\n        string memory _title,\n        uint _budget,\n        string memory _initDate,\n        string memory _dueDate,\n        uint _numberRevisions\n    ) public {\n        Milestone memory ms;\n        ms.descriptionFileHash = _descriptionFileHash;\n        ms.title = _title;\n        ms.budget = _budget;\n        ms.initDate = _initDate;\n        ms.dueDate = _dueDate;\n        ms.numberRevisions = _numberRevisions;\n\n        MilestoneRequired memory msreq;\n        msreq.msId = msId; // need to modification and call id generator function\n        msreq.descriptionFileLink = \"www.google.com\";\n        msreq.state = State.Inprogress;\n        msreq.isApproved = false;\n        msreq.isclosed = false;\n        msreq.resolveTime = \"\";\n        msreq.revisionCounter = 0;\n\n        emit milestoneList(\n            _descriptionFileHash,\n            _title,\n            _budget,\n            _initDate,\n            _dueDate,\n            _numberRevisions,\n            msId\n        );\n\n        // emit trackState(msreq.state);\n        // ms.ms_req = msreq;\n\n        milestones[msId] = ms;\n\n        milestonesList.push(ms);\n    }\n\n    // Function called by provider to change MS state\n    function changeMS_state(uint _id) public {\n        for (uint i = 0; i < milestonesList.length; i++) {\n            if (milestonesList[i].ms_req.msId == _id) {\n                milestonesList[i].ms_req.state = State.Completed;\n            }\n        }\n        Milestone storage ms = milestones[_id];\n        ms.ms_req.state = State.Completed;\n        // milestones[_id]=ms;--> This may not req, have to check\n    }\n\n    // Approve MS status -> 1. Accept and payout function will call 2. Reject and State change to rework.\n    function approveMS_status(\n        uint _id,\n        bool _val,\n        address payable provider_address\n    ) public returns (bool approvedStatus, string memory message) {\n        // Purchaser will Approve Provider request\n        for (uint i = 0; i < milestonesList.length; i++) {\n            if (milestonesList[i].ms_req.msId == _id && _val == true) {\n                // Call fund transfer function\n                address contractAddress = address(this);\n                uint bal = (milestonesList[i].budget) * (10 ** 8);\n                provider_address.transfer(\n                    (contractAddress.balance) - (contractAddress.balance - bal)\n                );\n\n                return (true, \"Fund transfer successfully \");\n            } else if (milestonesList[i].ms_req.msId == _id && _val == false) {\n                if (\n                    milestonesList[i].ms_req.revisionCounter <\n                    milestonesList[i].numberRevisions\n                ) {\n                    //Revision counter will increase---> Array\n                    milestonesList[i].ms_req.revisionCounter =\n                        milestonesList[i].ms_req.revisionCounter +\n                        1;\n                    milestonesList[i].ms_req.state = State.Rework;\n\n                    //Revision counter will increase---> Map\n                    Milestone storage ms = milestones[_id];\n                    ms.ms_req.revisionCounter = ms.ms_req.revisionCounter +1;\n                    ms.ms_req.state=State.Rework;\n\n                    return (true, \"MS status change to rework\");\n                } else {\n                    // Penalty calculation function will call\n                    // Need to add more functionalities\n                    return (true, \"Penalty calculation function called\");\n                }\n            }\n        }\n\n        return (false, \"MS id not found \");\n    }\n}\n",
  "sourcePath": "/Users/ravisatyam/Desktop/ravi/escrow-final/contracts/MilestoneContract.sol",
  "compiler": {
    "name": "solc",
    "version": "0.8.20+commit.a1b79de6.Emscripten.clang"
  },
  "schemaVersion": "3.4.14",
  "updatedAt": "2023-06-28T06:57:17.530Z",
  "devdoc": {
    "kind": "dev",
    "methods": {},
    "version": 1
  },
  "userdoc": {
    "kind": "user",
    "methods": {},
    "version": 1
  }
}