{
  "contractName": "MilestoneContract",
  "abi": [
    {
      "anonymous": false,
      "inputs": [
        {
          "indexed": false,
          "internalType": "string",
          "name": "descriptionFileHash",
          "type": "string"
        },
        {
          "indexed": false,
          "internalType": "string",
          "name": "title",
          "type": "string"
        },
        {
          "indexed": false,
          "internalType": "uint256",
          "name": "budget",
          "type": "uint256"
        },
        {
          "indexed": false,
          "internalType": "string",
          "name": "initDate",
          "type": "string"
        },
        {
          "indexed": false,
          "internalType": "string",
          "name": "dueDate",
          "type": "string"
        },
        {
          "indexed": false,
          "internalType": "uint256",
          "name": "numberRevisions",
          "type": "uint256"
        },
        {
          "indexed": false,
          "internalType": "uint256",
          "name": "msId",
          "type": "uint256"
        }
      ],
      "name": "milestoneList",
      "type": "event"
    },
    {
      "anonymous": false,
      "inputs": [
        {
          "indexed": false,
          "internalType": "enum State",
          "name": "state",
          "type": "uint8"
        }
      ],
      "name": "trackState",
      "type": "event"
    },
    {
      "inputs": [
        {
          "internalType": "uint256",
          "name": "",
          "type": "uint256"
        }
      ],
      "name": "milestonesList",
      "outputs": [
        {
          "internalType": "string",
          "name": "descriptionFileHash",
          "type": "string"
        },
        {
          "internalType": "string",
          "name": "title",
          "type": "string"
        },
        {
          "internalType": "uint256",
          "name": "budget",
          "type": "uint256"
        },
        {
          "internalType": "string",
          "name": "initDate",
          "type": "string"
        },
        {
          "internalType": "string",
          "name": "dueDate",
          "type": "string"
        },
        {
          "internalType": "uint256",
          "name": "numberRevisions",
          "type": "uint256"
        },
        {
          "components": [
            {
              "internalType": "uint256",
              "name": "msId",
              "type": "uint256"
            },
            {
              "internalType": "string",
              "name": "descriptionFileLink",
              "type": "string"
            },
            {
              "internalType": "enum State",
              "name": "state",
              "type": "uint8"
            },
            {
              "internalType": "bool",
              "name": "isApproved",
              "type": "bool"
            },
            {
              "internalType": "bool",
              "name": "isclosed",
              "type": "bool"
            },
            {
              "internalType": "string",
              "name": "resolveTime",
              "type": "string"
            },
            {
              "internalType": "uint256",
              "name": "revisionCounter",
              "type": "uint256"
            }
          ],
          "internalType": "struct MilestoneRequired",
          "name": "ms_req",
          "type": "tuple"
        }
      ],
      "stateMutability": "view",
      "type": "function"
    },
    {
      "inputs": [
        {
          "internalType": "uint256",
          "name": "msId",
          "type": "uint256"
        },
        {
          "internalType": "string",
          "name": "_descriptionFileHash",
          "type": "string"
        },
        {
          "internalType": "string",
          "name": "_title",
          "type": "string"
        },
        {
          "internalType": "uint256",
          "name": "_budget",
          "type": "uint256"
        },
        {
          "internalType": "string",
          "name": "_initDate",
          "type": "string"
        },
        {
          "internalType": "string",
          "name": "_dueDate",
          "type": "string"
        },
        {
          "internalType": "uint256",
          "name": "_numberRevisions",
          "type": "uint256"
        }
      ],
      "name": "addMilestone",
      "outputs": [],
      "stateMutability": "nonpayable",
      "type": "function"
    },
    {
      "inputs": [
        {
          "internalType": "uint256",
          "name": "_id",
          "type": "uint256"
        }
      ],
      "name": "changeMS_state",
      "outputs": [],
      "stateMutability": "nonpayable",
      "type": "function"
    }
  ],
  "bytecode": "0x608060405234801561000f575f80fd5b506113ed8061001d5f395ff3fe608060405234801561000f575f80fd5b506004361061003f575f3560e01c80631053c9981461004357806372a207d71461005f578063cbda494a1461007b575b5f80fd5b61005d60048036038101906100589190610bc7565b6100b1565b005b61007960048036038101906100749190610cd4565b6104c5565b005b61009560048036038101906100909190610cd4565b6105a7565b6040516100a89796959493929190610f0c565b60405180910390f35b6100b96109b8565b86815f018190525085816020018190525084816040018181525050838160600181905250828160800181905250818160a00181815250506100f86109f9565b88815f0181815250506040518060400160405280600e81526020017f7777772e676f6f676c652e636f6d00000000000000000000000000000000000081525081602001819052505f8160400190600481111561015757610156610ddf565b5b9081600481111561016b5761016a610ddf565b5b815250505f8160600190151590811515815250505f81608001901515908115158152505060405180602001604052805f8152508160a001819052505f8160c00181815250507fbddb1ceede154cb7fd51c2c105c4cd9fdeca47d52399300d8f94c97e63c34dcd8888888888888f6040516101eb9796959493929190610f9c565b60405180910390a17fe445fe19a5560afd2e3f14077cfb0f37708a6571ef78da21df8436ebfed3be2f81604001516040516102269190611034565b60405180910390a1808260c001819052508160015f8b81526020019081526020015f205f820151815f01908161025c9190611247565b5060208201518160010190816102729190611247565b506040820151816002015560608201518160030190816102929190611247565b5060808201518160040190816102a89190611247565b5060a0820151816005015560c0820151816006015f820151815f015560208201518160010190816102d99190611247565b506040820151816002015f6101000a81548160ff0219169083600481111561030457610303610ddf565b5b021790555060608201518160020160016101000a81548160ff02191690831515021790555060808201518160020160026101000a81548160ff02191690831515021790555060a082015181600301908161035e9190611247565b5060c0820151816004015550509050505f82908060018154018082558091505060019003905f5260205f2090600b02015f909190919091505f820151815f0190816103a99190611247565b5060208201518160010190816103bf9190611247565b506040820151816002015560608201518160030190816103df9190611247565b5060808201518160040190816103f59190611247565b5060a0820151816005015560c0820151816006015f820151815f015560208201518160010190816104269190611247565b506040820151816002015f6101000a81548160ff0219169083600481111561045157610450610ddf565b5b021790555060608201518160020160016101000a81548160ff02191690831515021790555060808201518160020160026101000a81548160ff02191690831515021790555060a08201518160030190816104ab9190611247565b5060c0820151816004015550505050505050505050505050565b5f5b5f8054905081101561055f57815f82815481106104e7576104e6611316565b5b905f5260205f2090600b02016006015f01540361054c5760025f828154811061051357610512611316565b5b905f5260205f2090600b02016006016002015f6101000a81548160ff0219169083600481111561054657610545610ddf565b5b02179055505b808061055790611370565b9150506104c7565b505f60015f8381526020019081526020015f2090506002816006016002015f6101000a81548160ff0219169083600481111561059e5761059d610ddf565b5b02179055505050565b5f81815481106105b5575f80fd5b905f5260205f2090600b02015f91509050805f0180546105d49061107a565b80601f01602080910402602001604051908101604052809291908181526020018280546106009061107a565b801561064b5780601f106106225761010080835404028352916020019161064b565b820191905f5260205f20905b81548152906001019060200180831161062e57829003601f168201915b5050505050908060010180546106609061107a565b80601f016020809104026020016040519081016040528092919081815260200182805461068c9061107a565b80156106d75780601f106106ae576101008083540402835291602001916106d7565b820191905f5260205f20905b8154815290600101906020018083116106ba57829003601f168201915b5050505050908060020154908060030180546106f29061107a565b80601f016020809104026020016040519081016040528092919081815260200182805461071e9061107a565b80156107695780601f1061074057610100808354040283529160200191610769565b820191905f5260205f20905b81548152906001019060200180831161074c57829003601f168201915b50505050509080600401805461077e9061107a565b80601f01602080910402602001604051908101604052809291908181526020018280546107aa9061107a565b80156107f55780601f106107cc576101008083540402835291602001916107f5565b820191905f5260205f20905b8154815290600101906020018083116107d857829003601f168201915b505050505090806005015490806006016040518060e00160405290815f82015481526020016001820180546108299061107a565b80601f01602080910402602001604051908101604052809291908181526020018280546108559061107a565b80156108a05780601f10610877576101008083540402835291602001916108a0565b820191905f5260205f20905b81548152906001019060200180831161088357829003601f168201915b50505050508152602001600282015f9054906101000a900460ff1660048111156108cd576108cc610ddf565b5b60048111156108df576108de610ddf565b5b81526020016002820160019054906101000a900460ff161515151581526020016002820160029054906101000a900460ff161515151581526020016003820180546109299061107a565b80601f01602080910402602001604051908101604052809291908181526020018280546109559061107a565b80156109a05780601f10610977576101008083540402835291602001916109a0565b820191905f5260205f20905b81548152906001019060200180831161098357829003601f168201915b50505050508152602001600482015481525050905087565b6040518060e0016040528060608152602001606081526020015f815260200160608152602001606081526020015f81526020016109f36109f9565b81525090565b6040518060e001604052805f8152602001606081526020015f6004811115610a2457610a23610ddf565b5b81526020015f151581526020015f15158152602001606081526020015f81525090565b5f604051905090565b5f80fd5b5f80fd5b5f819050919050565b610a6a81610a58565b8114610a74575f80fd5b50565b5f81359050610a8581610a61565b92915050565b5f80fd5b5f80fd5b5f601f19601f8301169050919050565b7f4e487b71000000000000000000000000000000000000000000000000000000005f52604160045260245ffd5b610ad982610a93565b810181811067ffffffffffffffff82111715610af857610af7610aa3565b5b80604052505050565b5f610b0a610a47565b9050610b168282610ad0565b919050565b5f67ffffffffffffffff821115610b3557610b34610aa3565b5b610b3e82610a93565b9050602081019050919050565b828183375f83830152505050565b5f610b6b610b6684610b1b565b610b01565b905082815260208101848484011115610b8757610b86610a8f565b5b610b92848285610b4b565b509392505050565b5f82601f830112610bae57610bad610a8b565b5b8135610bbe848260208601610b59565b91505092915050565b5f805f805f805f60e0888a031215610be257610be1610a50565b5b5f610bef8a828b01610a77565b975050602088013567ffffffffffffffff811115610c1057610c0f610a54565b5b610c1c8a828b01610b9a565b965050604088013567ffffffffffffffff811115610c3d57610c3c610a54565b5b610c498a828b01610b9a565b9550506060610c5a8a828b01610a77565b945050608088013567ffffffffffffffff811115610c7b57610c7a610a54565b5b610c878a828b01610b9a565b93505060a088013567ffffffffffffffff811115610ca857610ca7610a54565b5b610cb48a828b01610b9a565b92505060c0610cc58a828b01610a77565b91505092959891949750929550565b5f60208284031215610ce957610ce8610a50565b5b5f610cf684828501610a77565b91505092915050565b5f81519050919050565b5f82825260208201905092915050565b5f5b83811015610d36578082015181840152602081019050610d1b565b5f8484015250505050565b5f610d4b82610cff565b610d558185610d09565b9350610d65818560208601610d19565b610d6e81610a93565b840191505092915050565b610d8281610a58565b82525050565b610d9181610a58565b82525050565b5f82825260208201905092915050565b5f610db182610cff565b610dbb8185610d97565b9350610dcb818560208601610d19565b610dd481610a93565b840191505092915050565b7f4e487b71000000000000000000000000000000000000000000000000000000005f52602160045260245ffd5b60058110610e1d57610e1c610ddf565b5b50565b5f819050610e2d82610e0c565b919050565b5f610e3c82610e20565b9050919050565b610e4c81610e32565b82525050565b5f8115159050919050565b610e6681610e52565b82525050565b5f60e083015f830151610e815f860182610d88565b5060208301518482036020860152610e998282610da7565b9150506040830151610eae6040860182610e43565b506060830151610ec16060860182610e5d565b506080830151610ed46080860182610e5d565b5060a083015184820360a0860152610eec8282610da7565b91505060c0830151610f0160c0860182610d88565b508091505092915050565b5f60e0820190508181035f830152610f24818a610d41565b90508181036020830152610f388189610d41565b9050610f476040830188610d79565b8181036060830152610f598187610d41565b90508181036080830152610f6d8186610d41565b9050610f7c60a0830185610d79565b81810360c0830152610f8e8184610e6c565b905098975050505050505050565b5f60e0820190508181035f830152610fb4818a610d41565b90508181036020830152610fc88189610d41565b9050610fd76040830188610d79565b8181036060830152610fe98187610d41565b90508181036080830152610ffd8186610d41565b905061100c60a0830185610d79565b61101960c0830184610d79565b98975050505050505050565b61102e81610e32565b82525050565b5f6020820190506110475f830184611025565b92915050565b7f4e487b71000000000000000000000000000000000000000000000000000000005f52602260045260245ffd5b5f600282049050600182168061109157607f821691505b6020821081036110a4576110a361104d565b5b50919050565b5f819050815f5260205f209050919050565b5f6020601f8301049050919050565b5f82821b905092915050565b5f600883026111067fffffffffffffffffffffffffffffffffffffffffffffffffffffffffffffffff826110cb565b61111086836110cb565b95508019841693508086168417925050509392505050565b5f819050919050565b5f61114b61114661114184610a58565b611128565b610a58565b9050919050565b5f819050919050565b61116483611131565b61117861117082611152565b8484546110d7565b825550505050565b5f90565b61118c611180565b61119781848461115b565b505050565b5b818110156111ba576111af5f82611184565b60018101905061119d565b5050565b601f8211156111ff576111d0816110aa565b6111d9846110bc565b810160208510156111e8578190505b6111fc6111f4856110bc565b83018261119c565b50505b505050565b5f82821c905092915050565b5f61121f5f1984600802611204565b1980831691505092915050565b5f6112378383611210565b9150826002028217905092915050565b61125082610cff565b67ffffffffffffffff81111561126957611268610aa3565b5b611273825461107a565b61127e8282856111be565b5f60209050601f8311600181146112af575f841561129d578287015190505b6112a7858261122c565b86555061130e565b601f1984166112bd866110aa565b5f5b828110156112e4578489015182556001820191506020850194506020810190506112bf565b8683101561130157848901516112fd601f891682611210565b8355505b6001600288020188555050505b505050505050565b7f4e487b71000000000000000000000000000000000000000000000000000000005f52603260045260245ffd5b7f4e487b71000000000000000000000000000000000000000000000000000000005f52601160045260245ffd5b5f61137a82610a58565b91507fffffffffffffffffffffffffffffffffffffffffffffffffffffffffffffffff82036113ac576113ab611343565b5b60018201905091905056fea264697066735822122082180a2aa5c92018f3b04fa6f4d0301c35c51a456bfe0fd032470dd4f69901f464736f6c63430008140033",
  "immutableReferences": {},
  "source": "// SPDX-License-Identifier: GPL-3.0\npragma solidity >=0.7.0 <0.9.0;\n\n// Enum declared for state\nenum State {\n    Inprogress,\n    Inreview,\n    Completed,\n    Rework,\n    Forceclosed\n}\n\n// Milestone struct contains fields coming internally\nstruct MilestoneRequired {\n    uint msId;\n    string descriptionFileLink; //string/link\n    State state; //state-> init,done,rework,forcedClose\n    bool isApproved;\n    bool isclosed;\n    string resolveTime;\n    uint revisionCounter;\n}\n\n// Milestone struct contains fields coming from UI\nstruct Milestone {\n    string descriptionFileHash;\n    string title;\n    uint budget;\n    string initDate;\n    string dueDate;\n    uint numberRevisions;\n    MilestoneRequired ms_req;\n}\n\ncontract MilestoneContract {\n    //Milestone array contains milestones\n    Milestone[] public milestonesList;\n\n    // Map to store milestones  msId=> milestone\n    mapping(uint => Milestone) milestones;\n\n    // Event to track change state\n    event trackState(State state);\n\n    event milestoneList(\n        string descriptionFileHash,\n        string title,\n        uint budget,\n        string initDate,\n        string dueDate,\n        uint numberRevisions,\n        uint msId\n\n    );\n\n    function addMilestone(\n        uint msId,\n        string memory _descriptionFileHash,\n        string memory _title,\n        uint _budget,\n        string memory _initDate,\n        string memory _dueDate,\n        uint _numberRevisions\n    ) public {\n        Milestone memory ms;\n        ms.descriptionFileHash = _descriptionFileHash;\n        ms.title = _title;\n        ms.budget = _budget;\n        ms.initDate = _initDate;\n        ms.dueDate = _dueDate;\n        ms.numberRevisions = _numberRevisions;\n\n        MilestoneRequired memory msreq;\n        msreq.msId = msId; // need to modification and call id generator function\n        msreq.descriptionFileLink = \"www.google.com\";\n        msreq.state = State.Inprogress;\n        msreq.isApproved = false;\n        msreq.isclosed = false;\n        msreq.resolveTime = \"\";\n        msreq.revisionCounter = 0;\n\n        emit milestoneList(\n            _descriptionFileHash,\n            _title,\n            _budget,\n            _initDate,\n            _dueDate,\n            _numberRevisions,\n            msId\n        );\n\n        emit trackState(msreq.state);\n        ms.ms_req = msreq;\n\n        milestones[msId] = ms;\n\n        milestonesList.push(ms);\n    }\n\n    // Function called by provider to change MS state\n    function changeMS_state(uint _id) public {\n        for (uint i = 0; i < milestonesList.length; i++) {\n            if (milestonesList[i].ms_req.msId == _id) {\n                milestonesList[i].ms_req.state = State.Completed;\n            }\n        }\n        Milestone storage ms = milestones[_id];\n        ms.ms_req.state = State.Completed;\n        // milestones[_id]=ms;--> This may not req, have to check\n    }\n}\n",
  "sourcePath": "/Users/ravisatyam/Desktop/ravi/escrow-final/contracts/MilestoneContract.sol",
  "compiler": {
    "name": "solc",
    "version": "0.8.20+commit.a1b79de6.Emscripten.clang"
  },
  "schemaVersion": "3.4.14",
  "updatedAt": "2023-06-26T11:30:58.902Z",
  "devdoc": {
    "kind": "dev",
    "methods": {},
    "version": 1
  },
  "userdoc": {
    "kind": "user",
    "methods": {},
    "version": 1
  }
}