{
  "contractName": "MilestoneContract",
  "abi": [
    {
      "anonymous": false,
      "inputs": [
        {
          "indexed": false,
          "internalType": "string",
          "name": "descriptionFileHash",
          "type": "string"
        },
        {
          "indexed": false,
          "internalType": "string",
          "name": "title",
          "type": "string"
        },
        {
          "indexed": false,
          "internalType": "uint256",
          "name": "budget",
          "type": "uint256"
        },
        {
          "indexed": false,
          "internalType": "string",
          "name": "initDate",
          "type": "string"
        },
        {
          "indexed": false,
          "internalType": "string",
          "name": "dueDate",
          "type": "string"
        },
        {
          "indexed": false,
          "internalType": "uint256",
          "name": "numberRevisions",
          "type": "uint256"
        },
        {
          "indexed": false,
          "internalType": "uint256",
          "name": "msId",
          "type": "uint256"
        }
      ],
      "name": "milestoneList",
      "type": "event"
    },
    {
      "anonymous": false,
      "inputs": [
        {
          "indexed": false,
          "internalType": "enum State",
          "name": "state",
          "type": "uint8"
        }
      ],
      "name": "trackState",
      "type": "event"
    },
    {
      "inputs": [
        {
          "internalType": "uint256",
          "name": "",
          "type": "uint256"
        }
      ],
      "name": "milestonesList",
      "outputs": [
        {
          "internalType": "string",
          "name": "descriptionFileHash",
          "type": "string"
        },
        {
          "internalType": "string",
          "name": "title",
          "type": "string"
        },
        {
          "internalType": "uint256",
          "name": "budget",
          "type": "uint256"
        },
        {
          "internalType": "string",
          "name": "initDate",
          "type": "string"
        },
        {
          "internalType": "string",
          "name": "dueDate",
          "type": "string"
        },
        {
          "internalType": "uint256",
          "name": "numberRevisions",
          "type": "uint256"
        },
        {
          "components": [
            {
              "internalType": "uint256",
              "name": "msId",
              "type": "uint256"
            },
            {
              "internalType": "string",
              "name": "descriptionFileLink",
              "type": "string"
            },
            {
              "internalType": "enum State",
              "name": "state",
              "type": "uint8"
            },
            {
              "internalType": "bool",
              "name": "isApproved",
              "type": "bool"
            },
            {
              "internalType": "bool",
              "name": "isclosed",
              "type": "bool"
            },
            {
              "internalType": "string",
              "name": "resolveTime",
              "type": "string"
            },
            {
              "internalType": "uint256",
              "name": "revisionCounter",
              "type": "uint256"
            }
          ],
          "internalType": "struct MilestoneRequired",
          "name": "ms_req",
          "type": "tuple"
        }
      ],
      "stateMutability": "view",
      "type": "function"
    },
    {
      "inputs": [
        {
          "internalType": "uint256",
          "name": "_msId",
          "type": "uint256"
        },
        {
          "internalType": "string",
          "name": "_descriptionFileHash",
          "type": "string"
        },
        {
          "internalType": "string",
          "name": "_title",
          "type": "string"
        },
        {
          "internalType": "uint256",
          "name": "_budget",
          "type": "uint256"
        },
        {
          "internalType": "string",
          "name": "_initDate",
          "type": "string"
        },
        {
          "internalType": "string",
          "name": "_dueDate",
          "type": "string"
        },
        {
          "internalType": "uint256",
          "name": "_numberRevisions",
          "type": "uint256"
        }
      ],
      "name": "addMilestone",
      "outputs": [],
      "stateMutability": "nonpayable",
      "type": "function"
    },
    {
      "inputs": [
        {
          "internalType": "uint256",
          "name": "_id",
          "type": "uint256"
        }
      ],
      "name": "changeMS_state",
      "outputs": [],
      "stateMutability": "nonpayable",
      "type": "function"
    },
    {
      "inputs": [
        {
          "internalType": "uint256",
          "name": "_id",
          "type": "uint256"
        },
        {
          "internalType": "bool",
          "name": "_val",
          "type": "bool"
        },
        {
          "internalType": "address payable",
          "name": "provider_address",
          "type": "address"
        }
      ],
      "name": "approveMS_status",
      "outputs": [
        {
          "internalType": "bool",
          "name": "approvedStatus",
          "type": "bool"
        },
        {
          "internalType": "string",
          "name": "message",
          "type": "string"
        }
      ],
      "stateMutability": "nonpayable",
      "type": "function"
    },
    {
      "inputs": [
        {
          "internalType": "uint256",
          "name": "_Id",
          "type": "uint256"
        }
      ],
      "name": "getMilestoneById",
      "outputs": [
        {
          "components": [
            {
              "internalType": "string",
              "name": "descriptionFileHash",
              "type": "string"
            },
            {
              "internalType": "string",
              "name": "title",
              "type": "string"
            },
            {
              "internalType": "uint256",
              "name": "budget",
              "type": "uint256"
            },
            {
              "internalType": "string",
              "name": "initDate",
              "type": "string"
            },
            {
              "internalType": "string",
              "name": "dueDate",
              "type": "string"
            },
            {
              "internalType": "uint256",
              "name": "numberRevisions",
              "type": "uint256"
            },
            {
              "components": [
                {
                  "internalType": "uint256",
                  "name": "msId",
                  "type": "uint256"
                },
                {
                  "internalType": "string",
                  "name": "descriptionFileLink",
                  "type": "string"
                },
                {
                  "internalType": "enum State",
                  "name": "state",
                  "type": "uint8"
                },
                {
                  "internalType": "bool",
                  "name": "isApproved",
                  "type": "bool"
                },
                {
                  "internalType": "bool",
                  "name": "isclosed",
                  "type": "bool"
                },
                {
                  "internalType": "string",
                  "name": "resolveTime",
                  "type": "string"
                },
                {
                  "internalType": "uint256",
                  "name": "revisionCounter",
                  "type": "uint256"
                }
              ],
              "internalType": "struct MilestoneRequired",
              "name": "ms_req",
              "type": "tuple"
            }
          ],
          "internalType": "struct Milestone",
          "name": "ms",
          "type": "tuple"
        }
      ],
      "stateMutability": "view",
      "type": "function"
    },
    {
      "inputs": [],
      "name": "getAllMS",
      "outputs": [
        {
          "components": [
            {
              "internalType": "string",
              "name": "descriptionFileHash",
              "type": "string"
            },
            {
              "internalType": "string",
              "name": "title",
              "type": "string"
            },
            {
              "internalType": "uint256",
              "name": "budget",
              "type": "uint256"
            },
            {
              "internalType": "string",
              "name": "initDate",
              "type": "string"
            },
            {
              "internalType": "string",
              "name": "dueDate",
              "type": "string"
            },
            {
              "internalType": "uint256",
              "name": "numberRevisions",
              "type": "uint256"
            },
            {
              "components": [
                {
                  "internalType": "uint256",
                  "name": "msId",
                  "type": "uint256"
                },
                {
                  "internalType": "string",
                  "name": "descriptionFileLink",
                  "type": "string"
                },
                {
                  "internalType": "enum State",
                  "name": "state",
                  "type": "uint8"
                },
                {
                  "internalType": "bool",
                  "name": "isApproved",
                  "type": "bool"
                },
                {
                  "internalType": "bool",
                  "name": "isclosed",
                  "type": "bool"
                },
                {
                  "internalType": "string",
                  "name": "resolveTime",
                  "type": "string"
                },
                {
                  "internalType": "uint256",
                  "name": "revisionCounter",
                  "type": "uint256"
                }
              ],
              "internalType": "struct MilestoneRequired",
              "name": "ms_req",
              "type": "tuple"
            }
          ],
          "internalType": "struct Milestone[]",
          "name": "msList",
          "type": "tuple[]"
        }
      ],
      "stateMutability": "view",
      "type": "function"
    }
  ],
  "bytecode": "0x608060405234801561000f575f80fd5b506125ac8061001d5f395ff3fe608060405234801561000f575f80fd5b5060043610610060575f3560e01c80631053c99814610064578063399a567c1461008057806365ad8b75146100b057806372a207d7146100e1578063cbda494a146100fd578063ebceba4214610133575b5f80fd5b61007e600480360381019061007991906118ce565b610151565b005b61009a600480360381019061009591906119db565b61052a565b6040516100a79190611c71565b60405180910390f35b6100ca60048036038101906100c59190611d15565b6109c1565b6040516100d8929190611dbc565b60405180910390f35b6100fb60048036038101906100f691906119db565b610d67565b005b610117600480360381019061011291906119db565b610e49565b60405161012a9796959493929190611e99565b60405180910390f35b61013b61125a565b6040516101489190612099565b60405180910390f35b6101596116bf565b86815f018190525085816020018190525084816040018181525050838160600181905250828160800181905250818160a0018181525050610198611700565b88815f0181815250506040518060400160405280600e81526020017f7777772e676f6f676c652e636f6d00000000000000000000000000000000000081525081602001819052505f816040019060048111156101f7576101f6611a8f565b5b9081600481111561020b5761020a611a8f565b5b815250505f8160600190151590811515815250505f81608001901515908115158152505060405180602001604052805f8152508160a001819052505f8160c00181815250507fbddb1ceede154cb7fd51c2c105c4cd9fdeca47d52399300d8f94c97e63c34dcd8888888888888f60405161028b97969594939291906120b9565b60405180910390a1808260c001819052508160015f8b81526020019081526020015f205f820151815f0190816102c1919061233c565b5060208201518160010190816102d7919061233c565b506040820151816002015560608201518160030190816102f7919061233c565b50608082015181600401908161030d919061233c565b5060a0820151816005015560c0820151816006015f820151815f0155602082015181600101908161033e919061233c565b506040820151816002015f6101000a81548160ff0219169083600481111561036957610368611a8f565b5b021790555060608201518160020160016101000a81548160ff02191690831515021790555060808201518160020160026101000a81548160ff02191690831515021790555060a08201518160030190816103c3919061233c565b5060c0820151816004015550509050505f82908060018154018082558091505060019003905f5260205f2090600b02015f909190919091505f820151815f01908161040e919061233c565b506020820151816001019081610424919061233c565b50604082015181600201556060820151816003019081610444919061233c565b50608082015181600401908161045a919061233c565b5060a0820151816005015560c0820151816006015f820151815f0155602082015181600101908161048b919061233c565b506040820151816002015f6101000a81548160ff021916908360048111156104b6576104b5611a8f565b5b021790555060608201518160020160016101000a81548160ff02191690831515021790555060808201518160020160026101000a81548160ff02191690831515021790555060a0820151816003019081610510919061233c565b5060c0820151816004015550505050505050505050505050565b6105326116bf565b5f5b5f805490508110156109ba57825f82815481106105545761055361240b565b5b905f5260205f2090600b02016006015f0154036109a7575f818154811061057e5761057d61240b565b5b905f5260205f2090600b02016040518060e00160405290815f820180546105a49061216f565b80601f01602080910402602001604051908101604052809291908181526020018280546105d09061216f565b801561061b5780601f106105f25761010080835404028352916020019161061b565b820191905f5260205f20905b8154815290600101906020018083116105fe57829003601f168201915b505050505081526020016001820180546106349061216f565b80601f01602080910402602001604051908101604052809291908181526020018280546106609061216f565b80156106ab5780601f10610682576101008083540402835291602001916106ab565b820191905f5260205f20905b81548152906001019060200180831161068e57829003601f168201915b50505050508152602001600282015481526020016003820180546106ce9061216f565b80601f01602080910402602001604051908101604052809291908181526020018280546106fa9061216f565b80156107455780601f1061071c57610100808354040283529160200191610745565b820191905f5260205f20905b81548152906001019060200180831161072857829003601f168201915b5050505050815260200160048201805461075e9061216f565b80601f016020809104026020016040519081016040528092919081815260200182805461078a9061216f565b80156107d55780601f106107ac576101008083540402835291602001916107d5565b820191905f5260205f20905b8154815290600101906020018083116107b857829003601f168201915b5050505050815260200160058201548152602001600682016040518060e00160405290815f82015481526020016001820180546108119061216f565b80601f016020809104026020016040519081016040528092919081815260200182805461083d9061216f565b80156108885780601f1061085f57610100808354040283529160200191610888565b820191905f5260205f20905b81548152906001019060200180831161086b57829003601f168201915b50505050508152602001600282015f9054906101000a900460ff1660048111156108b5576108b4611a8f565b5b60048111156108c7576108c6611a8f565b5b81526020016002820160019054906101000a900460ff161515151581526020016002820160029054906101000a900460ff161515151581526020016003820180546109119061216f565b80601f016020809104026020016040519081016040528092919081815260200182805461093d9061216f565b80156109885780601f1061095f57610100808354040283529160200191610988565b820191905f5260205f20905b81548152906001019060200180831161096b57829003601f168201915b50505050508152602001600482015481525050815250509150506109bc565b80806109b290612465565b915050610534565b505b919050565b5f60605f5b5f80549050811015610d2257855f82815481106109e6576109e561240b565b5b905f5260205f2090600b02016006015f0154148015610a09575060011515851515145b15610b13575f3090505f6305f5e1005f8481548110610a2b57610a2a61240b565b5b905f5260205f2090600b020160020154610a4591906124ac565b90508573ffffffffffffffffffffffffffffffffffffffff166108fc828473ffffffffffffffffffffffffffffffffffffffff1631610a8491906124ed565b8473ffffffffffffffffffffffffffffffffffffffff1631610aa691906124ed565b90811502906040515f60405180830381858888f19350505050158015610ace573d5f803e3d5ffd5b5060016040518060400160405280601b81526020017f46756e64207472616e73666572207375636365737366756c6c7920000000000081525094509450505050610d5f565b855f8281548110610b2757610b2661240b565b5b905f5260205f2090600b02016006015f0154148015610b4957505f1515851515145b15610d0f575f8181548110610b6157610b6061240b565b5b905f5260205f2090600b0201600501545f8281548110610b8457610b8361240b565b5b905f5260205f2090600b0201600601600401541015610cea5760015f8281548110610bb257610bb161240b565b5b905f5260205f2090600b020160060160040154610bcf9190612520565b5f8281548110610be257610be161240b565b5b905f5260205f2090600b02016006016004018190555060035f8281548110610c0d57610c0c61240b565b5b905f5260205f2090600b02016006016002015f6101000a81548160ff02191690836004811115610c4057610c3f611a8f565b5b02179055505f60015f8881526020019081526020015f20905060018160060160040154610c6d9190612520565b81600601600401819055506003816006016002015f6101000a81548160ff02191690836004811115610ca257610ca1611a8f565b5b021790555060016040518060400160405280601a81526020017f4d5320737461747573206368616e676520746f207265776f726b000000000000815250935093505050610d5f565b6001604051806060016040528060238152602001612554602391399250925050610d5f565b8080610d1a90612465565b9150506109c6565b505f6040518060400160405280601081526020017f4d53206964206e6f7420666f756e642000000000000000000000000000000000815250915091505b935093915050565b5f5b5f80549050811015610e0157815f8281548110610d8957610d8861240b565b5b905f5260205f2090600b02016006015f015403610dee5760025f8281548110610db557610db461240b565b5b905f5260205f2090600b02016006016002015f6101000a81548160ff02191690836004811115610de857610de7611a8f565b5b02179055505b8080610df990612465565b915050610d69565b505f60015f8381526020019081526020015f2090506002816006016002015f6101000a81548160ff02191690836004811115610e4057610e3f611a8f565b5b02179055505050565b5f8181548110610e57575f80fd5b905f5260205f2090600b02015f91509050805f018054610e769061216f565b80601f0160208091040260200160405190810160405280929190818152602001828054610ea29061216f565b8015610eed5780601f10610ec457610100808354040283529160200191610eed565b820191905f5260205f20905b815481529060010190602001808311610ed057829003601f168201915b505050505090806001018054610f029061216f565b80601f0160208091040260200160405190810160405280929190818152602001828054610f2e9061216f565b8015610f795780601f10610f5057610100808354040283529160200191610f79565b820191905f5260205f20905b815481529060010190602001808311610f5c57829003601f168201915b505050505090806002015490806003018054610f949061216f565b80601f0160208091040260200160405190810160405280929190818152602001828054610fc09061216f565b801561100b5780601f10610fe25761010080835404028352916020019161100b565b820191905f5260205f20905b815481529060010190602001808311610fee57829003601f168201915b5050505050908060040180546110209061216f565b80601f016020809104026020016040519081016040528092919081815260200182805461104c9061216f565b80156110975780601f1061106e57610100808354040283529160200191611097565b820191905f5260205f20905b81548152906001019060200180831161107a57829003601f168201915b505050505090806005015490806006016040518060e00160405290815f82015481526020016001820180546110cb9061216f565b80601f01602080910402602001604051908101604052809291908181526020018280546110f79061216f565b80156111425780601f1061111957610100808354040283529160200191611142565b820191905f5260205f20905b81548152906001019060200180831161112557829003601f168201915b50505050508152602001600282015f9054906101000a900460ff16600481111561116f5761116e611a8f565b5b600481111561118157611180611a8f565b5b81526020016002820160019054906101000a900460ff161515151581526020016002820160029054906101000a900460ff161515151581526020016003820180546111cb9061216f565b80601f01602080910402602001604051908101604052809291908181526020018280546111f79061216f565b80156112425780601f1061121957610100808354040283529160200191611242565b820191905f5260205f20905b81548152906001019060200180831161122557829003601f168201915b50505050508152602001600482015481525050905087565b60605f805480602002602001604051908101604052809291908181526020015f905b828210156116b6578382905f5260205f2090600b02016040518060e00160405290815f820180546112ac9061216f565b80601f01602080910402602001604051908101604052809291908181526020018280546112d89061216f565b80156113235780601f106112fa57610100808354040283529160200191611323565b820191905f5260205f20905b81548152906001019060200180831161130657829003601f168201915b5050505050815260200160018201805461133c9061216f565b80601f01602080910402602001604051908101604052809291908181526020018280546113689061216f565b80156113b35780601f1061138a576101008083540402835291602001916113b3565b820191905f5260205f20905b81548152906001019060200180831161139657829003601f168201915b50505050508152602001600282015481526020016003820180546113d69061216f565b80601f01602080910402602001604051908101604052809291908181526020018280546114029061216f565b801561144d5780601f106114245761010080835404028352916020019161144d565b820191905f5260205f20905b81548152906001019060200180831161143057829003601f168201915b505050505081526020016004820180546114669061216f565b80601f01602080910402602001604051908101604052809291908181526020018280546114929061216f565b80156114dd5780601f106114b4576101008083540402835291602001916114dd565b820191905f5260205f20905b8154815290600101906020018083116114c057829003601f168201915b5050505050815260200160058201548152602001600682016040518060e00160405290815f82015481526020016001820180546115199061216f565b80601f01602080910402602001604051908101604052809291908181526020018280546115459061216f565b80156115905780601f1061156757610100808354040283529160200191611590565b820191905f5260205f20905b81548152906001019060200180831161157357829003601f168201915b50505050508152602001600282015f9054906101000a900460ff1660048111156115bd576115bc611a8f565b5b60048111156115cf576115ce611a8f565b5b81526020016002820160019054906101000a900460ff161515151581526020016002820160029054906101000a900460ff161515151581526020016003820180546116199061216f565b80601f01602080910402602001604051908101604052809291908181526020018280546116459061216f565b80156116905780601f1061166757610100808354040283529160200191611690565b820191905f5260205f20905b81548152906001019060200180831161167357829003601f168201915b50505050508152602001600482015481525050815250508152602001906001019061127c565b50505050905090565b6040518060e0016040528060608152602001606081526020015f815260200160608152602001606081526020015f81526020016116fa611700565b81525090565b6040518060e001604052805f8152602001606081526020015f600481111561172b5761172a611a8f565b5b81526020015f151581526020015f15158152602001606081526020015f81525090565b5f604051905090565b5f80fd5b5f80fd5b5f819050919050565b6117718161175f565b811461177b575f80fd5b50565b5f8135905061178c81611768565b92915050565b5f80fd5b5f80fd5b5f601f19601f8301169050919050565b7f4e487b71000000000000000000000000000000000000000000000000000000005f52604160045260245ffd5b6117e08261179a565b810181811067ffffffffffffffff821117156117ff576117fe6117aa565b5b80604052505050565b5f61181161174e565b905061181d82826117d7565b919050565b5f67ffffffffffffffff82111561183c5761183b6117aa565b5b6118458261179a565b9050602081019050919050565b828183375f83830152505050565b5f61187261186d84611822565b611808565b90508281526020810184848401111561188e5761188d611796565b5b611899848285611852565b509392505050565b5f82601f8301126118b5576118b4611792565b5b81356118c5848260208601611860565b91505092915050565b5f805f805f805f60e0888a0312156118e9576118e8611757565b5b5f6118f68a828b0161177e565b975050602088013567ffffffffffffffff8111156119175761191661175b565b5b6119238a828b016118a1565b965050604088013567ffffffffffffffff8111156119445761194361175b565b5b6119508a828b016118a1565b95505060606119618a828b0161177e565b945050608088013567ffffffffffffffff8111156119825761198161175b565b5b61198e8a828b016118a1565b93505060a088013567ffffffffffffffff8111156119af576119ae61175b565b5b6119bb8a828b016118a1565b92505060c06119cc8a828b0161177e565b91505092959891949750929550565b5f602082840312156119f0576119ef611757565b5b5f6119fd8482850161177e565b91505092915050565b5f81519050919050565b5f82825260208201905092915050565b5f5b83811015611a3d578082015181840152602081019050611a22565b5f8484015250505050565b5f611a5282611a06565b611a5c8185611a10565b9350611a6c818560208601611a20565b611a758161179a565b840191505092915050565b611a898161175f565b82525050565b7f4e487b71000000000000000000000000000000000000000000000000000000005f52602160045260245ffd5b60058110611acd57611acc611a8f565b5b50565b5f819050611add82611abc565b919050565b5f611aec82611ad0565b9050919050565b611afc81611ae2565b82525050565b5f8115159050919050565b611b1681611b02565b82525050565b5f60e083015f830151611b315f860182611a80565b5060208301518482036020860152611b498282611a48565b9150506040830151611b5e6040860182611af3565b506060830151611b716060860182611b0d565b506080830151611b846080860182611b0d565b5060a083015184820360a0860152611b9c8282611a48565b91505060c0830151611bb160c0860182611a80565b508091505092915050565b5f60e083015f8301518482035f860152611bd68282611a48565b91505060208301518482036020860152611bf08282611a48565b9150506040830151611c056040860182611a80565b5060608301518482036060860152611c1d8282611a48565b91505060808301518482036080860152611c378282611a48565b91505060a0830151611c4c60a0860182611a80565b5060c083015184820360c0860152611c648282611b1c565b9150508091505092915050565b5f6020820190508181035f830152611c898184611bbc565b905092915050565b611c9a81611b02565b8114611ca4575f80fd5b50565b5f81359050611cb581611c91565b92915050565b5f73ffffffffffffffffffffffffffffffffffffffff82169050919050565b5f611ce482611cbb565b9050919050565b611cf481611cda565b8114611cfe575f80fd5b50565b5f81359050611d0f81611ceb565b92915050565b5f805f60608486031215611d2c57611d2b611757565b5b5f611d398682870161177e565b9350506020611d4a86828701611ca7565b9250506040611d5b86828701611d01565b9150509250925092565b611d6e81611b02565b82525050565b5f82825260208201905092915050565b5f611d8e82611a06565b611d988185611d74565b9350611da8818560208601611a20565b611db18161179a565b840191505092915050565b5f604082019050611dcf5f830185611d65565b8181036020830152611de18184611d84565b90509392505050565b611df38161175f565b82525050565b5f60e083015f830151611e0e5f860182611a80565b5060208301518482036020860152611e268282611a48565b9150506040830151611e3b6040860182611af3565b506060830151611e4e6060860182611b0d565b506080830151611e616080860182611b0d565b5060a083015184820360a0860152611e798282611a48565b91505060c0830151611e8e60c0860182611a80565b508091505092915050565b5f60e0820190508181035f830152611eb1818a611d84565b90508181036020830152611ec58189611d84565b9050611ed46040830188611dea565b8181036060830152611ee68187611d84565b90508181036080830152611efa8186611d84565b9050611f0960a0830185611dea565b81810360c0830152611f1b8184611df9565b905098975050505050505050565b5f81519050919050565b5f82825260208201905092915050565b5f819050602082019050919050565b5f60e083015f8301518482035f860152611f6c8282611a48565b91505060208301518482036020860152611f868282611a48565b9150506040830151611f9b6040860182611a80565b5060608301518482036060860152611fb38282611a48565b91505060808301518482036080860152611fcd8282611a48565b91505060a0830151611fe260a0860182611a80565b5060c083015184820360c0860152611ffa8282611b1c565b9150508091505092915050565b5f6120128383611f52565b905092915050565b5f602082019050919050565b5f61203082611f29565b61203a8185611f33565b93508360208202850161204c85611f43565b805f5b8581101561208757848403895281516120688582612007565b94506120738361201a565b925060208a0199505060018101905061204f565b50829750879550505050505092915050565b5f6020820190508181035f8301526120b18184612026565b905092915050565b5f60e0820190508181035f8301526120d1818a611d84565b905081810360208301526120e58189611d84565b90506120f46040830188611dea565b81810360608301526121068187611d84565b9050818103608083015261211a8186611d84565b905061212960a0830185611dea565b61213660c0830184611dea565b98975050505050505050565b7f4e487b71000000000000000000000000000000000000000000000000000000005f52602260045260245ffd5b5f600282049050600182168061218657607f821691505b60208210810361219957612198612142565b5b50919050565b5f819050815f5260205f209050919050565b5f6020601f8301049050919050565b5f82821b905092915050565b5f600883026121fb7fffffffffffffffffffffffffffffffffffffffffffffffffffffffffffffffff826121c0565b61220586836121c0565b95508019841693508086168417925050509392505050565b5f819050919050565b5f61224061223b6122368461175f565b61221d565b61175f565b9050919050565b5f819050919050565b61225983612226565b61226d61226582612247565b8484546121cc565b825550505050565b5f90565b612281612275565b61228c818484612250565b505050565b5b818110156122af576122a45f82612279565b600181019050612292565b5050565b601f8211156122f4576122c58161219f565b6122ce846121b1565b810160208510156122dd578190505b6122f16122e9856121b1565b830182612291565b50505b505050565b5f82821c905092915050565b5f6123145f19846008026122f9565b1980831691505092915050565b5f61232c8383612305565b9150826002028217905092915050565b61234582611a06565b67ffffffffffffffff81111561235e5761235d6117aa565b5b612368825461216f565b6123738282856122b3565b5f60209050601f8311600181146123a4575f8415612392578287015190505b61239c8582612321565b865550612403565b601f1984166123b28661219f565b5f5b828110156123d9578489015182556001820191506020850194506020810190506123b4565b868310156123f657848901516123f2601f891682612305565b8355505b6001600288020188555050505b505050505050565b7f4e487b71000000000000000000000000000000000000000000000000000000005f52603260045260245ffd5b7f4e487b71000000000000000000000000000000000000000000000000000000005f52601160045260245ffd5b5f61246f8261175f565b91507fffffffffffffffffffffffffffffffffffffffffffffffffffffffffffffffff82036124a1576124a0612438565b5b600182019050919050565b5f6124b68261175f565b91506124c18361175f565b92508282026124cf8161175f565b915082820484148315176124e6576124e5612438565b5b5092915050565b5f6124f78261175f565b91506125028361175f565b925082820390508181111561251a57612519612438565b5b92915050565b5f61252a8261175f565b91506125358361175f565b925082820190508082111561254d5761254c612438565b5b9291505056fe50656e616c74792063616c63756c6174696f6e2066756e6374696f6e2063616c6c6564a264697066735822122095496da3616c826d22c58f09031952583a5f10bca69962d2e4a581cfd0f3e08d64736f6c63430008140033",
  "immutableReferences": {},
  "source": "// SPDX-License-Identifier: GPL-3.0\npragma solidity >=0.7.0 <0.9.0;\n\n// Enum declared for state\nenum State {\n    Inprogress,\n    Inreview,\n    Completed,\n    Rework,\n    Forceclosed\n}\n\n// Milestone struct contains fields coming internally\nstruct MilestoneRequired {\n    uint msId;\n    string descriptionFileLink; //string/link\n    State state; //state-> init,done,rework,forcedClose\n    bool isApproved;\n    bool isclosed;\n    string resolveTime;\n    uint revisionCounter;\n}\n\n// Milestone struct contains fields coming from UI\nstruct Milestone {\n    string descriptionFileHash;\n    string title;\n    uint budget;\n    string initDate;\n    string dueDate;\n    uint numberRevisions;\n    MilestoneRequired ms_req;\n}\n\ncontract MilestoneContract {\n    //Milestone array contains milestones\n    Milestone[] public milestonesList;\n\n    // Map to store milestones  msId=> milestone\n    mapping(uint => Milestone) milestones;\n\n    // Event to track change state\n    event trackState(State state);\n\n    event milestoneList(\n        string descriptionFileHash,\n        string title,\n        uint budget,\n        string initDate,\n        string dueDate,\n        uint numberRevisions,\n        uint msId\n    );\n\n    function addMilestone(\n        uint _msId,\n        string memory _descriptionFileHash,\n        string memory _title,\n        uint _budget,\n        string memory _initDate,\n        string memory _dueDate,\n        uint _numberRevisions\n    ) public {\n        Milestone memory ms;\n        ms.descriptionFileHash = _descriptionFileHash;\n        ms.title = _title;\n        ms.budget = _budget;\n        ms.initDate = _initDate;\n        ms.dueDate = _dueDate;\n        ms.numberRevisions = _numberRevisions;\n\n        MilestoneRequired memory msreq;\n        msreq.msId = _msId; // need to modification and call id generator function\n        msreq.descriptionFileLink = \"www.google.com\";\n        msreq.state = State.Inprogress;\n        msreq.isApproved = false;\n        msreq.isclosed = false;\n        msreq.resolveTime = \"\";\n        msreq.revisionCounter = 0;\n\n        emit milestoneList(\n            _descriptionFileHash,\n            _title,\n            _budget,\n            _initDate,\n            _dueDate,\n            _numberRevisions,\n            _msId\n        );\n\n        // emit trackState(msreq.state);\n         ms.ms_req = msreq;\n\n        milestones[_msId] = ms;\n\n        milestonesList.push(ms);\n    }\n\n    // Function called by provider to change MS state\n    function changeMS_state(uint _id) public {\n        for (uint i = 0; i < milestonesList.length; i++) {\n            if (milestonesList[i].ms_req.msId == _id) {\n                milestonesList[i].ms_req.state = State.Completed;\n            }\n        }\n        Milestone storage ms = milestones[_id];\n        ms.ms_req.state = State.Completed;\n        // milestones[_id]=ms;--> This may not req, have to check\n    }\n\n    // Approve MS status -> 1. Accept and payout function will call 2. Reject and State change to rework.\n    function approveMS_status(\n        uint _id,\n        bool _val,\n        address payable provider_address\n    ) public returns (bool approvedStatus, string memory message) {\n        // Purchaser will Approve Provider request\n        for (uint i = 0; i < milestonesList.length; i++) {\n            if (milestonesList[i].ms_req.msId == _id && _val == true) {\n                // Call fund transfer function\n                address contractAddress = address(this);\n                uint bal = (milestonesList[i].budget) * (10 ** 8);\n                provider_address.transfer(\n                    (contractAddress.balance) - (contractAddress.balance - bal)\n                );\n\n                return (true, \"Fund transfer successfully \");\n            } else if (milestonesList[i].ms_req.msId == _id && _val == false) {\n                if (\n                    milestonesList[i].ms_req.revisionCounter <\n                    milestonesList[i].numberRevisions\n                ) {\n                    //Revision counter will increase---> Array\n                    milestonesList[i].ms_req.revisionCounter =\n                        milestonesList[i].ms_req.revisionCounter +\n                        1;\n                    milestonesList[i].ms_req.state = State.Rework;\n\n                    //Revision counter will increase---> Map\n                    Milestone storage ms = milestones[_id];\n                    ms.ms_req.revisionCounter = ms.ms_req.revisionCounter +1;\n                    ms.ms_req.state=State.Rework;\n\n                    return (true, \"MS status change to rework\");\n                } else {\n                    // Penalty calculation function will call\n                    // Need to add more functionalities\n                    return (true, \"Penalty calculation function called\");\n                }\n            }\n        }\n\n        return (false, \"MS id not found \");\n    }\n\n    // Get MS by Id\n    function getMilestoneById(uint _Id) public view returns (Milestone memory ms) {\n        for (uint i = 0; i < milestonesList.length; i++) {\n            if(milestonesList[i].ms_req.msId==_Id){\n                return milestonesList[i];\n            }\n        }\n        \n    }\n\n    // Get all MS\n    function getAllMS() public view returns (Milestone[] memory msList) {\n        return milestonesList;\n    }\n\n    \n}\n",
  "sourcePath": "/Users/ravisatyam/Desktop/ravi/escrow-final/contracts/MilestoneContract.sol",
  "compiler": {
    "name": "solc",
    "version": "0.8.20+commit.a1b79de6.Emscripten.clang"
  },
  "schemaVersion": "3.4.14",
  "updatedAt": "2023-06-28T09:34:23.779Z",
  "devdoc": {
    "kind": "dev",
    "methods": {},
    "version": 1
  },
  "userdoc": {
    "kind": "user",
    "methods": {},
    "version": 1
  }
}