{
  "contractName": "PaymentContract",
  "abi": [
    {
      "stateMutability": "payable",
      "type": "fallback"
    },
    {
      "stateMutability": "payable",
      "type": "receive"
    },
    {
      "inputs": [
        {
          "internalType": "address payable",
          "name": "_providerAddress",
          "type": "address"
        },
        {
          "internalType": "uint256",
          "name": "_amount",
          "type": "uint256"
        },
        {
          "internalType": "address payable",
          "name": "contract_address",
          "type": "address"
        }
      ],
      "name": "payout",
      "outputs": [],
      "stateMutability": "nonpayable",
      "type": "function"
    },
    {
      "inputs": [
        {
          "internalType": "address payable",
          "name": "_purhaserAddress",
          "type": "address"
        },
        {
          "internalType": "address payable",
          "name": "contract_address",
          "type": "address"
        }
      ],
      "name": "releaseFreeBalance",
      "outputs": [],
      "stateMutability": "nonpayable",
      "type": "function"
    }
  ],
  "bytecode": "0x608060405234801561000f575f80fd5b506103308061001d5f395ff3fe60806040526004361061002c575f3560e01c8063cbc8ea8c14610035578063d717cf271461005d57610033565b3661003357005b005b348015610040575f80fd5b5061005b6004803603810190610056919061020c565b610085565b005b348015610068575f80fd5b50610083600480360381019061007e919061025c565b610117565b005b5f828273ffffffffffffffffffffffffffffffffffffffff16316100a991906102c7565b8273ffffffffffffffffffffffffffffffffffffffff16316100cb91906102c7565b90508373ffffffffffffffffffffffffffffffffffffffff166108fc8290811502906040515f60405180830381858888f19350505050158015610110573d5f803e3d5ffd5b5050505050565b5f8173ffffffffffffffffffffffffffffffffffffffff163190508273ffffffffffffffffffffffffffffffffffffffff166108fc8290811502906040515f60405180830381858888f19350505050158015610175573d5f803e3d5ffd5b50505050565b5f80fd5b5f73ffffffffffffffffffffffffffffffffffffffff82169050919050565b5f6101a88261017f565b9050919050565b6101b88161019e565b81146101c2575f80fd5b50565b5f813590506101d3816101af565b92915050565b5f819050919050565b6101eb816101d9565b81146101f5575f80fd5b50565b5f81359050610206816101e2565b92915050565b5f805f606084860312156102235761022261017b565b5b5f610230868287016101c5565b9350506020610241868287016101f8565b9250506040610252868287016101c5565b9150509250925092565b5f80604083850312156102725761027161017b565b5b5f61027f858286016101c5565b9250506020610290858286016101c5565b9150509250929050565b7f4e487b71000000000000000000000000000000000000000000000000000000005f52601160045260245ffd5b5f6102d1826101d9565b91506102dc836101d9565b92508282039050818111156102f4576102f361029a565b5b9291505056fea2646970667358221220cb3e77002aad19b493949835366058ca28fc608f29ad2a6d05239a94ad443f9a64736f6c63430008140033",
  "immutableReferences": {},
  "source": "// SPDX-License-Identifier: GPL-3.0\npragma solidity >=0.7.0 <0.9.0;\n\n// Compile with remix for remote imports to work - otherwise keep precompiles locally\nimport \"../precompiled-contracts/HederaTokenService.sol\";\nimport \"../precompiled-contracts/HederaResponseCodes.sol\";\nimport \"./EscrowContract.sol\";\n\n\n\ncontract PaymentContract is HederaTokenService{\n\n\n\n    //============================================ \n    // GETTING HBAR TO THE CONTRACT\n    //============================================ \n    // Lock Funds to the Contract from the Purchaser\n    receive() external payable {}\n\n    fallback() external payable {}\n\n\n\n    function payout(address payable _providerAddress, uint256 _amount,address payable contract_address ) public {\n\n      // require(providerAddress == _providerAddress, \"Address doesn't match\");\n      // contract_address = payable(this);\n     // uint256 amount=_amount*(10**8);\n      uint256 price = contract_address.balance - (contract_address.balance - _amount);\n      _providerAddress.transfer(price);\n\n\n    }\n\n\n    // // Extra Funds returned to the Purchaser by Escrow SC\n    function releaseFreeBalance(address payable _purhaserAddress,address payable contract_address) public {\n      // contract_address = payable(this);\n     uint256 _amount = contract_address.balance;\n      _purhaserAddress.transfer(_amount);\n    }\n\n    // // Allocated Funds to 3rd Party\n    // function releaseFunds(address payable _creditAddress, address payable contract_address) public{\n\n    //   // contract_address = payable(this);\n    //  uint256 _amount = contract_address.balance;\n    //   _creditAddress.transfer(_amount);\n    // }\n\n\n    // //============================================ \n    // // CHECKING THE HBAR BALANCE OF THE CONTRACT\n    // //============================================ \n    // function getBalance() public view returns (uint) {\n    //     return address(this).balance;\n    // }\n}",
  "sourcePath": "/Users/amritakumari/Documents/escrow-final-draft/contracts/PaymentContract.sol",
  "compiler": {
    "name": "solc",
    "version": "0.8.20+commit.a1b79de6.Emscripten.clang"
  },
  "schemaVersion": "3.4.14",
  "updatedAt": "2023-06-27T17:50:44.232Z",
  "devdoc": {
    "kind": "dev",
    "methods": {},
    "version": 1
  },
  "userdoc": {
    "kind": "user",
    "methods": {},
    "version": 1
  }
}