{
  "contractName": "PaymentContract",
  "abi": [
    {
      "stateMutability": "payable",
      "type": "fallback"
    },
    {
      "stateMutability": "payable",
      "type": "receive"
    },
    {
      "inputs": [
        {
          "internalType": "address payable",
          "name": "_providerAddress",
          "type": "address"
        },
        {
          "internalType": "uint256",
          "name": "_amount",
          "type": "uint256"
        }
      ],
      "name": "payout",
      "outputs": [],
      "stateMutability": "nonpayable",
      "type": "function"
    },
    {
      "inputs": [
        {
          "internalType": "address payable",
          "name": "_purhaserAddress",
          "type": "address"
        }
      ],
      "name": "releaseFreeBalance",
      "outputs": [],
      "stateMutability": "nonpayable",
      "type": "function"
    },
    {
      "inputs": [
        {
          "internalType": "address payable",
          "name": "_creditAddress",
          "type": "address"
        }
      ],
      "name": "releaseFunds",
      "outputs": [],
      "stateMutability": "nonpayable",
      "type": "function"
    },
    {
      "inputs": [],
      "name": "getBalance",
      "outputs": [
        {
          "internalType": "uint256",
          "name": "",
          "type": "uint256"
        }
      ],
      "stateMutability": "view",
      "type": "function"
    }
  ],
  "bytecode": "0x608060405234801561000f575f80fd5b506103228061001d5f395ff3fe608060405260043610610042575f3560e01c8063117de2fd1461004b57806312065fe014610073578063192e7a7b1461009d578063b2dd3f3f146100c557610049565b3661004957005b005b348015610056575f80fd5b50610071600480360381019061006c919061025b565b6100ed565b005b34801561007e575f80fd5b50610087610135565b60405161009491906102a8565b60405180910390f35b3480156100a8575f80fd5b506100c360048036038101906100be91906102c1565b61013c565b005b3480156100d0575f80fd5b506100eb60048036038101906100e691906102c1565b610183565b005b8173ffffffffffffffffffffffffffffffffffffffff166108fc8290811502906040515f60405180830381858888f19350505050158015610130573d5f803e3d5ffd5b505050565b5f47905090565b8073ffffffffffffffffffffffffffffffffffffffff166108fc4790811502906040515f60405180830381858888f1935050505015801561017f573d5f803e3d5ffd5b5050565b8073ffffffffffffffffffffffffffffffffffffffff166108fc4790811502906040515f60405180830381858888f193505050501580156101c6573d5f803e3d5ffd5b5050565b5f80fd5b5f73ffffffffffffffffffffffffffffffffffffffff82169050919050565b5f6101f7826101ce565b9050919050565b610207816101ed565b8114610211575f80fd5b50565b5f81359050610222816101fe565b92915050565b5f819050919050565b61023a81610228565b8114610244575f80fd5b50565b5f8135905061025581610231565b92915050565b5f8060408385031215610271576102706101ca565b5b5f61027e85828601610214565b925050602061028f85828601610247565b9150509250929050565b6102a281610228565b82525050565b5f6020820190506102bb5f830184610299565b92915050565b5f602082840312156102d6576102d56101ca565b5b5f6102e384828501610214565b9150509291505056fea2646970667358221220001a168ecaa296f73d8894ccf6bcc6083b1e3f8d08804370f7a347cb230588e564736f6c63430008140033",
  "immutableReferences": {},
  "source": "// SPDX-License-Identifier: GPL-3.0\npragma solidity >=0.7.0 <0.9.0;\n\n// Compile with remix for remote imports to work - otherwise keep precompiles locally\nimport \"../precompiled-contracts/HederaTokenService.sol\";\nimport \"../precompiled-contracts/HederaResponseCodes.sol\";\n\n\n\n\ncontract PaymentContract is HederaTokenService{\n\n\n\n    //============================================ \n    // GETTING HBAR TO THE CONTRACT\n    //============================================ \n    // Lock Funds to the Contract from the Purchaser\n    receive() external payable {}\n\n    fallback() external payable {}\n\n\n   // Payout to provider\n    function payout(address payable _providerAddress, uint256 _amount) public {\n\n      _providerAddress.transfer(_amount);\n\n\n    }\n\n\n    // // Extra Funds returned to the Purchaser by Escrow SC\n    function releaseFreeBalance(address payable _purhaserAddress) public {\n      \n      _purhaserAddress.transfer(address(this).balance);\n    }\n\n    // Allocated Funds to 3rd Party\n    function releaseFunds(address payable _creditAddress) public{\n\n      _creditAddress.transfer(address(this).balance);\n    }\n\n\n    //============================================ \n    // CHECKING THE HBAR BALANCE OF THE CONTRACT\n    //============================================ \n    function getBalance() public view returns (uint) {\n        return address(this).balance;\n    }\n}",
  "sourcePath": "/Users/ravisatyam/Downloads/nestjs_test_prisma-rest-api-prisma/nestjs_test_prisma-rest-api-prisma_4.0_final/contracts/PaymentContract.sol",
  "compiler": {
    "name": "solc",
    "version": "0.8.20+commit.a1b79de6.Emscripten.clang"
  },
  "schemaVersion": "3.4.14",
  "updatedAt": "2023-07-10T17:36:16.747Z",
  "devdoc": {
    "kind": "dev",
    "methods": {},
    "version": 1
  },
  "userdoc": {
    "kind": "user",
    "methods": {},
    "version": 1
  }
}